{
  "transactions": [
    {
      "hash": "0x772d67e0c5a66073fc9471ee84a567eb5a6f9c9fd3a0b2bbd7508a7468657a60",
      "transactionType": "CALL",
      "contractName": null,
      "contractAddress": "0x3cc147b897b4e57b201e71a75e403b52a7da04b0",
      "function": "syncPosition(bytes32)",
      "arguments": [
        "0xa2fb3187aa2eaf894d515c7a93f49d6c1eaa15f13837b8776f382b1423c93dba"
      ],
      "transaction": {
        "from": "0x4b3f725984d30ea7e8a4092a4bf684b97b99370c",
        "to": "0x3cc147b897b4e57b201e71a75e403b52a7da04b0",
        "gas": "0x31a82",
        "value": "0x0",
        "input": "0xe5e7e5f2a2fb3187aa2eaf894d515c7a93f49d6c1eaa15f13837b8776f382b1423c93dba",
        "nonce": "0x13",
        "chainId": "0xaa36a7"
      },
      "additionalContracts": [],
      "isFixedGasLimit": false
    }
  ],
  "receipts": [
    {
      "status": "0x1",
      "cumulativeGasUsed": "0xbfb6ee",
      "logs": [
        {
          "address": "0x3cc147b897b4e57b201e71a75e403b52a7da04b0",
          "topics": [
            "0xb1b7af3632f49d5b19dbf83683fa7f25b3bb2b65bcaeed750857e79925bf1051",
            "0xa2fb3187aa2eaf894d515c7a93f49d6c1eaa15f13837b8776f382b1423c93dba"
          ],
          "data": "0x0000000000000000000000000000000000000000000000000f9ae4107dcd73e800000000000000000000000000000000000000000000000000000000774517e4",
          "blockHash": "0xc85ff5c991518533bf3ded98c09c2d40f7cee5b66dc5403f5976fc6cb588a453",
          "blockNumber": "0xa0b5f5",
          "blockTimestamp": "0x69c66a98",
          "transactionHash": "0x772d67e0c5a66073fc9471ee84a567eb5a6f9c9fd3a0b2bbd7508a7468657a60",
          "transactionIndex": "0x54",
          "logIndex": "0x27c",
          "removed": false
        }
      ],
      "logsBloom": "0x00000000000000000000000000800000000000000000000000000000000000000000000000002000000000000000000000000000000000000000000000000000000000000000000000000000000000000000000000000000000000000000000000000000000000000000000040000000000000000000000000100000000000000000000000000000000000000000800000000000000000000000000000000000000000000000000000000000000000000000000000000000000000000000000000000000000000000000000000000000000000000000001000000000000000000000000000000040000000000000000000000000000000000000000000000200",
      "type": "0x2",
      "transactionHash": "0x772d67e0c5a66073fc9471ee84a567eb5a6f9c9fd3a0b2bbd7508a7468657a60",
      "transactionIndex": "0x54",
      "blockHash": "0xc85ff5c991518533bf3ded98c09c2d40f7cee5b66dc5403f5976fc6cb588a453",
      "blockNumber": "0xa0b5f5",
      "gasUsed": "0x23f36",
      "effectiveGasPrice": "0xf4258",
      "from": "0x4b3f725984d30ea7e8a4092a4bf684b97b99370c",
      "to": "0x3cc147b897b4e57b201e71a75e403b52a7da04b0",
      "contractAddress": null
    }
  ],
  "libraries": [],
  "pending": [],
  "returns": {},
  "timestamp": 1774611096,
  "chain": 11155111,
  "commit": "a782da8"
}