{
  "transactions": [
    {
      "hash": "0x7ecf1b87367149fa305654261b9dabe33115242782f4bd068d2762e749a9b37c",
      "transactionType": "CALL",
      "contractName": null,
      "contractAddress": "0xb5c1cd1d7a0b6539645eeddc83e5e9aeb37fe929",
      "function": "updateCollateralValue(bytes32,uint256)",
      "arguments": [
        "0x46226cefadc3df2d2ec09988c12224674225bdea4cd29532f085d9a0bc9aa8a4",
        "90000000"
      ],
      "transaction": {
        "from": "0x5508532b027d57b020e6c0bedb1fe19a6d6c555c",
        "to": "0xb5c1cd1d7a0b6539645eeddc83e5e9aeb37fe929",
        "gas": "0xfda8",
        "value": "0x0",
        "input": "0x5936e8e046226cefadc3df2d2ec09988c12224674225bdea4cd29532f085d9a0bc9aa8a400000000000000000000000000000000000000000000000000000000055d4a80",
        "nonce": "0x25",
        "chainId": "0xaa36a7"
      },
      "additionalContracts": [],
      "isFixedGasLimit": false
    }
  ],
  "receipts": [
    {
      "status": "0x1",
      "cumulativeGasUsed": "0x2a30d19",
      "logs": [
        {
          "address": "0xd880304d41ab741a23f1760259cb751828869da1",
          "topics": [
            "0xb1b7af3632f49d5b19dbf83683fa7f25b3bb2b65bcaeed750857e79925bf1051",
            "0x46226cefadc3df2d2ec09988c12224674225bdea4cd29532f085d9a0bc9aa8a4"
          ],
          "data": "0x0000000000000000000000000000000000000000000000000c7d713b49da00000000000000000000000000000000000000000000000000000000000005f5e100",
          "blockHash": "0xe29edcfd15a74a7fb3f4bf55efbeb04b4b6d5ce3ed1c1cd858441ae26031755b",
          "blockNumber": "0xa0b363",
          "blockTimestamp": "0x69c64a4c",
          "transactionHash": "0x7ecf1b87367149fa305654261b9dabe33115242782f4bd068d2762e749a9b37c",
          "transactionIndex": "0xb7",
          "logIndex": "0x433",
          "removed": false
        },
        {
          "address": "0xb5c1cd1d7a0b6539645eeddc83e5e9aeb37fe929",
          "topics": [
            "0xb1b7af3632f49d5b19dbf83683fa7f25b3bb2b65bcaeed750857e79925bf1051",
            "0x46226cefadc3df2d2ec09988c12224674225bdea4cd29532f085d9a0bc9aa8a4"
          ],
          "data": "0x0000000000000000000000000000000000000000000000000c7d713b49da00000000000000000000000000000000000000000000000000000000000005f5e100",
          "blockHash": "0xe29edcfd15a74a7fb3f4bf55efbeb04b4b6d5ce3ed1c1cd858441ae26031755b",
          "blockNumber": "0xa0b363",
          "blockTimestamp": "0x69c64a4c",
          "transactionHash": "0x7ecf1b87367149fa305654261b9dabe33115242782f4bd068d2762e749a9b37c",
          "transactionIndex": "0xb7",
          "logIndex": "0x434",
          "removed": false
        }
      ],
      "logsBloom": "0x00000000000000000000000000000000000000000000000000000000000000000000000000002000000000000000000000000000000000000000000000000000000000000000200000000000000800000000000000000010000000000000000000000000000000000000000000084000000000000000000000000080000000000000000000000000000000000000000000000000000000000000000001000000000000000000000000000000000000000000000000000000000000000000040000000000000000000000000000000000000000000000000000000000000000000008000000000000000000000000000000000000000000000000000000000200",
      "type": "0x2",
      "transactionHash": "0x7ecf1b87367149fa305654261b9dabe33115242782f4bd068d2762e749a9b37c",
      "transactionIndex": "0xb7",
      "blockHash": "0xe29edcfd15a74a7fb3f4bf55efbeb04b4b6d5ce3ed1c1cd858441ae26031755b",
      "blockNumber": "0xa0b363",
      "gasUsed": "0xb7a5",
      "effectiveGasPrice": "0x113b88",
      "from": "0x5508532b027d57b020e6c0bedb1fe19a6d6c555c",
      "to": "0xb5c1cd1d7a0b6539645eeddc83e5e9aeb37fe929",
      "contractAddress": null
    }
  ],
  "libraries": [],
  "pending": [],
  "returns": {},
  "timestamp": 1774602828,
  "chain": 11155111,
  "commit": "a782da8"
}