{
  "transactions": [
    {
      "hash": "0x8a740c5345b149f64784186cad9ede3515d92220e830b11b7ff3e0f88f42cb82",
      "transactionType": "CALL",
      "contractName": null,
      "contractAddress": "0x82b78985fc07bc9868bed357a9dff0b710212f6e",
      "function": "configureProtection(bytes32,uint256,uint256,uint256)",
      "arguments": [
        "0x46226cefadc3df2d2ec09988c12224674225bdea4cd29532f085d9a0bc9aa8a4",
        "1150000000000000000",
        "100000000",
        "25"
      ],
      "transaction": {
        "from": "0x5508532b027d57b020e6c0bedb1fe19a6d6c555c",
        "to": "0x82b78985fc07bc9868bed357a9dff0b710212f6e",
        "gas": "0xd3a8",
        "value": "0x0",
        "input": "0xc6c5bea746226cefadc3df2d2ec09988c12224674225bdea4cd29532f085d9a0bc9aa8a40000000000000000000000000000000000000000000000000ff59ee833b300000000000000000000000000000000000000000000000000000000000005f5e1000000000000000000000000000000000000000000000000000000000000000019",
        "nonce": "0x4c",
        "chainId": "0xaa36a7"
      },
      "additionalContracts": [],
      "isFixedGasLimit": false
    },
    {
      "hash": "0x5d86b3b239553650f5ac2287aa798c069c37a76e1d1934e711350b3477acf1ee",
      "transactionType": "CALL",
      "contractName": null,
      "contractAddress": "0x82b78985fc07bc9868bed357a9dff0b710212f6e",
      "function": "depositReserve(bytes32,uint256)",
      "arguments": [
        "0x46226cefadc3df2d2ec09988c12224674225bdea4cd29532f085d9a0bc9aa8a4",
        "0"
      ],
      "transaction": {
        "from": "0x5508532b027d57b020e6c0bedb1fe19a6d6c555c",
        "to": "0x82b78985fc07bc9868bed357a9dff0b710212f6e",
        "gas": "0x10774",
        "value": "0x0",
        "input": "0xf1ede7f446226cefadc3df2d2ec09988c12224674225bdea4cd29532f085d9a0bc9aa8a40000000000000000000000000000000000000000000000000000000000000000",
        "nonce": "0x4d",
        "chainId": "0xaa36a7"
      },
      "additionalContracts": [],
      "isFixedGasLimit": false
    }
  ],
  "receipts": [
    {
      "status": "0x1",
      "cumulativeGasUsed": "0x2066996",
      "logs": [
        {
          "address": "0x82b78985fc07bc9868bed357a9dff0b710212f6e",
          "topics": [
            "0x29b5688caee54ceb8c27d4b86b745ba4379c5cdc9eb0ea810b052b8cfd5dc5f8",
            "0x46226cefadc3df2d2ec09988c12224674225bdea4cd29532f085d9a0bc9aa8a4",
            "0x0000000000000000000000005508532b027d57b020e6c0bedb1fe19a6d6c555c"
          ],
          "data": "0x0000000000000000000000000000000000000000000000000ff59ee833b300000000000000000000000000000000000000000000000000000000000005f5e1000000000000000000000000000000000000000000000000000000000000000019",
          "blockHash": "0xd1db721777f58c9f140c04012fbbedec0bbbb8c89db0503efbed780244343343",
          "blockNumber": "0xa0b53f",
          "blockTimestamp": "0x69c661a4",
          "transactionHash": "0x8a740c5345b149f64784186cad9ede3515d92220e830b11b7ff3e0f88f42cb82",
          "transactionIndex": "0x7e",
          "logIndex": "0x281",
          "removed": false
        }
      ],
      "logsBloom": "0x00000000000000000000000000000000000000000000000000000000000000000000000000000000000000000000000000000000000000000000000000000000000000000000000000000000000000000000000000000010000000000000002000000100000000002000000000000000000000000000000000000000000000000000000000000000000000000000000000000000000000000000000001000000000000000000000000000000000000000000000000000000000000000000040000000000000000000000000000000000000000000000000004000000000000000000000000000040000002500000000000000000000000004000000000000000",
      "type": "0x2",
      "transactionHash": "0x8a740c5345b149f64784186cad9ede3515d92220e830b11b7ff3e0f88f42cb82",
      "transactionIndex": "0x7e",
      "blockHash": "0xd1db721777f58c9f140c04012fbbedec0bbbb8c89db0503efbed780244343343",
      "blockNumber": "0xa0b53f",
      "gasUsed": "0x90b9",
      "effectiveGasPrice": "0xf4260",
      "from": "0x5508532b027d57b020e6c0bedb1fe19a6d6c555c",
      "to": "0x82b78985fc07bc9868bed357a9dff0b710212f6e",
      "contractAddress": null
    },
    {
      "status": "0x1",
      "cumulativeGasUsed": "0x2072853",
      "logs": [
        {
          "address": "0x94a9d9ac8a22534e3faca9f4e7f2e2cf85d5e4c8",
          "topics": [
            "0xddf252ad1be2c89b69c2b068fc378daa952ba7f163c4a11628f55a4df523b3ef",
            "0x0000000000000000000000005508532b027d57b020e6c0bedb1fe19a6d6c555c",
            "0x00000000000000000000000082b78985fc07bc9868bed357a9dff0b710212f6e"
          ],
          "data": "0x0000000000000000000000000000000000000000000000000000000000000000",
          "blockHash": "0xd1db721777f58c9f140c04012fbbedec0bbbb8c89db0503efbed780244343343",
          "blockNumber": "0xa0b53f",
          "blockTimestamp": "0x69c661a4",
          "transactionHash": "0x5d86b3b239553650f5ac2287aa798c069c37a76e1d1934e711350b3477acf1ee",
          "transactionIndex": "0x7f",
          "logIndex": "0x282",
          "removed": false
        },
        {
          "address": "0x94a9d9ac8a22534e3faca9f4e7f2e2cf85d5e4c8",
          "topics": [
            "0x8c5be1e5ebec7d5bd14f71427d1e84f3dd0314c0f7b2291e5b200ac8c7c3b925",
            "0x0000000000000000000000005508532b027d57b020e6c0bedb1fe19a6d6c555c",
            "0x00000000000000000000000082b78985fc07bc9868bed357a9dff0b710212f6e"
          ],
          "data": "0x0000000000000000000000000000000000000000000000000000000000000000",
          "blockHash": "0xd1db721777f58c9f140c04012fbbedec0bbbb8c89db0503efbed780244343343",
          "blockNumber": "0xa0b53f",
          "blockTimestamp": "0x69c661a4",
          "transactionHash": "0x5d86b3b239553650f5ac2287aa798c069c37a76e1d1934e711350b3477acf1ee",
          "transactionIndex": "0x7f",
          "logIndex": "0x283",
          "removed": false
        },
        {
          "address": "0x82b78985fc07bc9868bed357a9dff0b710212f6e",
          "topics": [
            "0xab4d21442efe134c3d0c087e2b687e9593a1c09176f498d37873210cde052c45",
            "0x46226cefadc3df2d2ec09988c12224674225bdea4cd29532f085d9a0bc9aa8a4"
          ],
          "data": "0x000000000000000000000000000000000000000000000000000000000bebc2000000000000000000000000000000000000000000000000000000000000000000",
          "blockHash": "0xd1db721777f58c9f140c04012fbbedec0bbbb8c89db0503efbed780244343343",
          "blockNumber": "0xa0b53f",
          "blockTimestamp": "0x69c661a4",
          "transactionHash": "0x5d86b3b239553650f5ac2287aa798c069c37a76e1d1934e711350b3477acf1ee",
          "transactionIndex": "0x7f",
          "logIndex": "0x284",
          "removed": false
        }
      ],
      "logsBloom": "0x00000000000000000000000000000000000000000000000000000000000000000000000000000000000000000000000000000000000000000000000000200001000000000000000000000008000000000000000000000010000008000000002000000100000000000000000008000000400000000000000000000010000000000000000000000000000000000000000000000000000000000000000001000000020000000100000000004000000000000000000000000000000000000000040000000002002000000000000000000000000200000000002004000000000000000010000000000000000002500000000000000000000000000000000000000000",
      "type": "0x2",
      "transactionHash": "0x5d86b3b239553650f5ac2287aa798c069c37a76e1d1934e711350b3477acf1ee",
      "transactionIndex": "0x7f",
      "blockHash": "0xd1db721777f58c9f140c04012fbbedec0bbbb8c89db0503efbed780244343343",
      "blockNumber": "0xa0b53f",
      "gasUsed": "0xbebd",
      "effectiveGasPrice": "0xf4260",
      "from": "0x5508532b027d57b020e6c0bedb1fe19a6d6c555c",
      "to": "0x82b78985fc07bc9868bed357a9dff0b710212f6e",
      "contractAddress": null
    }
  ],
  "libraries": [],
  "pending": [],
  "returns": {},
  "timestamp": 1774608806,
  "chain": 11155111,
  "commit": "a782da8"
}