{
  "transactions": [
    {
      "hash": "0x65f7b203243ed1eddf1b60147c0ce94bceb2b92ad948304c812a670e222fda68",
      "transactionType": "CREATE",
      "contractName": "MockUSDC",
      "contractAddress": "0x42d38301da818c0d38846d10a5808a02458d19de",
      "function": null,
      "arguments": null,
      "transaction": {
        "from": "0x5508532b027d57b020e6c0bedb1fe19a6d6c555c",
        "gas": "0x1028f5",
        "value": "0x0",
        "input": "0x608060405234801561000f575f80fd5b50610dce8061001d5f395ff3fe608060405234801561000f575f80fd5b506004361061009c575f3560e01c806340c10f191161006457806340c10f191461015a57806370a082311461017657806395d89b41146101a6578063a9059cbb146101c4578063dd62ed3e146101f45761009c565b806306fdde03146100a0578063095ea7b3146100be57806318160ddd146100ee57806323b872dd1461010c578063313ce5671461013c575b5f80fd5b6100a8610224565b6040516100b59190610996565b60405180910390f35b6100d860048036038101906100d39190610a47565b61025d565b6040516100e59190610a9f565b60405180910390f35b6100f661034a565b6040516101039190610ac7565b60405180910390f35b61012660048036038101906101219190610ae0565b61034f565b6040516101339190610a9f565b60405180910390f35b6101446105b3565b6040516101519190610b4b565b60405180910390f35b610174600480360381019061016f9190610a47565b6105b8565b005b610190600480360381019061018b9190610b64565b61068b565b60405161019d9190610ac7565b60405180910390f35b6101ae6106a0565b6040516101bb9190610996565b60405180910390f35b6101de60048036038101906101d99190610a47565b6106d9565b6040516101eb9190610a9f565b60405180910390f35b61020e60048036038101906102099190610b8f565b6106ef565b60405161021b9190610ac7565b60405180910390f35b6040518060400160405280600981526020017f4d6f636b2055534443000000000000000000000000000000000000000000000081525081565b5f8160025f3373ffffffffffffffffffffffffffffffffffffffff1673ffffffffffffffffffffffffffffffffffffffff1681526020019081526020015f205f8573ffffffffffffffffffffffffffffffffffffffff1673ffffffffffffffffffffffffffffffffffffffff1681526020019081526020015f20819055508273ffffffffffffffffffffffffffffffffffffffff163373ffffffffffffffffffffffffffffffffffffffff167f8c5be1e5ebec7d5bd14f71427d1e84f3dd0314c0f7b2291e5b200ac8c7c3b925846040516103389190610ac7565b60405180910390a36001905092915050565b5f5481565b5f8060025f8673ffffffffffffffffffffffffffffffffffffffff1673ffffffffffffffffffffffffffffffffffffffff1681526020019081526020015f205f3373ffffffffffffffffffffffffffffffffffffffff1673ffffffffffffffffffffffffffffffffffffffff1681526020019081526020015f205490508281101561040f576040517f08c379a000000000000000000000000000000000000000000000000000000000815260040161040690610c17565b60405180910390fd5b7fffffffffffffffffffffffffffffffffffffffffffffffffffffffffffffffff811461059c5782816104429190610c62565b60025f8773ffffffffffffffffffffffffffffffffffffffff1673ffffffffffffffffffffffffffffffffffffffff1681526020019081526020015f205f3373ffffffffffffffffffffffffffffffffffffffff1673ffffffffffffffffffffffffffffffffffffffff1681526020019081526020015f20819055503373ffffffffffffffffffffffffffffffffffffffff168573ffffffffffffffffffffffffffffffffffffffff167f8c5be1e5ebec7d5bd14f71427d1e84f3dd0314c0f7b2291e5b200ac8c7c3b92560025f8973ffffffffffffffffffffffffffffffffffffffff1673ffffffffffffffffffffffffffffffffffffffff1681526020019081526020015f205f3373ffffffffffffffffffffffffffffffffffffffff1673ffffffffffffffffffffffffffffffffffffffff1681526020019081526020015f20546040516105939190610ac7565b60405180910390a35b6105a785858561070f565b60019150509392505050565b600681565b805f808282546105c89190610c95565b925050819055508060015f8473ffffffffffffffffffffffffffffffffffffffff1673ffffffffffffffffffffffffffffffffffffffff1681526020019081526020015f205f82825461061b9190610c95565b925050819055508173ffffffffffffffffffffffffffffffffffffffff165f73ffffffffffffffffffffffffffffffffffffffff167fddf252ad1be2c89b69c2b068fc378daa952ba7f163c4a11628f55a4df523b3ef8360405161067f9190610ac7565b60405180910390a35050565b6001602052805f5260405f205f915090505481565b6040518060400160405280600581526020017f6d5553444300000000000000000000000000000000000000000000000000000081525081565b5f6106e533848461070f565b6001905092915050565b6002602052815f5260405f20602052805f5260405f205f91509150505481565b5f73ffffffffffffffffffffffffffffffffffffffff168273ffffffffffffffffffffffffffffffffffffffff160361077d576040517f08c379a000000000000000000000000000000000000000000000000000000000815260040161077490610d12565b60405180910390fd5b5f60015f8573ffffffffffffffffffffffffffffffffffffffff1673ffffffffffffffffffffffffffffffffffffffff1681526020019081526020015f2054905081811015610801576040517f08c379a00000000000000000000000000000000000000000000000000000000081526004016107f890610d7a565b60405180910390fd5b818161080d9190610c62565b60015f8673ffffffffffffffffffffffffffffffffffffffff1673ffffffffffffffffffffffffffffffffffffffff1681526020019081526020015f20819055508160015f8573ffffffffffffffffffffffffffffffffffffffff1673ffffffffffffffffffffffffffffffffffffffff1681526020019081526020015f205f82825461089a9190610c95565b925050819055508273ffffffffffffffffffffffffffffffffffffffff168473ffffffffffffffffffffffffffffffffffffffff167fddf252ad1be2c89b69c2b068fc378daa952ba7f163c4a11628f55a4df523b3ef846040516108fe9190610ac7565b60405180910390a350505050565b5f81519050919050565b5f82825260208201905092915050565b5f5b83811015610943578082015181840152602081019050610928565b5f8484015250505050565b5f601f19601f8301169050919050565b5f6109688261090c565b6109728185610916565b9350610982818560208601610926565b61098b8161094e565b840191505092915050565b5f6020820190508181035f8301526109ae818461095e565b905092915050565b5f80fd5b5f73ffffffffffffffffffffffffffffffffffffffff82169050919050565b5f6109e3826109ba565b9050919050565b6109f3816109d9565b81146109fd575f80fd5b50565b5f81359050610a0e816109ea565b92915050565b5f819050919050565b610a2681610a14565b8114610a30575f80fd5b50565b5f81359050610a4181610a1d565b92915050565b5f8060408385031215610a5d57610a5c6109b6565b5b5f610a6a85828601610a00565b9250506020610a7b85828601610a33565b9150509250929050565b5f8115159050919050565b610a9981610a85565b82525050565b5f602082019050610ab25f830184610a90565b92915050565b610ac181610a14565b82525050565b5f602082019050610ada5f830184610ab8565b92915050565b5f805f60608486031215610af757610af66109b6565b5b5f610b0486828701610a00565b9350506020610b1586828701610a00565b9250506040610b2686828701610a33565b9150509250925092565b5f60ff82169050919050565b610b4581610b30565b82525050565b5f602082019050610b5e5f830184610b3c565b92915050565b5f60208284031215610b7957610b786109b6565b5b5f610b8684828501610a00565b91505092915050565b5f8060408385031215610ba557610ba46109b6565b5b5f610bb285828601610a00565b9250506020610bc385828601610a00565b9150509250929050565b7f616c6c6f77616e636500000000000000000000000000000000000000000000005f82015250565b5f610c01600983610916565b9150610c0c82610bcd565b602082019050919050565b5f6020820190508181035f830152610c2e81610bf5565b9050919050565b7f4e487b71000000000000000000000000000000000000000000000000000000005f52601160045260245ffd5b5f610c6c82610a14565b9150610c7783610a14565b9250828203905081811115610c8f57610c8e610c35565b5b92915050565b5f610c9f82610a14565b9150610caa83610a14565b9250828201905080821115610cc257610cc1610c35565b5b92915050565b7f7a65726f20746f000000000000000000000000000000000000000000000000005f82015250565b5f610cfc600783610916565b9150610d0782610cc8565b602082019050919050565b5f6020820190508181035f830152610d2981610cf0565b9050919050565b7f62616c616e6365000000000000000000000000000000000000000000000000005f82015250565b5f610d64600783610916565b9150610d6f82610d30565b602082019050919050565b5f6020820190508181035f830152610d9181610d58565b905091905056fea264697066735822122058537b76be74dffc3738a97d16a8c1c7e73ac4e81e7f97be97da8b8e60c1a53564736f6c63430008180033",
        "nonce": "0x7",
        "chainId": "0xaa36a7"
      },
      "additionalContracts": [],
      "isFixedGasLimit": false
    },
    {
      "hash": "0x493578e55920b1fcbe874e88b1359c4f0452c86dd246be28cf28a4d14c83bc96",
      "transactionType": "CREATE",
      "contractName": "MockLendingMarket",
      "contractAddress": "0x678945a31d9c7a3c0b80cec86b143aa57d49ed68",
      "function": null,
      "arguments": [
        "0x42D38301da818C0d38846D10a5808A02458d19DE"
      ],
      "transaction": {
        "from": "0x5508532b027d57b020e6c0bedb1fe19a6d6c555c",
        "gas": "0x15b9d2",
        "value": "0x0",
        "input": "0x60a060405234801562000010575f80fd5b5060405162001413380380620014138339818101604052810190620000369190620000e9565b8073ffffffffffffffffffffffffffffffffffffffff1660808173ffffffffffffffffffffffffffffffffffffffff16815250505062000119565b5f80fd5b5f73ffffffffffffffffffffffffffffffffffffffff82169050919050565b5f620000a08262000075565b9050919050565b5f620000b38262000094565b9050919050565b620000c581620000a7565b8114620000d0575f80fd5b50565b5f81519050620000e381620000ba565b92915050565b5f6020828403121562000101576200010062000071565b5b5f6200011084828501620000d3565b91505092915050565b6080516112da620001395f395f81816108170152610a3e01526112da5ff3fe608060405234801561000f575f80fd5b5060043610610091575f3560e01c80635fc120e7116100645780635fc120e71461011b5780637638796e1461013957806393611c2e14610155578063a60fe7be14610171578063a919802d146101a157610091565b80632cca80fe146100955780633704f398146100b1578063514ea4bf146100cd5780635936e8e0146100ff575b5f80fd5b6100af60048036038101906100aa9190610abe565b6101bf565b005b6100cb60048036038101906100c69190610b4f565b6102e3565b005b6100e760048036038101906100e29190610bb3565b6104fb565b6040516100f693929190610bfc565b60405180910390f35b61011960048036038101906101149190610c31565b610540565b005b610123610638565b6040516101309190610c6f565b60405180910390f35b610153600480360381019061014e9190610c31565b61065b565b005b61016f600480360381019061016a9190610c88565b6109b2565b005b61018b60048036038101906101869190610bb3565b6109c3565b6040516101989190610cd8565b60405180910390f35b6101a9610a3c565b6040516101b69190610d4c565b60405180910390f35b5f73ffffffffffffffffffffffffffffffffffffffff165f8054906101000a900473ffffffffffffffffffffffffffffffffffffffff1673ffffffffffffffffffffffffffffffffffffffff16148061026257505f8054906101000a900473ffffffffffffffffffffffffffffffffffffffff1673ffffffffffffffffffffffffffffffffffffffff163373ffffffffffffffffffffffffffffffffffffffff16145b6102a1576040517f08c379a000000000000000000000000000000000000000000000000000000000815260040161029890610dbf565b60405180910390fd5b805f806101000a81548173ffffffffffffffffffffffffffffffffffffffff021916908373ffffffffffffffffffffffffffffffffffffffff16021790555050565b5f73ffffffffffffffffffffffffffffffffffffffff1660015f8581526020019081526020015f205f015f9054906101000a900473ffffffffffffffffffffffffffffffffffffffff1673ffffffffffffffffffffffffffffffffffffffff1614610383576040517f08c379a000000000000000000000000000000000000000000000000000000000815260040161037a90610e27565b60405180910390fd5b5f81116103c5576040517f08c379a00000000000000000000000000000000000000000000000000000000081526004016103bc90610e8f565b60405180910390fd5b60405180606001604052808573ffffffffffffffffffffffffffffffffffffffff1681526020018381526020018281525060015f8581526020019081526020015f205f820151815f015f6101000a81548173ffffffffffffffffffffffffffffffffffffffff021916908373ffffffffffffffffffffffffffffffffffffffff16021790555060208201518160010155604082015181600201559050508373ffffffffffffffffffffffffffffffffffffffff16837f21338a77c1b21526f5afcbb20de648e0aca0e460c8cbba6d0bfcac75bc81abe084846040516104ab929190610ead565b60405180910390a3827fb1b7af3632f49d5b19dbf83683fa7f25b3bb2b65bcaeed750857e79925bf10516104de856109c3565b836040516104ed929190610ead565b60405180910390a250505050565b6001602052805f5260405f205f91509050805f015f9054906101000a900473ffffffffffffffffffffffffffffffffffffffff16908060010154908060020154905083565b5f60015f8481526020019081526020015f2090505f73ffffffffffffffffffffffffffffffffffffffff16815f015f9054906101000a900473ffffffffffffffffffffffffffffffffffffffff1673ffffffffffffffffffffffffffffffffffffffff16036105e4576040517f08c379a00000000000000000000000000000000000000000000000000000000081526004016105db90610f1e565b60405180910390fd5b818160010181905550827fb1b7af3632f49d5b19dbf83683fa7f25b3bb2b65bcaeed750857e79925bf1051610618856109c3565b836002015460405161062b929190610ead565b60405180910390a2505050565b5f8054906101000a900473ffffffffffffffffffffffffffffffffffffffff1681565b5f8054906101000a900473ffffffffffffffffffffffffffffffffffffffff1673ffffffffffffffffffffffffffffffffffffffff163373ffffffffffffffffffffffffffffffffffffffff16146106e8576040517f08c379a00000000000000000000000000000000000000000000000000000000081526004016106df90610f86565b60405180910390fd5b5f60015f8481526020019081526020015f2090505f73ffffffffffffffffffffffffffffffffffffffff16815f015f9054906101000a900473ffffffffffffffffffffffffffffffffffffffff1673ffffffffffffffffffffffffffffffffffffffff160361078c576040517f08c379a000000000000000000000000000000000000000000000000000000000815260040161078390610f1e565b60405180910390fd5b5f82116107ce576040517f08c379a00000000000000000000000000000000000000000000000000000000081526004016107c590610fee565b60405180910390fd5b8181600201541015610815576040517f08c379a000000000000000000000000000000000000000000000000000000000815260040161080c90611056565b60405180910390fd5b7f000000000000000000000000000000000000000000000000000000000000000073ffffffffffffffffffffffffffffffffffffffff166323b872dd3330856040518463ffffffff1660e01b815260040161087293929190611074565b6020604051808303815f875af115801561088e573d5f803e3d5ffd5b505050506040513d601f19601f820116820180604052508101906108b291906110de565b6108f1576040517f08c379a00000000000000000000000000000000000000000000000000000000081526004016108e890611153565b60405180910390fd5b81816002015f828254610904919061119e565b925050819055505f610915846109c3565b90503373ffffffffffffffffffffffffffffffffffffffff16847f50982a746bef3725ae3fa20d22a63352bf5566083e17070ffd635e8192b755ea85856002015485604051610966939291906111d1565b60405180910390a3837fb1b7af3632f49d5b19dbf83683fa7f25b3bb2b65bcaeed750857e79925bf10518284600201546040516109a4929190610ead565b60405180910390a250505050565b6109be338484846102e3565b505050565b5f8060015f8481526020019081526020015f2090505f816002015403610a0c577fffffffffffffffffffffffffffffffffffffffffffffffffffffffffffffffff915050610a37565b8060020154670de0b6b3a76400008260010154610a299190611206565b610a339190611274565b9150505b919050565b7f000000000000000000000000000000000000000000000000000000000000000081565b5f80fd5b5f73ffffffffffffffffffffffffffffffffffffffff82169050919050565b5f610a8d82610a64565b9050919050565b610a9d81610a83565b8114610aa7575f80fd5b50565b5f81359050610ab881610a94565b92915050565b5f60208284031215610ad357610ad2610a60565b5b5f610ae084828501610aaa565b91505092915050565b5f819050919050565b610afb81610ae9565b8114610b05575f80fd5b50565b5f81359050610b1681610af2565b92915050565b5f819050919050565b610b2e81610b1c565b8114610b38575f80fd5b50565b5f81359050610b4981610b25565b92915050565b5f805f8060808587031215610b6757610b66610a60565b5b5f610b7487828801610aaa565b9450506020610b8587828801610b08565b9350506040610b9687828801610b3b565b9250506060610ba787828801610b3b565b91505092959194509250565b5f60208284031215610bc857610bc7610a60565b5b5f610bd584828501610b08565b91505092915050565b610be781610a83565b82525050565b610bf681610b1c565b82525050565b5f606082019050610c0f5f830186610bde565b610c1c6020830185610bed565b610c296040830184610bed565b949350505050565b5f8060408385031215610c4757610c46610a60565b5b5f610c5485828601610b08565b9250506020610c6585828601610b3b565b9150509250929050565b5f602082019050610c825f830184610bde565b92915050565b5f805f60608486031215610c9f57610c9e610a60565b5b5f610cac86828701610b08565b9350506020610cbd86828701610b3b565b9250506040610cce86828701610b3b565b9150509250925092565b5f602082019050610ceb5f830184610bed565b92915050565b5f819050919050565b5f610d14610d0f610d0a84610a64565b610cf1565b610a64565b9050919050565b5f610d2582610cfa565b9050919050565b5f610d3682610d1b565b9050919050565b610d4681610d2c565b82525050565b5f602082019050610d5f5f830184610d3d565b92915050565b5f82825260208201905092915050565b7f6578656375746f72206c6f636b656400000000000000000000000000000000005f82015250565b5f610da9600f83610d65565b9150610db482610d75565b602082019050919050565b5f6020820190508181035f830152610dd681610d9d565b9050919050565b7f65786973747300000000000000000000000000000000000000000000000000005f82015250565b5f610e11600683610d65565b9150610e1c82610ddd565b602082019050919050565b5f6020820190508181035f830152610e3e81610e05565b9050919050565b7f7a65726f206465627400000000000000000000000000000000000000000000005f82015250565b5f610e79600983610d65565b9150610e8482610e45565b602082019050919050565b5f6020820190508181035f830152610ea681610e6d565b9050919050565b5f604082019050610ec05f830185610bed565b610ecd6020830184610bed565b9392505050565b7f6d697373696e67000000000000000000000000000000000000000000000000005f82015250565b5f610f08600783610d65565b9150610f1382610ed4565b602082019050919050565b5f6020820190508181035f830152610f3581610efc565b9050919050565b7f6e6f74206578656375746f7200000000000000000000000000000000000000005f82015250565b5f610f70600c83610d65565b9150610f7b82610f3c565b602082019050919050565b5f6020820190508181035f830152610f9d81610f64565b9050919050565b7f7a65726f20616d6f756e740000000000000000000000000000000000000000005f82015250565b5f610fd8600b83610d65565b9150610fe382610fa4565b602082019050919050565b5f6020820190508181035f83015261100581610fcc565b9050919050565b7f746f6f206d7563680000000000000000000000000000000000000000000000005f82015250565b5f611040600883610d65565b915061104b8261100c565b602082019050919050565b5f6020820190508181035f83015261106d81611034565b9050919050565b5f6060820190506110875f830186610bde565b6110946020830185610bde565b6110a16040830184610bed565b949350505050565b5f8115159050919050565b6110bd816110a9565b81146110c7575f80fd5b50565b5f815190506110d8816110b4565b92915050565b5f602082840312156110f3576110f2610a60565b5b5f611100848285016110ca565b91505092915050565b7f7265706179207472616e73666572206661696c656400000000000000000000005f82015250565b5f61113d601583610d65565b915061114882611109565b602082019050919050565b5f6020820190508181035f83015261116a81611131565b9050919050565b7f4e487b71000000000000000000000000000000000000000000000000000000005f52601160045260245ffd5b5f6111a882610b1c565b91506111b383610b1c565b92508282039050818111156111cb576111ca611171565b5b92915050565b5f6060820190506111e45f830186610bed565b6111f16020830185610bed565b6111fe6040830184610bed565b949350505050565b5f61121082610b1c565b915061121b83610b1c565b925082820261122981610b1c565b915082820484148315176112405761123f611171565b5b5092915050565b7f4e487b71000000000000000000000000000000000000000000000000000000005f52601260045260245ffd5b5f61127e82610b1c565b915061128983610b1c565b92508261129957611298611247565b5b82820490509291505056fea26469706673582212200242ac40363bc0769e30b5b75929aae128fd273df58d5193c8a11ff01684ee2364736f6c6343000818003300000000000000000000000042d38301da818c0d38846d10a5808a02458d19de",
        "nonce": "0x8",
        "chainId": "0xaa36a7"
      },
      "additionalContracts": [],
      "isFixedGasLimit": false
    },
    {
      "hash": "0xa1db4335ddacb01691477d8e8eb07af1b08f2d4451a943d16b5c54c1a3068650",
      "transactionType": "CREATE",
      "contractName": "BackstopLendingAdapter",
      "contractAddress": "0x6622208e914731f76131b84880990f125c3494f9",
      "function": null,
      "arguments": [
        "0x678945a31d9c7A3C0B80CeC86B143Aa57D49ed68"
      ],
      "transaction": {
        "from": "0x5508532b027d57b020e6c0bedb1fe19a6d6c555c",
        "gas": "0xaeec3",
        "value": "0x0",
        "input": "0x60a060405234801561000f575f80fd5b50604051610a32380380610a32833981810160405281019061003191906100da565b8073ffffffffffffffffffffffffffffffffffffffff1660808173ffffffffffffffffffffffffffffffffffffffff168152505050610105565b5f80fd5b5f73ffffffffffffffffffffffffffffffffffffffff82169050919050565b5f6100988261006f565b9050919050565b5f6100a98261008e565b9050919050565b6100b98161009f565b81146100c3575f80fd5b50565b5f815190506100d4816100b0565b92915050565b5f602082840312156100ef576100ee61006b565b5b5f6100fc848285016100c6565b91505092915050565b6080516108f361013f5f395f818160c2015281816101ae015281816102b80152818161034e0152818161037f015261043d01526108f35ff3fe608060405234801561000f575f80fd5b506004361061004a575f3560e01c806346adb61f1461004e5780635936e8e01461006a57806370a5c27414610086578063e5e7e5f2146100a4575b5f80fd5b61006860048036038101906100639190610558565b6100c0565b005b610084600480360381019061007f91906105a8565b6101ab565b005b61008e61034c565b60405161009b9190610660565b60405180910390f35b6100be60048036038101906100b99190610679565b610370565b005b7f000000000000000000000000000000000000000000000000000000000000000073ffffffffffffffffffffffffffffffffffffffff16633704f398338585856040518563ffffffff1660e01b815260040161011f94939291906106e2565b5f604051808303815f87803b158015610136575f80fd5b505af1158015610148573d5f803e3d5ffd5b505050503373ffffffffffffffffffffffffffffffffffffffff16837faac69e1ce8831d52c512763af8b0f3a88161e166b9b53c86e30211c11d356c848484604051610195929190610725565b60405180910390a36101a68361037c565b505050565b5f7f000000000000000000000000000000000000000000000000000000000000000073ffffffffffffffffffffffffffffffffffffffff1663514ea4bf846040518263ffffffff1660e01b8152600401610205919061074c565b606060405180830381865afa158015610220573d5f803e3d5ffd5b505050506040513d601f19601f8201168201806040525081019061024491906107a3565b505090503373ffffffffffffffffffffffffffffffffffffffff168173ffffffffffffffffffffffffffffffffffffffff16146102b6576040517f08c379a00000000000000000000000000000000000000000000000000000000081526004016102ad9061084d565b60405180910390fd5b7f000000000000000000000000000000000000000000000000000000000000000073ffffffffffffffffffffffffffffffffffffffff16635936e8e084846040518363ffffffff1660e01b815260040161031192919061086b565b5f604051808303815f87803b158015610328575f80fd5b505af115801561033a573d5f803e3d5ffd5b505050506103478361037c565b505050565b7f000000000000000000000000000000000000000000000000000000000000000081565b6103798161037c565b50565b5f7f000000000000000000000000000000000000000000000000000000000000000073ffffffffffffffffffffffffffffffffffffffff1663514ea4bf836040518263ffffffff1660e01b81526004016103d6919061074c565b606060405180830381865afa1580156103f1573d5f803e3d5ffd5b505050506040513d601f19601f8201168201806040525081019061041591906107a3565b92505050817fb1b7af3632f49d5b19dbf83683fa7f25b3bb2b65bcaeed750857e79925bf10517f000000000000000000000000000000000000000000000000000000000000000073ffffffffffffffffffffffffffffffffffffffff1663a60fe7be856040518263ffffffff1660e01b8152600401610494919061074c565b602060405180830381865afa1580156104af573d5f803e3d5ffd5b505050506040513d601f19601f820116820180604052508101906104d39190610892565b836040516104e2929190610725565b60405180910390a25050565b5f80fd5b5f819050919050565b610504816104f2565b811461050e575f80fd5b50565b5f8135905061051f816104fb565b92915050565b5f819050919050565b61053781610525565b8114610541575f80fd5b50565b5f813590506105528161052e565b92915050565b5f805f6060848603121561056f5761056e6104ee565b5b5f61057c86828701610511565b935050602061058d86828701610544565b925050604061059e86828701610544565b9150509250925092565b5f80604083850312156105be576105bd6104ee565b5b5f6105cb85828601610511565b92505060206105dc85828601610544565b9150509250929050565b5f73ffffffffffffffffffffffffffffffffffffffff82169050919050565b5f819050919050565b5f61062861062361061e846105e6565b610605565b6105e6565b9050919050565b5f6106398261060e565b9050919050565b5f61064a8261062f565b9050919050565b61065a81610640565b82525050565b5f6020820190506106735f830184610651565b92915050565b5f6020828403121561068e5761068d6104ee565b5b5f61069b84828501610511565b91505092915050565b5f6106ae826105e6565b9050919050565b6106be816106a4565b82525050565b6106cd816104f2565b82525050565b6106dc81610525565b82525050565b5f6080820190506106f55f8301876106b5565b61070260208301866106c4565b61070f60408301856106d3565b61071c60608301846106d3565b95945050505050565b5f6040820190506107385f8301856106d3565b61074560208301846106d3565b9392505050565b5f60208201905061075f5f8301846106c4565b92915050565b61076e816106a4565b8114610778575f80fd5b50565b5f8151905061078981610765565b92915050565b5f8151905061079d8161052e565b92915050565b5f805f606084860312156107ba576107b96104ee565b5b5f6107c78682870161077b565b93505060206107d88682870161078f565b92505060406107e98682870161078f565b9150509250925092565b5f82825260208201905092915050565b7f6e6f74206f776e657200000000000000000000000000000000000000000000005f82015250565b5f6108376009836107f3565b915061084282610803565b602082019050919050565b5f6020820190508181035f8301526108648161082b565b9050919050565b5f60408201905061087e5f8301856106c4565b61088b60208301846106d3565b9392505050565b5f602082840312156108a7576108a66104ee565b5b5f6108b48482850161078f565b9150509291505056fea2646970667358221220bf477a63036fbb1f7cb9a5635fb8f74dd1e3505e38f1acf331f4873980bab4bd64736f6c63430008180033000000000000000000000000678945a31d9c7a3c0b80cec86b143aa57d49ed68",
        "nonce": "0x9",
        "chainId": "0xaa36a7"
      },
      "additionalContracts": [],
      "isFixedGasLimit": false
    },
    {
      "hash": "0x5fa89f9a7b6f98c909fdd29ef4b63af5b41d942dbbc3ffe6c359193406526c50",
      "transactionType": "CREATE",
      "contractName": "BackstopExecutor",
      "contractAddress": "0x41e45187581fb574be0f6812e34de507bc04e272",
      "function": null,
      "arguments": [
        "0x42D38301da818C0d38846D10a5808A02458d19DE",
        "0x678945a31d9c7A3C0B80CeC86B143Aa57D49ed68",
        "0x6622208E914731f76131b84880990F125c3494f9",
        "0xc9f36411C9897e7F959D99ffca2a0Ba7ee0D7bDA",
        "0x5508532b027D57b020e6C0BeDB1fE19a6d6C555c"
      ],
      "transaction": {
        "from": "0x5508532b027d57b020e6c0bedb1fe19a6d6c555c",
        "gas": "0xf9a8f",
        "value": "0x0",
        "input": "0x61012060405234801562000011575f80fd5b506040516200108038038062001080833981810160405281019062000037919062000272565b8473ffffffffffffffffffffffffffffffffffffffff1660808173ffffffffffffffffffffffffffffffffffffffff16815250508373ffffffffffffffffffffffffffffffffffffffff1660a08173ffffffffffffffffffffffffffffffffffffffff16815250508273ffffffffffffffffffffffffffffffffffffffff1660c08173ffffffffffffffffffffffffffffffffffffffff16815250508173ffffffffffffffffffffffffffffffffffffffff1660e08173ffffffffffffffffffffffffffffffffffffffff16815250508073ffffffffffffffffffffffffffffffffffffffff166101008173ffffffffffffffffffffffffffffffffffffffff16815250505050505050620002f6565b5f80fd5b5f73ffffffffffffffffffffffffffffffffffffffff82169050919050565b5f62000176826200014b565b9050919050565b5f62000189826200016a565b9050919050565b6200019b816200017d565b8114620001a6575f80fd5b50565b5f81519050620001b98162000190565b92915050565b5f620001cb826200016a565b9050919050565b620001dd81620001bf565b8114620001e8575f80fd5b50565b5f81519050620001fb81620001d2565b92915050565b5f6200020d826200016a565b9050919050565b6200021f8162000201565b81146200022a575f80fd5b50565b5f815190506200023d8162000214565b92915050565b6200024e816200016a565b811462000259575f80fd5b50565b5f815190506200026c8162000243565b92915050565b5f805f805f60a086880312156200028e576200028d62000147565b5b5f6200029d88828901620001a9565b9550506020620002b088828901620001eb565b9450506040620002c3888289016200022d565b9350506060620002d6888289016200025c565b9250506080620002e9888289016200025c565b9150509295509295909350565b60805160a05160c05160e05161010051610d146200036c5f395f8181610207015261062001525f8181610178015261051601525f818161041701526104f201525f81816102d10152818161038f015261053a01525f81816102950152818161055f015281816105fc01526106440152610d145ff3fe608060405234801561000f575f80fd5b5060043610610086575f3560e01c806374375359116100595780637437535914610100578063a919802d1461011e578063c7537a7c1461013c578063f0f437b61461015a57610086565b8063408d37841461008a57806349174834146100a65780634cebc7da146100c457806370a5c274146100e2575b5f80fd5b6100a4600480360381019061009f9190610833565b610176565b005b6100ae6104f0565b6040516100bb91906108de565b60405180910390f35b6100cc610514565b6040516100d99190610906565b60405180910390f35b6100ea610538565b6040516100f7919061093f565b60405180910390f35b61010861055c565b6040516101159190610967565b60405180910390f35b6101266105fa565b60405161013391906109a0565b60405180910390f35b61014461061e565b6040516101519190610906565b60405180910390f35b610174600480360381019061016f91906109b9565b610642565b005b7f000000000000000000000000000000000000000000000000000000000000000073ffffffffffffffffffffffffffffffffffffffff163373ffffffffffffffffffffffffffffffffffffffff1614610204576040517f08c379a00000000000000000000000000000000000000000000000000000000081526004016101fb90610a3e565b60405180910390fd5b827f000000000000000000000000000000000000000000000000000000000000000073ffffffffffffffffffffffffffffffffffffffff168173ffffffffffffffffffffffffffffffffffffffff1614610293576040517f08c379a000000000000000000000000000000000000000000000000000000000815260040161028a90610aa6565b60405180910390fd5b7f000000000000000000000000000000000000000000000000000000000000000073ffffffffffffffffffffffffffffffffffffffff1663095ea7b37f0000000000000000000000000000000000000000000000000000000000000000846040518363ffffffff1660e01b815260040161030e929190610ac4565b6020604051808303815f875af115801561032a573d5f803e3d5ffd5b505050506040513d601f19601f8201168201806040525081019061034e9190610b20565b61038d576040517f08c379a000000000000000000000000000000000000000000000000000000000815260040161038490610b95565b60405180910390fd5b7f000000000000000000000000000000000000000000000000000000000000000073ffffffffffffffffffffffffffffffffffffffff16637638796e84846040518363ffffffff1660e01b81526004016103e8929190610bc2565b5f604051808303815f87803b1580156103ff575f80fd5b505af1158015610411573d5f803e3d5ffd5b505050507f000000000000000000000000000000000000000000000000000000000000000073ffffffffffffffffffffffffffffffffffffffff1663e5e7e5f2846040518263ffffffff1660e01b815260040161046e9190610be9565b5f604051808303815f87803b158015610485575f80fd5b505af1158015610497573d5f803e3d5ffd5b505050508373ffffffffffffffffffffffffffffffffffffffff16837f1c1b78383807d92807a0658676b40b9891bc7cc23c9b813bd7f8a4f4bfb6e9ef846040516104e29190610967565b60405180910390a350505050565b7f000000000000000000000000000000000000000000000000000000000000000081565b7f000000000000000000000000000000000000000000000000000000000000000081565b7f000000000000000000000000000000000000000000000000000000000000000081565b5f7f000000000000000000000000000000000000000000000000000000000000000073ffffffffffffffffffffffffffffffffffffffff166370a08231306040518263ffffffff1660e01b81526004016105b69190610906565b602060405180830381865afa1580156105d1573d5f803e3d5ffd5b505050506040513d601f19601f820116820180604052508101906105f59190610c16565b905090565b7f000000000000000000000000000000000000000000000000000000000000000081565b7f000000000000000000000000000000000000000000000000000000000000000081565b7f000000000000000000000000000000000000000000000000000000000000000073ffffffffffffffffffffffffffffffffffffffff166323b872dd3330846040518463ffffffff1660e01b815260040161069f93929190610c41565b6020604051808303815f875af11580156106bb573d5f803e3d5ffd5b505050506040513d601f19601f820116820180604052508101906106df9190610b20565b61071e576040517f08c379a000000000000000000000000000000000000000000000000000000000815260040161071590610cc0565b60405180910390fd5b3373ffffffffffffffffffffffffffffffffffffffff167fbb9e497a5b82d1a37f9496dd70c6efb97ba0d98c66c3422d05010105d0633598826040516107649190610967565b60405180910390a250565b5f80fd5b5f73ffffffffffffffffffffffffffffffffffffffff82169050919050565b5f61079c82610773565b9050919050565b6107ac81610792565b81146107b6575f80fd5b50565b5f813590506107c7816107a3565b92915050565b5f819050919050565b6107df816107cd565b81146107e9575f80fd5b50565b5f813590506107fa816107d6565b92915050565b5f819050919050565b61081281610800565b811461081c575f80fd5b50565b5f8135905061082d81610809565b92915050565b5f805f6060848603121561084a5761084961076f565b5b5f610857868287016107b9565b9350506020610868868287016107ec565b92505060406108798682870161081f565b9150509250925092565b5f819050919050565b5f6108a66108a161089c84610773565b610883565b610773565b9050919050565b5f6108b78261088c565b9050919050565b5f6108c8826108ad565b9050919050565b6108d8816108be565b82525050565b5f6020820190506108f15f8301846108cf565b92915050565b61090081610792565b82525050565b5f6020820190506109195f8301846108f7565b92915050565b5f610929826108ad565b9050919050565b6109398161091f565b82525050565b5f6020820190506109525f830184610930565b92915050565b61096181610800565b82525050565b5f60208201905061097a5f830184610958565b92915050565b5f61098a826108ad565b9050919050565b61099a81610980565b82525050565b5f6020820190506109b35f830184610991565b92915050565b5f602082840312156109ce576109cd61076f565b5b5f6109db8482850161081f565b91505092915050565b5f82825260208201905092915050565b7f63616c6c6261636b206f6e6c79000000000000000000000000000000000000005f82015250565b5f610a28600d836109e4565b9150610a33826109f4565b602082019050919050565b5f6020820190508181035f830152610a5581610a1c565b9050919050565b7f6261642073656e646572000000000000000000000000000000000000000000005f82015250565b5f610a90600a836109e4565b9150610a9b82610a5c565b602082019050919050565b5f6020820190508181035f830152610abd81610a84565b9050919050565b5f604082019050610ad75f8301856108f7565b610ae46020830184610958565b9392505050565b5f8115159050919050565b610aff81610aeb565b8114610b09575f80fd5b50565b5f81519050610b1a81610af6565b92915050565b5f60208284031215610b3557610b3461076f565b5b5f610b4284828501610b0c565b91505092915050565b7f617070726f7665206661696c65640000000000000000000000000000000000005f82015250565b5f610b7f600e836109e4565b9150610b8a82610b4b565b602082019050919050565b5f6020820190508181035f830152610bac81610b73565b9050919050565b610bbc816107cd565b82525050565b5f604082019050610bd55f830185610bb3565b610be26020830184610958565b9392505050565b5f602082019050610bfc5f830184610bb3565b92915050565b5f81519050610c1081610809565b92915050565b5f60208284031215610c2b57610c2a61076f565b5b5f610c3884828501610c02565b91505092915050565b5f606082019050610c545f8301866108f7565b610c6160208301856108f7565b610c6e6040830184610958565b949350505050565b7f66756e64207472616e73666572206661696c65640000000000000000000000005f82015250565b5f610caa6014836109e4565b9150610cb582610c76565b602082019050919050565b5f6020820190508181035f830152610cd781610c9e565b905091905056fea2646970667358221220d95a5b5ddc6f44bee78273fbca31e9ed93c70d660e59be8e87c774de0c33f3c364736f6c6343000818003300000000000000000000000042d38301da818c0d38846d10a5808a02458d19de000000000000000000000000678945a31d9c7a3c0b80cec86b143aa57d49ed680000000000000000000000006622208e914731f76131b84880990f125c3494f9000000000000000000000000c9f36411c9897e7f959d99ffca2a0ba7ee0d7bda0000000000000000000000005508532b027d57b020e6c0bedb1fe19a6d6c555c",
        "nonce": "0xa",
        "chainId": "0xaa36a7"
      },
      "additionalContracts": [],
      "isFixedGasLimit": false
    },
    {
      "hash": "0x11ed704ee35da1c7c431138234e97535f87d4a9e22095ffa7506264533739dea",
      "transactionType": "CREATE",
      "contractName": "BackstopVault",
      "contractAddress": "0x1db62e3dd3653bd5b87cb50de4ba19f7e4719193",
      "function": null,
      "arguments": [
        "0x42D38301da818C0d38846D10a5808A02458d19DE",
        "0xc9f36411C9897e7F959D99ffca2a0Ba7ee0D7bDA",
        "0x5508532b027D57b020e6C0BeDB1fE19a6d6C555c"
      ],
      "transaction": {
        "from": "0x5508532b027d57b020e6c0bedb1fe19a6d6c555c",
        "gas": "0x168a7c",
        "value": "0x0",
        "input": "0x60e060405234801562000010575f80fd5b50604051620015ac380380620015ac833981810160405281019062000036919062000182565b8273ffffffffffffffffffffffffffffffffffffffff1660808173ffffffffffffffffffffffffffffffffffffffff16815250508173ffffffffffffffffffffffffffffffffffffffff1660a08173ffffffffffffffffffffffffffffffffffffffff16815250508073ffffffffffffffffffffffffffffffffffffffff1660c08173ffffffffffffffffffffffffffffffffffffffff1681525050505050620001db565b5f80fd5b5f73ffffffffffffffffffffffffffffffffffffffff82169050919050565b5f6200010a82620000df565b9050919050565b5f6200011d82620000fe565b9050919050565b6200012f8162000111565b81146200013a575f80fd5b50565b5f815190506200014d8162000124565b92915050565b6200015e81620000fe565b811462000169575f80fd5b50565b5f815190506200017c8162000153565b92915050565b5f805f606084860312156200019c576200019b620000db565b5b5f620001ab868287016200013d565b9350506020620001be868287016200016c565b9250506040620001d1868287016200016c565b9150509250925092565b60805160a05160c05161138a620002225f395f818161021b015261069f01525f818161018c015261044301525f818161041f015281816107d701526109fc015261138a5ff3fe608060405234801561000f575f80fd5b5060043610610086575f3560e01c8063c6c5bea711610059578063c6c5bea714610118578063c7537a7c14610134578063f14cce1614610152578063f1ede7f41461016e57610086565b806303814dd61461008a57806338d52e0f146100a65780634cebc7da146100c4578063514ea4bf146100e2575b5f80fd5b6100a4600480360381019061009f9190610bfc565b61018a565b005b6100ae61041d565b6040516100bb9190610ca7565b60405180910390f35b6100cc610441565b6040516100d99190610ccf565b60405180910390f35b6100fc60048036038101906100f79190610ce8565b610465565b60405161010f9796959493929190610d3c565b60405180910390f35b610132600480360381019061012d9190610da9565b6104cd565b005b61013c61069d565b6040516101499190610ccf565b60405180910390f35b61016c60048036038101906101679190610e0d565b6106c1565b005b61018860048036038101906101839190610e0d565b6108f7565b005b7f000000000000000000000000000000000000000000000000000000000000000073ffffffffffffffffffffffffffffffffffffffff163373ffffffffffffffffffffffffffffffffffffffff1614610218576040517f08c379a000000000000000000000000000000000000000000000000000000000815260040161020f90610ea5565b60405180910390fd5b827f000000000000000000000000000000000000000000000000000000000000000073ffffffffffffffffffffffffffffffffffffffff168173ffffffffffffffffffffffffffffffffffffffff16146102a7576040517f08c379a000000000000000000000000000000000000000000000000000000000815260040161029e90610f0d565b60405180910390fd5b5f805f8581526020019081526020015f209050806006015f9054906101000a900460ff1661030a576040517f08c379a000000000000000000000000000000000000000000000000000000000815260040161030190610f75565b60405180910390fd5b8281600101541015610351576040517f08c379a000000000000000000000000000000000000000000000000000000000815260040161034890610fdd565b60405180910390fd5b82816001015f8282546103649190611028565b9250508190555082816002015f82825461037e919061105b565b925050819055508473ffffffffffffffffffffffffffffffffffffffff16847fa0c31f842f1d2fde2818e0c3a0dad0ff16f7c418f04a31082450991737bc1b2f856040516103cc919061108e565b60405180910390a3837fab4d21442efe134c3d0c087e2b687e9593a1c09176f498d37873210cde052c458260010154836002015460405161040e9291906110a7565b60405180910390a25050505050565b7f000000000000000000000000000000000000000000000000000000000000000081565b7f000000000000000000000000000000000000000000000000000000000000000081565b5f602052805f5260405f205f91509050805f015f9054906101000a900473ffffffffffffffffffffffffffffffffffffffff1690806001015490806002015490806003015490806004015490806005015490806006015f9054906101000a900460ff16905087565b5f805f8681526020019081526020015f2090505f73ffffffffffffffffffffffffffffffffffffffff16815f015f9054906101000a900473ffffffffffffffffffffffffffffffffffffffff1673ffffffffffffffffffffffffffffffffffffffff160361057b5733815f015f6101000a81548173ffffffffffffffffffffffffffffffffffffffff021916908373ffffffffffffffffffffffffffffffffffffffff16021790555061060c565b3373ffffffffffffffffffffffffffffffffffffffff16815f015f9054906101000a900473ffffffffffffffffffffffffffffffffffffffff1673ffffffffffffffffffffffffffffffffffffffff161461060b576040517f08c379a000000000000000000000000000000000000000000000000000000000815260040161060290611118565b60405180910390fd5b5b8381600301819055508281600401819055508181600501819055506001816006015f6101000a81548160ff0219169083151502179055503373ffffffffffffffffffffffffffffffffffffffff16857f29b5688caee54ceb8c27d4b86b745ba4379c5cdc9eb0ea810b052b8cfd5dc5f886868660405161068e93929190611136565b60405180910390a35050505050565b7f000000000000000000000000000000000000000000000000000000000000000081565b813373ffffffffffffffffffffffffffffffffffffffff165f808381526020019081526020015f205f015f9054906101000a900473ffffffffffffffffffffffffffffffffffffffff1673ffffffffffffffffffffffffffffffffffffffff1614610761576040517f08c379a0000000000000000000000000000000000000000000000000000000008152600401610758906111b5565b60405180910390fd5b5f805f8581526020019081526020015f20905082816001015410156107bb576040517f08c379a00000000000000000000000000000000000000000000000000000000081526004016107b29061121d565b60405180910390fd5b82816001015f8282546107ce9190611028565b925050819055507f000000000000000000000000000000000000000000000000000000000000000073ffffffffffffffffffffffffffffffffffffffff1663a9059cbb33856040518363ffffffff1660e01b815260040161083092919061123b565b6020604051808303815f875af115801561084c573d5f803e3d5ffd5b505050506040513d601f19601f82011682018060405250810190610870919061128c565b6108af576040517f08c379a00000000000000000000000000000000000000000000000000000000081526004016108a690611301565b60405180910390fd5b837fab4d21442efe134c3d0c087e2b687e9593a1c09176f498d37873210cde052c45826001015483600201546040516108e99291906110a7565b60405180910390a250505050565b813373ffffffffffffffffffffffffffffffffffffffff165f808381526020019081526020015f205f015f9054906101000a900473ffffffffffffffffffffffffffffffffffffffff1673ffffffffffffffffffffffffffffffffffffffff1614610997576040517f08c379a000000000000000000000000000000000000000000000000000000000815260040161098e906111b5565b60405180910390fd5b5f805f8581526020019081526020015f209050806006015f9054906101000a900460ff166109fa576040517f08c379a00000000000000000000000000000000000000000000000000000000081526004016109f190610f75565b60405180910390fd5b7f000000000000000000000000000000000000000000000000000000000000000073ffffffffffffffffffffffffffffffffffffffff166323b872dd3330866040518463ffffffff1660e01b8152600401610a579392919061131f565b6020604051808303815f875af1158015610a73573d5f803e3d5ffd5b505050506040513d601f19601f82011682018060405250810190610a97919061128c565b610ad6576040517f08c379a0000000000000000000000000000000000000000000000000000000008152600401610acd90611301565b60405180910390fd5b82816001015f828254610ae9919061105b565b92505081905550837fab4d21442efe134c3d0c087e2b687e9593a1c09176f498d37873210cde052c4582600101548360020154604051610b2a9291906110a7565b60405180910390a250505050565b5f80fd5b5f73ffffffffffffffffffffffffffffffffffffffff82169050919050565b5f610b6582610b3c565b9050919050565b610b7581610b5b565b8114610b7f575f80fd5b50565b5f81359050610b9081610b6c565b92915050565b5f819050919050565b610ba881610b96565b8114610bb2575f80fd5b50565b5f81359050610bc381610b9f565b92915050565b5f819050919050565b610bdb81610bc9565b8114610be5575f80fd5b50565b5f81359050610bf681610bd2565b92915050565b5f805f60608486031215610c1357610c12610b38565b5b5f610c2086828701610b82565b9350506020610c3186828701610bb5565b9250506040610c4286828701610be8565b9150509250925092565b5f819050919050565b5f610c6f610c6a610c6584610b3c565b610c4c565b610b3c565b9050919050565b5f610c8082610c55565b9050919050565b5f610c9182610c76565b9050919050565b610ca181610c87565b82525050565b5f602082019050610cba5f830184610c98565b92915050565b610cc981610b5b565b82525050565b5f602082019050610ce25f830184610cc0565b92915050565b5f60208284031215610cfd57610cfc610b38565b5b5f610d0a84828501610bb5565b91505092915050565b610d1c81610bc9565b82525050565b5f8115159050919050565b610d3681610d22565b82525050565b5f60e082019050610d4f5f83018a610cc0565b610d5c6020830189610d13565b610d696040830188610d13565b610d766060830187610d13565b610d836080830186610d13565b610d9060a0830185610d13565b610d9d60c0830184610d2d565b98975050505050505050565b5f805f8060808587031215610dc157610dc0610b38565b5b5f610dce87828801610bb5565b9450506020610ddf87828801610be8565b9350506040610df087828801610be8565b9250506060610e0187828801610be8565b91505092959194509250565b5f8060408385031215610e2357610e22610b38565b5b5f610e3085828601610bb5565b9250506020610e4185828601610be8565b9150509250929050565b5f82825260208201905092915050565b7f63616c6c6261636b206f6e6c79000000000000000000000000000000000000005f82015250565b5f610e8f600d83610e4b565b9150610e9a82610e5b565b602082019050919050565b5f6020820190508181035f830152610ebc81610e83565b9050919050565b7f6261642073656e646572000000000000000000000000000000000000000000005f82015250565b5f610ef7600a83610e4b565b9150610f0282610ec3565b602082019050919050565b5f6020820190508181035f830152610f2481610eeb565b9050919050565b7f696e6163746976650000000000000000000000000000000000000000000000005f82015250565b5f610f5f600883610e4b565b9150610f6a82610f2b565b602082019050919050565b5f6020820190508181035f830152610f8c81610f53565b9050919050565b7f7265736572766520746f6f206c6f7700000000000000000000000000000000005f82015250565b5f610fc7600f83610e4b565b9150610fd282610f93565b602082019050919050565b5f6020820190508181035f830152610ff481610fbb565b9050919050565b7f4e487b71000000000000000000000000000000000000000000000000000000005f52601160045260245ffd5b5f61103282610bc9565b915061103d83610bc9565b925082820390508181111561105557611054610ffb565b5b92915050565b5f61106582610bc9565b915061107083610bc9565b925082820190508082111561108857611087610ffb565b5b92915050565b5f6020820190506110a15f830184610d13565b92915050565b5f6040820190506110ba5f830185610d13565b6110c76020830184610d13565b9392505050565b7f6f776e6572206d69736d617463680000000000000000000000000000000000005f82015250565b5f611102600e83610e4b565b915061110d826110ce565b602082019050919050565b5f6020820190508181035f83015261112f816110f6565b9050919050565b5f6060820190506111495f830186610d13565b6111566020830185610d13565b6111636040830184610d13565b949350505050565b7f6e6f74206f776e657200000000000000000000000000000000000000000000005f82015250565b5f61119f600983610e4b565b91506111aa8261116b565b602082019050919050565b5f6020820190508181035f8301526111cc81611193565b9050919050565b7f696e73756666696369656e7420726573657276650000000000000000000000005f82015250565b5f611207601483610e4b565b9150611212826111d3565b602082019050919050565b5f6020820190508181035f830152611234816111fb565b9050919050565b5f60408201905061124e5f830185610cc0565b61125b6020830184610d13565b9392505050565b61126b81610d22565b8114611275575f80fd5b50565b5f8151905061128681611262565b92915050565b5f602082840312156112a1576112a0610b38565b5b5f6112ae84828501611278565b91505092915050565b7f7472616e73666572206661696c656400000000000000000000000000000000005f82015250565b5f6112eb600f83610e4b565b91506112f6826112b7565b602082019050919050565b5f6020820190508181035f830152611318816112df565b9050919050565b5f6060820190506113325f830186610cc0565b61133f6020830185610cc0565b61134c6040830184610d13565b94935050505056fea2646970667358221220ac1288e3d6705db13dd4b8a3cd5d853a23256c681e708ee79a534ef29aacb70164736f6c6343000818003300000000000000000000000042d38301da818c0d38846d10a5808a02458d19de000000000000000000000000c9f36411c9897e7f959d99ffca2a0ba7ee0d7bda0000000000000000000000005508532b027d57b020e6c0bedb1fe19a6d6c555c",
        "nonce": "0xb",
        "chainId": "0xaa36a7"
      },
      "additionalContracts": [],
      "isFixedGasLimit": false
    },
    {
      "hash": "0xa4e24bbcec1d901e88cbf2aa1320f9265474d34e68f395a1dda724598a4d11f4",
      "transactionType": "CALL",
      "contractName": "MockLendingMarket",
      "contractAddress": "0x678945a31d9c7a3c0b80cec86b143aa57d49ed68",
      "function": "setRescueExecutor(address)",
      "arguments": [
        "0x41e45187581fB574BE0F6812E34DE507bC04e272"
      ],
      "transaction": {
        "from": "0x5508532b027d57b020e6c0bedb1fe19a6d6c555c",
        "to": "0x678945a31d9c7a3c0b80cec86b143aa57d49ed68",
        "gas": "0xeea5",
        "value": "0x0",
        "input": "0x2cca80fe00000000000000000000000041e45187581fb574be0f6812e34de507bc04e272",
        "nonce": "0xc",
        "chainId": "0xaa36a7"
      },
      "additionalContracts": [],
      "isFixedGasLimit": false
    },
    {
      "hash": "0xd0e89ff656de88e95f9da15d82b47897e0efe37ea4f7b4c1400b347b568cbab8",
      "transactionType": "CALL",
      "contractName": "MockUSDC",
      "contractAddress": "0x42d38301da818c0d38846d10a5808a02458d19de",
      "function": "mint(address,uint256)",
      "arguments": [
        "0x5508532b027D57b020e6C0BeDB1fE19a6d6C555c",
        "100000000"
      ],
      "transaction": {
        "from": "0x5508532b027d57b020e6c0bedb1fe19a6d6c555c",
        "to": "0x42d38301da818c0d38846d10a5808a02458d19de",
        "gas": "0x18982",
        "value": "0x0",
        "input": "0x40c10f190000000000000000000000005508532b027d57b020e6c0bedb1fe19a6d6c555c0000000000000000000000000000000000000000000000000000000005f5e100",
        "nonce": "0xd",
        "chainId": "0xaa36a7"
      },
      "additionalContracts": [],
      "isFixedGasLimit": false
    },
    {
      "hash": "0x3c3ab898db6f8e69af52bbb295b9788636b0448845191ccb4835a3b1166899c3",
      "transactionType": "CALL",
      "contractName": "MockUSDC",
      "contractAddress": "0x42d38301da818c0d38846d10a5808a02458d19de",
      "function": "approve(address,uint256)",
      "arguments": [
        "0x1Db62e3DD3653Bd5b87cB50dE4ba19F7E4719193",
        "50000000"
      ],
      "transaction": {
        "from": "0x5508532b027d57b020e6c0bedb1fe19a6d6c555c",
        "to": "0x42d38301da818c0d38846d10a5808a02458d19de",
        "gas": "0xfbe5",
        "value": "0x0",
        "input": "0x095ea7b30000000000000000000000001db62e3dd3653bd5b87cb50de4ba19f7e47191930000000000000000000000000000000000000000000000000000000002faf080",
        "nonce": "0xe",
        "chainId": "0xaa36a7"
      },
      "additionalContracts": [],
      "isFixedGasLimit": false
    },
    {
      "hash": "0x74bd900adc5043cd50eb0120de19136071684aaff6277797f3f44e422c0b8579",
      "transactionType": "CALL",
      "contractName": "MockUSDC",
      "contractAddress": "0x42d38301da818c0d38846d10a5808a02458d19de",
      "function": "approve(address,uint256)",
      "arguments": [
        "0x41e45187581fB574BE0F6812E34DE507bC04e272",
        "25000000"
      ],
      "transaction": {
        "from": "0x5508532b027d57b020e6c0bedb1fe19a6d6c555c",
        "to": "0x42d38301da818c0d38846d10a5808a02458d19de",
        "gas": "0xfbe5",
        "value": "0x0",
        "input": "0x095ea7b300000000000000000000000041e45187581fb574be0f6812e34de507bc04e27200000000000000000000000000000000000000000000000000000000017d7840",
        "nonce": "0xf",
        "chainId": "0xaa36a7"
      },
      "additionalContracts": [],
      "isFixedGasLimit": false
    },
    {
      "hash": "0x40d78952ceb49ab62e97eb287be309a9cb06549670375b6d3000ad6028d5afa3",
      "transactionType": "CALL",
      "contractName": "BackstopVault",
      "contractAddress": "0x1db62e3dd3653bd5b87cb50de4ba19f7e4719193",
      "function": "configureProtection(bytes32,uint256,uint256,uint256)",
      "arguments": [
        "0x46226cefadc3df2d2ec09988c12224674225bdea4cd29532f085d9a0bc9aa8a4",
        "1150000000000000000",
        "25000000",
        "25"
      ],
      "transaction": {
        "from": "0x5508532b027d57b020e6c0bedb1fe19a6d6c555c",
        "to": "0x1db62e3dd3653bd5b87cb50de4ba19f7e4719193",
        "gas": "0x2e144",
        "value": "0x0",
        "input": "0xc6c5bea746226cefadc3df2d2ec09988c12224674225bdea4cd29532f085d9a0bc9aa8a40000000000000000000000000000000000000000000000000ff59ee833b3000000000000000000000000000000000000000000000000000000000000017d78400000000000000000000000000000000000000000000000000000000000000019",
        "nonce": "0x10",
        "chainId": "0xaa36a7"
      },
      "additionalContracts": [],
      "isFixedGasLimit": false
    },
    {
      "hash": "0x897839b9d2c5e6a1c211e9145f64edaaf101a7f02cbd9c213c3f87019ef80e7c",
      "transactionType": "CALL",
      "contractName": "BackstopVault",
      "contractAddress": "0x1db62e3dd3653bd5b87cb50de4ba19f7e4719193",
      "function": "depositReserve(bytes32,uint256)",
      "arguments": [
        "0x46226cefadc3df2d2ec09988c12224674225bdea4cd29532f085d9a0bc9aa8a4",
        "50000000"
      ],
      "transaction": {
        "from": "0x5508532b027d57b020e6c0bedb1fe19a6d6c555c",
        "to": "0x1db62e3dd3653bd5b87cb50de4ba19f7e4719193",
        "gas": "0x1e9c3",
        "value": "0x0",
        "input": "0xf1ede7f446226cefadc3df2d2ec09988c12224674225bdea4cd29532f085d9a0bc9aa8a40000000000000000000000000000000000000000000000000000000002faf080",
        "nonce": "0x11",
        "chainId": "0xaa36a7"
      },
      "additionalContracts": [],
      "isFixedGasLimit": false
    },
    {
      "hash": "0x9596907154c0f8317e620aa65845185dc604217f3b3e31fa9fd2e822ab961009",
      "transactionType": "CALL",
      "contractName": "BackstopExecutor",
      "contractAddress": "0x41e45187581fb574be0f6812e34de507bc04e272",
      "function": "fundLiquidity(uint256)",
      "arguments": [
        "25000000"
      ],
      "transaction": {
        "from": "0x5508532b027d57b020e6c0bedb1fe19a6d6c555c",
        "to": "0x41e45187581fb574be0f6812e34de507bc04e272",
        "gas": "0x1478f",
        "value": "0x0",
        "input": "0xf0f437b600000000000000000000000000000000000000000000000000000000017d7840",
        "nonce": "0x12",
        "chainId": "0xaa36a7"
      },
      "additionalContracts": [],
      "isFixedGasLimit": false
    },
    {
      "hash": "0x40765a89c5ee6607d7b1c309af5e5e2ef26e05509efa4c4ffd16cd92a090cf1a",
      "transactionType": "CALL",
      "contractName": "BackstopLendingAdapter",
      "contractAddress": "0x6622208e914731f76131b84880990f125c3494f9",
      "function": "openPosition(bytes32,uint256,uint256)",
      "arguments": [
        "0x46226cefadc3df2d2ec09988c12224674225bdea4cd29532f085d9a0bc9aa8a4",
        "150000000",
        "100000000"
      ],
      "transaction": {
        "from": "0x5508532b027d57b020e6c0bedb1fe19a6d6c555c",
        "to": "0x6622208e914731f76131b84880990f125c3494f9",
        "gas": "0x24504",
        "value": "0x0",
        "input": "0x46adb61f46226cefadc3df2d2ec09988c12224674225bdea4cd29532f085d9a0bc9aa8a40000000000000000000000000000000000000000000000000000000008f0d1800000000000000000000000000000000000000000000000000000000005f5e100",
        "nonce": "0x13",
        "chainId": "0xaa36a7"
      },
      "additionalContracts": [],
      "isFixedGasLimit": false
    },
    {
      "hash": "0x369eb631eca55b04abafd5b5ed9f9874811b2c09b9717b1bdfac519f6a5c84da",
      "transactionType": "CALL",
      "contractName": null,
      "contractAddress": "0xc9f36411c9897e7f959d99ffca2a0ba7ee0d7bda",
      "function": "depositTo(address)",
      "arguments": [
        "0x1Db62e3DD3653Bd5b87cB50dE4ba19F7E4719193"
      ],
      "transaction": {
        "from": "0x5508532b027d57b020e6c0bedb1fe19a6d6c555c",
        "to": "0xc9f36411c9897e7f959d99ffca2a0ba7ee0d7bda",
        "gas": "0x1964e",
        "value": "0x71afd498d0000",
        "input": "0xb760faf90000000000000000000000001db62e3dd3653bd5b87cb50de4ba19f7e4719193",
        "nonce": "0x14",
        "chainId": "0xaa36a7"
      },
      "additionalContracts": [],
      "isFixedGasLimit": false
    },
    {
      "hash": "0x65e5504bc0d1e8cd9078053295250ff080c5cb2b75fd42dde34f13bece05dcb2",
      "transactionType": "CALL",
      "contractName": null,
      "contractAddress": "0xc9f36411c9897e7f959d99ffca2a0ba7ee0d7bda",
      "function": "depositTo(address)",
      "arguments": [
        "0x41e45187581fB574BE0F6812E34DE507bC04e272"
      ],
      "transaction": {
        "from": "0x5508532b027d57b020e6c0bedb1fe19a6d6c555c",
        "to": "0xc9f36411c9897e7f959d99ffca2a0ba7ee0d7bda",
        "gas": "0x1964e",
        "value": "0x71afd498d0000",
        "input": "0xb760faf900000000000000000000000041e45187581fb574be0f6812e34de507bc04e272",
        "nonce": "0x15",
        "chainId": "0xaa36a7"
      },
      "additionalContracts": [],
      "isFixedGasLimit": false
    }
  ],
  "receipts": [
    {
      "status": "0x1",
      "cumulativeGasUsed": "0x17a8168",
      "logs": [],
      "logsBloom": "0x00000000000000000000000000000000000000000000000000000000000000000000000000000000000000000000000000000000000000000000000000000000000000000000000000000000000000000000000000000000000000000000000000000000000000000000000000000000000000000000000000000000000000000000000000000000000000000000000000000000000000000000000000000000000000000000000000000000000000000000000000000000000000000000000000000000000000000000000000000000000000000000000000000000000000000000000000000000000000000000000000000000000000000000000000000000",
      "type": "0x2",
      "transactionHash": "0x65f7b203243ed1eddf1b60147c0ce94bceb2b92ad948304c812a670e222fda68",
      "transactionIndex": "0x99",
      "blockHash": "0x17c16f6b23a0e3f5da86426ce78532af12306aab2df019a281a01f95c95fc1ac",
      "blockNumber": "0xa0b32d",
      "gasUsed": "0xc6e47",
      "effectiveGasPrice": "0xf4260",
      "from": "0x5508532b027d57b020e6c0bedb1fe19a6d6c555c",
      "to": null,
      "contractAddress": "0x42d38301da818c0d38846d10a5808a02458d19de"
    },
    {
      "status": "0x1",
      "cumulativeGasUsed": "0x18b37bb",
      "logs": [],
      "logsBloom": "0x00000000000000000000000000000000000000000000000000000000000000000000000000000000000000000000000000000000000000000000000000000000000000000000000000000000000000000000000000000000000000000000000000000000000000000000000000000000000000000000000000000000000000000000000000000000000000000000000000000000000000000000000000000000000000000000000000000000000000000000000000000000000000000000000000000000000000000000000000000000000000000000000000000000000000000000000000000000000000000000000000000000000000000000000000000000",
      "type": "0x2",
      "transactionHash": "0x493578e55920b1fcbe874e88b1359c4f0452c86dd246be28cf28a4d14c83bc96",
      "transactionIndex": "0x9a",
      "blockHash": "0x17c16f6b23a0e3f5da86426ce78532af12306aab2df019a281a01f95c95fc1ac",
      "blockNumber": "0xa0b32d",
      "gasUsed": "0x10b653",
      "effectiveGasPrice": "0xf4260",
      "from": "0x5508532b027d57b020e6c0bedb1fe19a6d6c555c",
      "to": null,
      "contractAddress": "0x678945a31d9c7a3c0b80cec86b143aa57d49ed68"
    },
    {
      "status": "0x1",
      "cumulativeGasUsed": "0xbc2ace",
      "logs": [],
      "logsBloom": "0x00000000000000000000000000000000000000000000000000000000000000000000000000000000000000000000000000000000000000000000000000000000000000000000000000000000000000000000000000000000000000000000000000000000000000000000000000000000000000000000000000000000000000000000000000000000000000000000000000000000000000000000000000000000000000000000000000000000000000000000000000000000000000000000000000000000000000000000000000000000000000000000000000000000000000000000000000000000000000000000000000000000000000000000000000000000",
      "type": "0x2",
      "transactionHash": "0xa1db4335ddacb01691477d8e8eb07af1b08f2d4451a943d16b5c54c1a3068650",
      "transactionIndex": "0x4e",
      "blockHash": "0xc78e5b9fa815575d7cda85a38dc1d310c16a55d5f665105388dcecbf374d4762",
      "blockNumber": "0xa0b32e",
      "gasUsed": "0x868e5",
      "effectiveGasPrice": "0xf4260",
      "from": "0x5508532b027d57b020e6c0bedb1fe19a6d6c555c",
      "to": null,
      "contractAddress": "0x6622208e914731f76131b84880990f125c3494f9"
    },
    {
      "status": "0x1",
      "cumulativeGasUsed": "0xc9030c",
      "logs": [],
      "logsBloom": "0x00000000000000000000000000000000000000000000000000000000000000000000000000000000000000000000000000000000000000000000000000000000000000000000000000000000000000000000000000000000000000000000000000000000000000000000000000000000000000000000000000000000000000000000000000000000000000000000000000000000000000000000000000000000000000000000000000000000000000000000000000000000000000000000000000000000000000000000000000000000000000000000000000000000000000000000000000000000000000000000000000000000000000000000000000000000",
      "type": "0x2",
      "transactionHash": "0x5fa89f9a7b6f98c909fdd29ef4b63af5b41d942dbbc3ffe6c359193406526c50",
      "transactionIndex": "0x50",
      "blockHash": "0xc78e5b9fa815575d7cda85a38dc1d310c16a55d5f665105388dcecbf374d4762",
      "blockNumber": "0xa0b32e",
      "gasUsed": "0xc00bd",
      "effectiveGasPrice": "0xf4260",
      "from": "0x5508532b027d57b020e6c0bedb1fe19a6d6c555c",
      "to": null,
      "contractAddress": "0x41e45187581fb574be0f6812e34de507bc04e272"
    },
    {
      "status": "0x1",
      "cumulativeGasUsed": "0xe4d7ea",
      "logs": [],
      "logsBloom": "0x00000000000000000000000000000000000000000000000000000000000000000000000000000000000000000000000000000000000000000000000000000000000000000000000000000000000000000000000000000000000000000000000000000000000000000000000000000000000000000000000000000000000000000000000000000000000000000000000000000000000000000000000000000000000000000000000000000000000000000000000000000000000000000000000000000000000000000000000000000000000000000000000000000000000000000000000000000000000000000000000000000000000000000000000000000000",
      "type": "0x2",
      "transactionHash": "0x11ed704ee35da1c7c431138234e97535f87d4a9e22095ffa7506264533739dea",
      "transactionIndex": "0x53",
      "blockHash": "0xc78e5b9fa815575d7cda85a38dc1d310c16a55d5f665105388dcecbf374d4762",
      "blockNumber": "0xa0b32e",
      "gasUsed": "0x1156d6",
      "effectiveGasPrice": "0xf4260",
      "from": "0x5508532b027d57b020e6c0bedb1fe19a6d6c555c",
      "to": null,
      "contractAddress": "0x1db62e3dd3653bd5b87cb50de4ba19f7e4719193"
    },
    {
      "status": "0x1",
      "cumulativeGasUsed": "0xe584b1",
      "logs": [],
      "logsBloom": "0x00000000000000000000000000000000000000000000000000000000000000000000000000000000000000000000000000000000000000000000000000000000000000000000000000000000000000000000000000000000000000000000000000000000000000000000000000000000000000000000000000000000000000000000000000000000000000000000000000000000000000000000000000000000000000000000000000000000000000000000000000000000000000000000000000000000000000000000000000000000000000000000000000000000000000000000000000000000000000000000000000000000000000000000000000000000",
      "type": "0x2",
      "transactionHash": "0xa4e24bbcec1d901e88cbf2aa1320f9265474d34e68f395a1dda724598a4d11f4",
      "transactionIndex": "0x54",
      "blockHash": "0xc78e5b9fa815575d7cda85a38dc1d310c16a55d5f665105388dcecbf374d4762",
      "blockNumber": "0xa0b32e",
      "gasUsed": "0xacc7",
      "effectiveGasPrice": "0xf4260",
      "from": "0x5508532b027d57b020e6c0bedb1fe19a6d6c555c",
      "to": "0x678945a31d9c7a3c0b80cec86b143aa57d49ed68",
      "contractAddress": null
    },
    {
      "status": "0x1",
      "cumulativeGasUsed": "0xe7c9fc",
      "logs": [
        {
          "address": "0x42d38301da818c0d38846d10a5808a02458d19de",
          "topics": [
            "0xddf252ad1be2c89b69c2b068fc378daa952ba7f163c4a11628f55a4df523b3ef",
            "0x0000000000000000000000000000000000000000000000000000000000000000",
            "0x0000000000000000000000005508532b027d57b020e6c0bedb1fe19a6d6c555c"
          ],
          "data": "0x0000000000000000000000000000000000000000000000000000000005f5e100",
          "blockHash": "0xc78e5b9fa815575d7cda85a38dc1d310c16a55d5f665105388dcecbf374d4762",
          "blockNumber": "0xa0b32e",
          "blockTimestamp": "0x69c64794",
          "transactionHash": "0xd0e89ff656de88e95f9da15d82b47897e0efe37ea4f7b4c1400b347b568cbab8",
          "transactionIndex": "0x57",
          "logIndex": "0x21d",
          "removed": false
        }
      ],
      "logsBloom": "0x00000000000000000000000000000000000000000000000000000000000000000000000000000000000000000000000000000000000000000000000000000000000000000000000000000008000000040000000000000000000000000000000000000000020000000000000000000800000000000000000000000010000000000000000000002000000000000000000000000000000000000000000000000000000000000000000000000000000000000000000000000000000000000000000000000002000000000000000000800000000000000000000004000000000020000000000000000000000002100000000000000000000000000000000000000000",
      "type": "0x2",
      "transactionHash": "0xd0e89ff656de88e95f9da15d82b47897e0efe37ea4f7b4c1400b347b568cbab8",
      "transactionIndex": "0x57",
      "blockHash": "0xc78e5b9fa815575d7cda85a38dc1d310c16a55d5f665105388dcecbf374d4762",
      "blockNumber": "0xa0b32e",
      "gasUsed": "0x10d11",
      "effectiveGasPrice": "0xf4260",
      "from": "0x5508532b027d57b020e6c0bedb1fe19a6d6c555c",
      "to": "0x42d38301da818c0d38846d10a5808a02458d19de",
      "contractAddress": null
    },
    {
      "status": "0x1",
      "cumulativeGasUsed": "0xe8805b",
      "logs": [
        {
          "address": "0x42d38301da818c0d38846d10a5808a02458d19de",
          "topics": [
            "0x8c5be1e5ebec7d5bd14f71427d1e84f3dd0314c0f7b2291e5b200ac8c7c3b925",
            "0x0000000000000000000000005508532b027d57b020e6c0bedb1fe19a6d6c555c",
            "0x0000000000000000000000001db62e3dd3653bd5b87cb50de4ba19f7e4719193"
          ],
          "data": "0x0000000000000000000000000000000000000000000000000000000002faf080",
          "blockHash": "0xc78e5b9fa815575d7cda85a38dc1d310c16a55d5f665105388dcecbf374d4762",
          "blockNumber": "0xa0b32e",
          "blockTimestamp": "0x69c64794",
          "transactionHash": "0x3c3ab898db6f8e69af52bbb295b9788636b0448845191ccb4835a3b1166899c3",
          "transactionIndex": "0x58",
          "logIndex": "0x21e",
          "removed": false
        }
      ],
      "logsBloom": "0x00000000000000000000000000000000000000000000000000000000000000000000000010000000000000000000000000000000000000000000000000200000040000000000000000000000000000040000000000000000000000000000000000000000000000000000000000000000000000000001000000000000000000000000000000002000000000000000000000000000000000000000000000000000020000000000000000000000000000000000000000000000000000000000000000000000000000000000000000800000000000000000000004000000000000000010000000000000000002100000000000000000000000000000000000000000",
      "type": "0x2",
      "transactionHash": "0x3c3ab898db6f8e69af52bbb295b9788636b0448845191ccb4835a3b1166899c3",
      "transactionIndex": "0x58",
      "blockHash": "0xc78e5b9fa815575d7cda85a38dc1d310c16a55d5f665105388dcecbf374d4762",
      "blockNumber": "0xa0b32e",
      "gasUsed": "0xb65f",
      "effectiveGasPrice": "0xf4260",
      "from": "0x5508532b027d57b020e6c0bedb1fe19a6d6c555c",
      "to": "0x42d38301da818c0d38846d10a5808a02458d19de",
      "contractAddress": null
    },
    {
      "status": "0x1",
      "cumulativeGasUsed": "0xe936ba",
      "logs": [
        {
          "address": "0x42d38301da818c0d38846d10a5808a02458d19de",
          "topics": [
            "0x8c5be1e5ebec7d5bd14f71427d1e84f3dd0314c0f7b2291e5b200ac8c7c3b925",
            "0x0000000000000000000000005508532b027d57b020e6c0bedb1fe19a6d6c555c",
            "0x00000000000000000000000041e45187581fb574be0f6812e34de507bc04e272"
          ],
          "data": "0x00000000000000000000000000000000000000000000000000000000017d7840",
          "blockHash": "0xc78e5b9fa815575d7cda85a38dc1d310c16a55d5f665105388dcecbf374d4762",
          "blockNumber": "0xa0b32e",
          "blockTimestamp": "0x69c64794",
          "transactionHash": "0x74bd900adc5043cd50eb0120de19136071684aaff6277797f3f44e422c0b8579",
          "transactionIndex": "0x59",
          "logIndex": "0x21f",
          "removed": false
        }
      ],
      "logsBloom": "0x00000000000000000000000000000000000000000000000000000000000000000000000000000000000000000000000000000000000000000000000000200000000000000000000000000000000000040000000000000000000000000000000000000000000000000000000000000000000000000000000000000000000000000000000000002000000000000000000000000000000000000000000000002000020000000000000000000000000000000000000000000000000000000000000000000000000000000000000000800000000000000000000004800000000000100010000000000000000002100000000000000000000000000000000000000000",
      "type": "0x2",
      "transactionHash": "0x74bd900adc5043cd50eb0120de19136071684aaff6277797f3f44e422c0b8579",
      "transactionIndex": "0x59",
      "blockHash": "0xc78e5b9fa815575d7cda85a38dc1d310c16a55d5f665105388dcecbf374d4762",
      "blockNumber": "0xa0b32e",
      "gasUsed": "0xb65f",
      "effectiveGasPrice": "0xf4260",
      "from": "0x5508532b027d57b020e6c0bedb1fe19a6d6c555c",
      "to": "0x42d38301da818c0d38846d10a5808a02458d19de",
      "contractAddress": null
    },
    {
      "status": "0x1",
      "cumulativeGasUsed": "0xeb4c7f",
      "logs": [
        {
          "address": "0x1db62e3dd3653bd5b87cb50de4ba19f7e4719193",
          "topics": [
            "0x29b5688caee54ceb8c27d4b86b745ba4379c5cdc9eb0ea810b052b8cfd5dc5f8",
            "0x46226cefadc3df2d2ec09988c12224674225bdea4cd29532f085d9a0bc9aa8a4",
            "0x0000000000000000000000005508532b027d57b020e6c0bedb1fe19a6d6c555c"
          ],
          "data": "0x0000000000000000000000000000000000000000000000000ff59ee833b3000000000000000000000000000000000000000000000000000000000000017d78400000000000000000000000000000000000000000000000000000000000000019",
          "blockHash": "0xc78e5b9fa815575d7cda85a38dc1d310c16a55d5f665105388dcecbf374d4762",
          "blockNumber": "0xa0b32e",
          "blockTimestamp": "0x69c64794",
          "transactionHash": "0x40d78952ceb49ab62e97eb287be309a9cb06549670375b6d3000ad6028d5afa3",
          "transactionIndex": "0x5a",
          "logIndex": "0x220",
          "removed": false
        }
      ],
      "logsBloom": "0x00000000000000000000000000000000000000000000000000000000000000000000000000000000000000000000000000000000000000000000000000000000000000000000000000000000000000000000000000000010000000000000000000000000000000002000000000000000000000000000000000000040000008000000000000000000000000000000000000000000000000000000000001000000000000000800000000000000000000000000000000000000000000000000040000000000000000000000000000000000000000000000000004000000000000000000000000000040000002100000000000000000000000004000000000000000",
      "type": "0x2",
      "transactionHash": "0x40d78952ceb49ab62e97eb287be309a9cb06549670375b6d3000ad6028d5afa3",
      "transactionIndex": "0x5a",
      "blockHash": "0xc78e5b9fa815575d7cda85a38dc1d310c16a55d5f665105388dcecbf374d4762",
      "blockNumber": "0xa0b32e",
      "gasUsed": "0x215c5",
      "effectiveGasPrice": "0xf4260",
      "from": "0x5508532b027d57b020e6c0bedb1fe19a6d6c555c",
      "to": "0x1db62e3dd3653bd5b87cb50de4ba19f7e4719193",
      "contractAddress": null
    },
    {
      "status": "0x1",
      "cumulativeGasUsed": "0xed789d",
      "logs": [
        {
          "address": "0x42d38301da818c0d38846d10a5808a02458d19de",
          "topics": [
            "0x8c5be1e5ebec7d5bd14f71427d1e84f3dd0314c0f7b2291e5b200ac8c7c3b925",
            "0x0000000000000000000000005508532b027d57b020e6c0bedb1fe19a6d6c555c",
            "0x0000000000000000000000001db62e3dd3653bd5b87cb50de4ba19f7e4719193"
          ],
          "data": "0x0000000000000000000000000000000000000000000000000000000000000000",
          "blockHash": "0xc78e5b9fa815575d7cda85a38dc1d310c16a55d5f665105388dcecbf374d4762",
          "blockNumber": "0xa0b32e",
          "blockTimestamp": "0x69c64794",
          "transactionHash": "0x897839b9d2c5e6a1c211e9145f64edaaf101a7f02cbd9c213c3f87019ef80e7c",
          "transactionIndex": "0x5c",
          "logIndex": "0x222",
          "removed": false
        },
        {
          "address": "0x42d38301da818c0d38846d10a5808a02458d19de",
          "topics": [
            "0xddf252ad1be2c89b69c2b068fc378daa952ba7f163c4a11628f55a4df523b3ef",
            "0x0000000000000000000000005508532b027d57b020e6c0bedb1fe19a6d6c555c",
            "0x0000000000000000000000001db62e3dd3653bd5b87cb50de4ba19f7e4719193"
          ],
          "data": "0x0000000000000000000000000000000000000000000000000000000002faf080",
          "blockHash": "0xc78e5b9fa815575d7cda85a38dc1d310c16a55d5f665105388dcecbf374d4762",
          "blockNumber": "0xa0b32e",
          "blockTimestamp": "0x69c64794",
          "transactionHash": "0x897839b9d2c5e6a1c211e9145f64edaaf101a7f02cbd9c213c3f87019ef80e7c",
          "transactionIndex": "0x5c",
          "logIndex": "0x223",
          "removed": false
        },
        {
          "address": "0x1db62e3dd3653bd5b87cb50de4ba19f7e4719193",
          "topics": [
            "0xab4d21442efe134c3d0c087e2b687e9593a1c09176f498d37873210cde052c45",
            "0x46226cefadc3df2d2ec09988c12224674225bdea4cd29532f085d9a0bc9aa8a4"
          ],
          "data": "0x0000000000000000000000000000000000000000000000000000000002faf0800000000000000000000000000000000000000000000000000000000000000000",
          "blockHash": "0xc78e5b9fa815575d7cda85a38dc1d310c16a55d5f665105388dcecbf374d4762",
          "blockNumber": "0xa0b32e",
          "blockTimestamp": "0x69c64794",
          "transactionHash": "0x897839b9d2c5e6a1c211e9145f64edaaf101a7f02cbd9c213c3f87019ef80e7c",
          "transactionIndex": "0x5c",
          "logIndex": "0x224",
          "removed": false
        }
      ],
      "logsBloom": "0x00000000000000000000000000000000000000000000000000000000000000000000000010000000000000000000000000000000000000000000000000200000040000000000000000000008000000040000000000000010000000000000000000000000000000000000000008000000400000000001000000000050000008000000000000002000000000000000000000000000000000000000000001000000020000000800000000000000000000000000000000000000000000000000040000000002000000000000000000800000000000000000002004000000000000000010000000000000000002100000000000000000000000000000000000000000",
      "type": "0x2",
      "transactionHash": "0x897839b9d2c5e6a1c211e9145f64edaaf101a7f02cbd9c213c3f87019ef80e7c",
      "transactionIndex": "0x5c",
      "blockHash": "0xc78e5b9fa815575d7cda85a38dc1d310c16a55d5f665105388dcecbf374d4762",
      "blockNumber": "0xa0b32e",
      "gasUsed": "0x16295",
      "effectiveGasPrice": "0xf4260",
      "from": "0x5508532b027d57b020e6c0bedb1fe19a6d6c555c",
      "to": "0x1db62e3dd3653bd5b87cb50de4ba19f7e4719193",
      "contractAddress": null
    },
    {
      "status": "0x1",
      "cumulativeGasUsed": "0xee65c3",
      "logs": [
        {
          "address": "0x42d38301da818c0d38846d10a5808a02458d19de",
          "topics": [
            "0x8c5be1e5ebec7d5bd14f71427d1e84f3dd0314c0f7b2291e5b200ac8c7c3b925",
            "0x0000000000000000000000005508532b027d57b020e6c0bedb1fe19a6d6c555c",
            "0x00000000000000000000000041e45187581fb574be0f6812e34de507bc04e272"
          ],
          "data": "0x0000000000000000000000000000000000000000000000000000000000000000",
          "blockHash": "0xc78e5b9fa815575d7cda85a38dc1d310c16a55d5f665105388dcecbf374d4762",
          "blockNumber": "0xa0b32e",
          "blockTimestamp": "0x69c64794",
          "transactionHash": "0x9596907154c0f8317e620aa65845185dc604217f3b3e31fa9fd2e822ab961009",
          "transactionIndex": "0x5d",
          "logIndex": "0x225",
          "removed": false
        },
        {
          "address": "0x42d38301da818c0d38846d10a5808a02458d19de",
          "topics": [
            "0xddf252ad1be2c89b69c2b068fc378daa952ba7f163c4a11628f55a4df523b3ef",
            "0x0000000000000000000000005508532b027d57b020e6c0bedb1fe19a6d6c555c",
            "0x00000000000000000000000041e45187581fb574be0f6812e34de507bc04e272"
          ],
          "data": "0x00000000000000000000000000000000000000000000000000000000017d7840",
          "blockHash": "0xc78e5b9fa815575d7cda85a38dc1d310c16a55d5f665105388dcecbf374d4762",
          "blockNumber": "0xa0b32e",
          "blockTimestamp": "0x69c64794",
          "transactionHash": "0x9596907154c0f8317e620aa65845185dc604217f3b3e31fa9fd2e822ab961009",
          "transactionIndex": "0x5d",
          "logIndex": "0x226",
          "removed": false
        },
        {
          "address": "0x41e45187581fb574be0f6812e34de507bc04e272",
          "topics": [
            "0xbb9e497a5b82d1a37f9496dd70c6efb97ba0d98c66c3422d05010105d0633598",
            "0x0000000000000000000000005508532b027d57b020e6c0bedb1fe19a6d6c555c"
          ],
          "data": "0x00000000000000000000000000000000000000000000000000000000017d7840",
          "blockHash": "0xc78e5b9fa815575d7cda85a38dc1d310c16a55d5f665105388dcecbf374d4762",
          "blockNumber": "0xa0b32e",
          "blockTimestamp": "0x69c64794",
          "transactionHash": "0x9596907154c0f8317e620aa65845185dc604217f3b3e31fa9fd2e822ab961009",
          "transactionIndex": "0x5d",
          "logIndex": "0x227",
          "removed": false
        }
      ],
      "logsBloom": "0x00000000000000000000000000000000000000000000000000000000000000000010000000000000000000000000000000000000000000000000000000200000000000000000000000000008000000040000000000000000000000000000000000000000000000000000000000000000000000000000000000000010000000010000000000002000000000008000000000000000000000008000000000002000020000000000000000000000000000000000000000000000200000800000000000000002000000000000000000800000000000000000000004800000000000100010000000000000000002100000000000000000000000000000000000000000",
      "type": "0x2",
      "transactionHash": "0x9596907154c0f8317e620aa65845185dc604217f3b3e31fa9fd2e822ab961009",
      "transactionIndex": "0x5d",
      "blockHash": "0xc78e5b9fa815575d7cda85a38dc1d310c16a55d5f665105388dcecbf374d4762",
      "blockNumber": "0xa0b32e",
      "gasUsed": "0xed26",
      "effectiveGasPrice": "0xf4260",
      "from": "0x5508532b027d57b020e6c0bedb1fe19a6d6c555c",
      "to": "0x41e45187581fb574be0f6812e34de507bc04e272",
      "contractAddress": null
    },
    {
      "status": "0x1",
      "cumulativeGasUsed": "0xf00a69",
      "logs": [
        {
          "address": "0x678945a31d9c7a3c0b80cec86b143aa57d49ed68",
          "topics": [
            "0x21338a77c1b21526f5afcbb20de648e0aca0e460c8cbba6d0bfcac75bc81abe0",
            "0x46226cefadc3df2d2ec09988c12224674225bdea4cd29532f085d9a0bc9aa8a4",
            "0x0000000000000000000000005508532b027d57b020e6c0bedb1fe19a6d6c555c"
          ],
          "data": "0x0000000000000000000000000000000000000000000000000000000008f0d1800000000000000000000000000000000000000000000000000000000005f5e100",
          "blockHash": "0xc78e5b9fa815575d7cda85a38dc1d310c16a55d5f665105388dcecbf374d4762",
          "blockNumber": "0xa0b32e",
          "blockTimestamp": "0x69c64794",
          "transactionHash": "0x40765a89c5ee6607d7b1c309af5e5e2ef26e05509efa4c4ffd16cd92a090cf1a",
          "transactionIndex": "0x5e",
          "logIndex": "0x228",
          "removed": false
        },
        {
          "address": "0x678945a31d9c7a3c0b80cec86b143aa57d49ed68",
          "topics": [
            "0xb1b7af3632f49d5b19dbf83683fa7f25b3bb2b65bcaeed750857e79925bf1051",
            "0x46226cefadc3df2d2ec09988c12224674225bdea4cd29532f085d9a0bc9aa8a4"
          ],
          "data": "0x00000000000000000000000000000000000000000000000014d1120d7b1600000000000000000000000000000000000000000000000000000000000005f5e100",
          "blockHash": "0xc78e5b9fa815575d7cda85a38dc1d310c16a55d5f665105388dcecbf374d4762",
          "blockNumber": "0xa0b32e",
          "blockTimestamp": "0x69c64794",
          "transactionHash": "0x40765a89c5ee6607d7b1c309af5e5e2ef26e05509efa4c4ffd16cd92a090cf1a",
          "transactionIndex": "0x5e",
          "logIndex": "0x229",
          "removed": false
        },
        {
          "address": "0x6622208e914731f76131b84880990f125c3494f9",
          "topics": [
            "0xaac69e1ce8831d52c512763af8b0f3a88161e166b9b53c86e30211c11d356c84",
            "0x46226cefadc3df2d2ec09988c12224674225bdea4cd29532f085d9a0bc9aa8a4",
            "0x0000000000000000000000005508532b027d57b020e6c0bedb1fe19a6d6c555c"
          ],
          "data": "0x0000000000000000000000000000000000000000000000000000000008f0d1800000000000000000000000000000000000000000000000000000000005f5e100",
          "blockHash": "0xc78e5b9fa815575d7cda85a38dc1d310c16a55d5f665105388dcecbf374d4762",
          "blockNumber": "0xa0b32e",
          "blockTimestamp": "0x69c64794",
          "transactionHash": "0x40765a89c5ee6607d7b1c309af5e5e2ef26e05509efa4c4ffd16cd92a090cf1a",
          "transactionIndex": "0x5e",
          "logIndex": "0x22a",
          "removed": false
        },
        {
          "address": "0x6622208e914731f76131b84880990f125c3494f9",
          "topics": [
            "0xb1b7af3632f49d5b19dbf83683fa7f25b3bb2b65bcaeed750857e79925bf1051",
            "0x46226cefadc3df2d2ec09988c12224674225bdea4cd29532f085d9a0bc9aa8a4"
          ],
          "data": "0x00000000000000000000000000000000000000000000000014d1120d7b1600000000000000000000000000000000000000000000000000000000000005f5e100",
          "blockHash": "0xc78e5b9fa815575d7cda85a38dc1d310c16a55d5f665105388dcecbf374d4762",
          "blockNumber": "0xa0b32e",
          "blockTimestamp": "0x69c64794",
          "transactionHash": "0x40765a89c5ee6607d7b1c309af5e5e2ef26e05509efa4c4ffd16cd92a090cf1a",
          "transactionIndex": "0x5e",
          "logIndex": "0x22b",
          "removed": false
        }
      ],
      "logsBloom": "0x00000000040000000000000000000000000000000200000000000000000000000000000000002000001000000000000000000000000000000000000000000000000000000000000000000000000000000000000000010810000000000000000000000000000004004000000000000000000000000000000000000000000000000080000000000000000000000000000000000000800000000000000001000000000000000000000000000000000000000000000000000080000000000000040000000000000000000000000000000000000000000000000004000000000000000000000000020000000002100020000000000000000000000000000000000200",
      "type": "0x2",
      "transactionHash": "0x40765a89c5ee6607d7b1c309af5e5e2ef26e05509efa4c4ffd16cd92a090cf1a",
      "transactionIndex": "0x5e",
      "blockHash": "0xc78e5b9fa815575d7cda85a38dc1d310c16a55d5f665105388dcecbf374d4762",
      "blockNumber": "0xa0b32e",
      "gasUsed": "0x1a4a6",
      "effectiveGasPrice": "0xf4260",
      "from": "0x5508532b027d57b020e6c0bedb1fe19a6d6c555c",
      "to": "0x6622208e914731f76131b84880990f125c3494f9",
      "contractAddress": null
    },
    {
      "status": "0x1",
      "cumulativeGasUsed": "0xf1203a",
      "logs": [],
      "logsBloom": "0x00000000000000000000000000000000000000000000000000000000000000000000000000000000000000000000000000000000000000000000000000000000000000000000000000000000000000000000000000000000000000000000000000000000000000000000000000000000000000000000000000000000000000000000000000000000000000000000000000000000000000000000000000000000000000000000000000000000000000000000000000000000000000000000000000000000000000000000000000000000000000000000000000000000000000000000000000000000000000000000000000000000000000000000000000000000",
      "type": "0x2",
      "transactionHash": "0x369eb631eca55b04abafd5b5ed9f9874811b2c09b9717b1bdfac519f6a5c84da",
      "transactionIndex": "0x5f",
      "blockHash": "0xc78e5b9fa815575d7cda85a38dc1d310c16a55d5f665105388dcecbf374d4762",
      "blockNumber": "0xa0b32e",
      "gasUsed": "0x115d1",
      "effectiveGasPrice": "0xf4260",
      "from": "0x5508532b027d57b020e6c0bedb1fe19a6d6c555c",
      "to": "0xc9f36411c9897e7f959d99ffca2a0ba7ee0d7bda",
      "contractAddress": null
    },
    {
      "status": "0x1",
      "cumulativeGasUsed": "0xf2360b",
      "logs": [],
      "logsBloom": "0x00000000000000000000000000000000000000000000000000000000000000000000000000000000000000000000000000000000000000000000000000000000000000000000000000000000000000000000000000000000000000000000000000000000000000000000000000000000000000000000000000000000000000000000000000000000000000000000000000000000000000000000000000000000000000000000000000000000000000000000000000000000000000000000000000000000000000000000000000000000000000000000000000000000000000000000000000000000000000000000000000000000000000000000000000000000",
      "type": "0x2",
      "transactionHash": "0x65e5504bc0d1e8cd9078053295250ff080c5cb2b75fd42dde34f13bece05dcb2",
      "transactionIndex": "0x60",
      "blockHash": "0xc78e5b9fa815575d7cda85a38dc1d310c16a55d5f665105388dcecbf374d4762",
      "blockNumber": "0xa0b32e",
      "gasUsed": "0x115d1",
      "effectiveGasPrice": "0xf4260",
      "from": "0x5508532b027d57b020e6c0bedb1fe19a6d6c555c",
      "to": "0xc9f36411c9897e7f959d99ffca2a0ba7ee0d7bda",
      "contractAddress": null
    }
  ],
  "libraries": [],
  "pending": [],
  "returns": {},
  "timestamp": 1774602133,
  "chain": 11155111,
  "commit": "a782da8"
}