{
  "transactions": [
    {
      "hash": "0x73f6c8f2d782ae872337432d04ad347d78d0b80f82ab7dc6c41f19c0b4c085cb",
      "transactionType": "CALL",
      "contractName": null,
      "contractAddress": "0xc959483dba39aa9e78757139af0e9a2edeb3f42d",
      "function": "mint(address,address,uint256)",
      "arguments": [
        "0x88541670E55cC00bEEFD87eB59EDd1b7C511AC9a",
        "0x5508532b027D57b020e6C0BeDB1fE19a6d6C555c",
        "10000000000000000000"
      ],
      "transaction": {
        "from": "0x5508532b027d57b020e6c0bedb1fe19a6d6c555c",
        "to": "0xc959483dba39aa9e78757139af0e9a2edeb3f42d",
        "gas": "0x166ec",
        "value": "0x0",
        "input": "0xc6c3bbe600000000000000000000000088541670e55cc00beefd87eb59edd1b7c511ac9a0000000000000000000000005508532b027d57b020e6c0bedb1fe19a6d6c555c0000000000000000000000000000000000000000000000008ac7230489e80000",
        "nonce": "0x2d",
        "chainId": "0xaa36a7"
      },
      "additionalContracts": [],
      "isFixedGasLimit": false
    },
    {
      "hash": "0x76f0376face3b9e52778289470afa040932dc9176f682f7e2376e1c4d8f24fdc",
      "transactionType": "CALL",
      "contractName": null,
      "contractAddress": "0xc959483dba39aa9e78757139af0e9a2edeb3f42d",
      "function": "mint(address,address,uint256)",
      "arguments": [
        "0x94a9D9AC8a22534E3FaCa9F4e7F2E2cf85d5E4C8",
        "0x5508532b027D57b020e6C0BeDB1fE19a6d6C555c",
        "75000000"
      ],
      "transaction": {
        "from": "0x5508532b027d57b020e6c0bedb1fe19a6d6c555c",
        "to": "0xc959483dba39aa9e78757139af0e9a2edeb3f42d",
        "gas": "0x166c8",
        "value": "0x0",
        "input": "0xc6c3bbe600000000000000000000000094a9d9ac8a22534e3faca9f4e7f2e2cf85d5e4c80000000000000000000000005508532b027d57b020e6c0bedb1fe19a6d6c555c00000000000000000000000000000000000000000000000000000000047868c0",
        "nonce": "0x2e",
        "chainId": "0xaa36a7"
      },
      "additionalContracts": [],
      "isFixedGasLimit": false
    },
    {
      "hash": "0x5605c38ded6fa451bc9f9940ba82a6b80692fb8fd5c97641919d85cf92382048",
      "transactionType": "CALL",
      "contractName": null,
      "contractAddress": "0x88541670e55cc00beefd87eb59edd1b7c511ac9a",
      "function": "approve(address,uint256)",
      "arguments": [
        "0x6Ae43d3271ff6888e7Fc43Fd7321a503ff738951",
        "10000000000000000000"
      ],
      "transaction": {
        "from": "0x5508532b027d57b020e6c0bedb1fe19a6d6c555c",
        "to": "0x88541670e55cc00beefd87eb59edd1b7c511ac9a",
        "gas": "0x10839",
        "value": "0x0",
        "input": "0x095ea7b30000000000000000000000006ae43d3271ff6888e7fc43fd7321a503ff7389510000000000000000000000000000000000000000000000008ac7230489e80000",
        "nonce": "0x2f",
        "chainId": "0xaa36a7"
      },
      "additionalContracts": [],
      "isFixedGasLimit": false
    },
    {
      "hash": "0x1dfbd27c78000455a18e849ec944264b18abd709f9c7a4431de2cb2b15c1e738",
      "transactionType": "CALL",
      "contractName": null,
      "contractAddress": "0x6ae43d3271ff6888e7fc43fd7321a503ff738951",
      "function": "supply(address,uint256,address,uint16)",
      "arguments": [
        "0x88541670E55cC00bEEFD87eB59EDd1b7C511AC9a",
        "10000000000000000000",
        "0x5508532b027D57b020e6C0BeDB1fE19a6d6C555c",
        "0"
      ],
      "transaction": {
        "from": "0x5508532b027d57b020e6c0bedb1fe19a6d6c555c",
        "to": "0x6ae43d3271ff6888e7fc43fd7321a503ff738951",
        "gas": "0x41fd6",
        "value": "0x0",
        "input": "0x617ba03700000000000000000000000088541670e55cc00beefd87eb59edd1b7c511ac9a0000000000000000000000000000000000000000000000008ac7230489e800000000000000000000000000005508532b027d57b020e6c0bedb1fe19a6d6c555c0000000000000000000000000000000000000000000000000000000000000000",
        "nonce": "0x30",
        "chainId": "0xaa36a7"
      },
      "additionalContracts": [],
      "isFixedGasLimit": false
    },
    {
      "hash": "0xf19d9eeecd554f8c95fb95aa7d70876a0e757030e98d96913482fda7a3a41ede",
      "transactionType": "CALL",
      "contractName": null,
      "contractAddress": "0x6ae43d3271ff6888e7fc43fd7321a503ff738951",
      "function": "borrow(address,uint256,uint256,uint16,address)",
      "arguments": [
        "0x94a9D9AC8a22534E3FaCa9F4e7F2E2cf85d5E4C8",
        "1000000000",
        "2",
        "0",
        "0x5508532b027D57b020e6C0BeDB1fE19a6d6C555c"
      ],
      "transaction": {
        "from": "0x5508532b027d57b020e6c0bedb1fe19a6d6c555c",
        "to": "0x6ae43d3271ff6888e7fc43fd7321a503ff738951",
        "gas": "0x544a8",
        "value": "0x0",
        "input": "0xa415bcad00000000000000000000000094a9d9ac8a22534e3faca9f4e7f2e2cf85d5e4c8000000000000000000000000000000000000000000000000000000003b9aca00000000000000000000000000000000000000000000000000000000000000000200000000000000000000000000000000000000000000000000000000000000000000000000000000000000005508532b027d57b020e6c0bedb1fe19a6d6c555c",
        "nonce": "0x31",
        "chainId": "0xaa36a7"
      },
      "additionalContracts": [],
      "isFixedGasLimit": false
    },
    {
      "hash": "0xd18ecc7f77b5760035652fd0e1a7b65aa045d28270ceb544ee74f8ce14b0885d",
      "transactionType": "CALL",
      "contractName": null,
      "contractAddress": "0x82b78985fc07bc9868bed357a9dff0b710212f6e",
      "function": "configureProtection(bytes32,uint256,uint256,uint256)",
      "arguments": [
        "0x46226cefadc3df2d2ec09988c12224674225bdea4cd29532f085d9a0bc9aa8a4",
        "1150000000000000000",
        "25000000",
        "25"
      ],
      "transaction": {
        "from": "0x5508532b027d57b020e6c0bedb1fe19a6d6c555c",
        "to": "0x82b78985fc07bc9868bed357a9dff0b710212f6e",
        "gas": "0x30cc3",
        "value": "0x0",
        "input": "0xc6c5bea746226cefadc3df2d2ec09988c12224674225bdea4cd29532f085d9a0bc9aa8a40000000000000000000000000000000000000000000000000ff59ee833b3000000000000000000000000000000000000000000000000000000000000017d78400000000000000000000000000000000000000000000000000000000000000019",
        "nonce": "0x32",
        "chainId": "0xaa36a7"
      },
      "additionalContracts": [],
      "isFixedGasLimit": false
    },
    {
      "hash": "0xc46a2f91e4d06e4a6963a03faa0736c6a5192f734ee7c3a8792660b30f8be1f2",
      "transactionType": "CALL",
      "contractName": null,
      "contractAddress": "0x94a9d9ac8a22534e3faca9f4e7f2e2cf85d5e4c8",
      "function": "approve(address,uint256)",
      "arguments": [
        "0x82B78985fC07Bc9868bEd357A9dFF0B710212F6e",
        "50000000"
      ],
      "transaction": {
        "from": "0x5508532b027d57b020e6c0bedb1fe19a6d6c555c",
        "to": "0x94a9d9ac8a22534e3faca9f4e7f2e2cf85d5e4c8",
        "gas": "0x10816",
        "value": "0x0",
        "input": "0x095ea7b300000000000000000000000082b78985fc07bc9868bed357a9dff0b710212f6e0000000000000000000000000000000000000000000000000000000002faf080",
        "nonce": "0x33",
        "chainId": "0xaa36a7"
      },
      "additionalContracts": [],
      "isFixedGasLimit": false
    },
    {
      "hash": "0xad0f1b3483815842275c5d1f1f6880034f9dbe1bb9e8189f756d42a8f34e6d9b",
      "transactionType": "CALL",
      "contractName": null,
      "contractAddress": "0x82b78985fc07bc9868bed357a9dff0b710212f6e",
      "function": "depositReserve(bytes32,uint256)",
      "arguments": [
        "0x46226cefadc3df2d2ec09988c12224674225bdea4cd29532f085d9a0bc9aa8a4",
        "50000000"
      ],
      "transaction": {
        "from": "0x5508532b027d57b020e6c0bedb1fe19a6d6c555c",
        "to": "0x82b78985fc07bc9868bed357a9dff0b710212f6e",
        "gas": "0x1e2c5",
        "value": "0x0",
        "input": "0xf1ede7f446226cefadc3df2d2ec09988c12224674225bdea4cd29532f085d9a0bc9aa8a40000000000000000000000000000000000000000000000000000000002faf080",
        "nonce": "0x34",
        "chainId": "0xaa36a7"
      },
      "additionalContracts": [],
      "isFixedGasLimit": false
    },
    {
      "hash": "0xc62d5c234fe544d2601d4347b91f12ebe60c040833855261bd1863be05a382cc",
      "transactionType": "CALL",
      "contractName": null,
      "contractAddress": "0x6d165faa504fdc111a5dba6651546ffdc87bb8ab",
      "function": "configurePosition(bytes32,address,address,address)",
      "arguments": [
        "0x46226cefadc3df2d2ec09988c12224674225bdea4cd29532f085d9a0bc9aa8a4",
        "0x5508532b027D57b020e6C0BeDB1fE19a6d6C555c",
        "0x94a9D9AC8a22534E3FaCa9F4e7F2E2cf85d5E4C8",
        "0x36B5dE936eF1710E1d22EabE5231b28581a92ECc"
      ],
      "transaction": {
        "from": "0x5508532b027d57b020e6c0bedb1fe19a6d6c555c",
        "to": "0x6d165faa504fdc111a5dba6651546ffdc87bb8ab",
        "gas": "0x4e054",
        "value": "0x0",
        "input": "0x11090db746226cefadc3df2d2ec09988c12224674225bdea4cd29532f085d9a0bc9aa8a40000000000000000000000005508532b027d57b020e6c0bedb1fe19a6d6c555c00000000000000000000000094a9d9ac8a22534e3faca9f4e7f2e2cf85d5e4c800000000000000000000000036b5de936ef1710e1d22eabe5231b28581a92ecc",
        "nonce": "0x35",
        "chainId": "0xaa36a7"
      },
      "additionalContracts": [],
      "isFixedGasLimit": false
    },
    {
      "hash": "0xad7a5c44a08b3eff919c67611e44b58c91b32e6fcaec3a567c12965df7c0ec96",
      "transactionType": "CALL",
      "contractName": null,
      "contractAddress": "0x94a9d9ac8a22534e3faca9f4e7f2e2cf85d5e4c8",
      "function": "approve(address,uint256)",
      "arguments": [
        "0xc6f2e814f9845FD9404585049aF2147a35943cc6",
        "25000000"
      ],
      "transaction": {
        "from": "0x5508532b027d57b020e6c0bedb1fe19a6d6c555c",
        "to": "0x94a9d9ac8a22534e3faca9f4e7f2e2cf85d5e4c8",
        "gas": "0x10816",
        "value": "0x0",
        "input": "0x095ea7b3000000000000000000000000c6f2e814f9845fd9404585049af2147a35943cc600000000000000000000000000000000000000000000000000000000017d7840",
        "nonce": "0x36",
        "chainId": "0xaa36a7"
      },
      "additionalContracts": [],
      "isFixedGasLimit": false
    },
    {
      "hash": "0xc22ffa62121aa3725531241d8fe3a3b509c666ece3f5a332a9dadc585ccd0c60",
      "transactionType": "CALL",
      "contractName": null,
      "contractAddress": "0xc6f2e814f9845fd9404585049af2147a35943cc6",
      "function": "fundLiquidity(uint256)",
      "arguments": [
        "25000000"
      ],
      "transaction": {
        "from": "0x5508532b027d57b020e6c0bedb1fe19a6d6c555c",
        "to": "0xc6f2e814f9845fd9404585049af2147a35943cc6",
        "gas": "0x140af",
        "value": "0x0",
        "input": "0xf0f437b600000000000000000000000000000000000000000000000000000000017d7840",
        "nonce": "0x37",
        "chainId": "0xaa36a7"
      },
      "additionalContracts": [],
      "isFixedGasLimit": false
    },
    {
      "hash": "0x7d1173a943d99d8a89acc76206b64dd5d464d1ee9b888733be84578f12084e20",
      "transactionType": "CALL",
      "contractName": null,
      "contractAddress": "0xc9f36411c9897e7f959d99ffca2a0ba7ee0d7bda",
      "function": "depositTo(address)",
      "arguments": [
        "0x82B78985fC07Bc9868bEd357A9dFF0B710212F6e"
      ],
      "transaction": {
        "from": "0x5508532b027d57b020e6c0bedb1fe19a6d6c555c",
        "to": "0xc9f36411c9897e7f959d99ffca2a0ba7ee0d7bda",
        "gas": "0x1964e",
        "value": "0x71afd498d0000",
        "input": "0xb760faf900000000000000000000000082b78985fc07bc9868bed357a9dff0b710212f6e",
        "nonce": "0x38",
        "chainId": "0xaa36a7"
      },
      "additionalContracts": [],
      "isFixedGasLimit": false
    },
    {
      "hash": "0xe0bd64caf1fe20106cce3536312f8999a4f43616eeae6c34c4348d7520051635",
      "transactionType": "CALL",
      "contractName": null,
      "contractAddress": "0xc9f36411c9897e7f959d99ffca2a0ba7ee0d7bda",
      "function": "depositTo(address)",
      "arguments": [
        "0x6d165fAA504Fdc111a5dBA6651546FFDC87bB8AB"
      ],
      "transaction": {
        "from": "0x5508532b027d57b020e6c0bedb1fe19a6d6c555c",
        "to": "0xc9f36411c9897e7f959d99ffca2a0ba7ee0d7bda",
        "gas": "0x1964e",
        "value": "0x71afd498d0000",
        "input": "0xb760faf90000000000000000000000006d165faa504fdc111a5dba6651546ffdc87bb8ab",
        "nonce": "0x39",
        "chainId": "0xaa36a7"
      },
      "additionalContracts": [],
      "isFixedGasLimit": false
    },
    {
      "hash": "0x6910b3c3fd3fd1310781d0078c80bff3fdcee71f96ae4aa5be752834b8a2dcbb",
      "transactionType": "CALL",
      "contractName": null,
      "contractAddress": "0xc9f36411c9897e7f959d99ffca2a0ba7ee0d7bda",
      "function": "depositTo(address)",
      "arguments": [
        "0xc6f2e814f9845FD9404585049aF2147a35943cc6"
      ],
      "transaction": {
        "from": "0x5508532b027d57b020e6c0bedb1fe19a6d6c555c",
        "to": "0xc9f36411c9897e7f959d99ffca2a0ba7ee0d7bda",
        "gas": "0x1964e",
        "value": "0x71afd498d0000",
        "input": "0xb760faf9000000000000000000000000c6f2e814f9845fd9404585049af2147a35943cc6",
        "nonce": "0x3a",
        "chainId": "0xaa36a7"
      },
      "additionalContracts": [],
      "isFixedGasLimit": false
    }
  ],
  "receipts": [
    {
      "status": "0x1",
      "cumulativeGasUsed": "0x122ef57",
      "logs": [
        {
          "address": "0x88541670e55cc00beefd87eb59edd1b7c511ac9a",
          "topics": [
            "0xddf252ad1be2c89b69c2b068fc378daa952ba7f163c4a11628f55a4df523b3ef",
            "0x0000000000000000000000000000000000000000000000000000000000000000",
            "0x0000000000000000000000005508532b027d57b020e6c0bedb1fe19a6d6c555c"
          ],
          "data": "0x0000000000000000000000000000000000000000000000008ac7230489e80000",
          "blockHash": "0xa804c103f46b65e2607a79e5917b4e008da324a4495da93049303fe16722ab9a",
          "blockNumber": "0xa0b478",
          "blockTimestamp": "0x69c657e4",
          "transactionHash": "0x73f6c8f2d782ae872337432d04ad347d78d0b80f82ab7dc6c41f19c0b4c085cb",
          "transactionIndex": "0x7e",
          "logIndex": "0x3af",
          "removed": false
        }
      ],
      "logsBloom": "0x00000000000000000000000000000000000000000000000000000000000000000000000000000000002000000000000000000000000000000000000000000200000000000000000000000008000000000000000000000000000000000000000000000000020000000000000000000800000000000000000000000010000000000000000000000000000000000000010000000000000000000000000000000000000000000000000000000000000000000000000000000000000000000000000000000002000000000000000000000000000000000000000004000000000020000000000000000000000002100000000000000000000000000000000000000000",
      "type": "0x2",
      "transactionHash": "0x73f6c8f2d782ae872337432d04ad347d78d0b80f82ab7dc6c41f19c0b4c085cb",
      "transactionIndex": "0x7e",
      "blockHash": "0xa804c103f46b65e2607a79e5917b4e008da324a4495da93049303fe16722ab9a",
      "blockNumber": "0xa0b478",
      "gasUsed": "0xf56b",
      "effectiveGasPrice": "0x124f9c",
      "from": "0x5508532b027d57b020e6c0bedb1fe19a6d6c555c",
      "to": "0xc959483dba39aa9e78757139af0e9a2edeb3f42d",
      "contractAddress": null
    },
    {
      "status": "0x1",
      "cumulativeGasUsed": "0x123e4aa",
      "logs": [
        {
          "address": "0x94a9d9ac8a22534e3faca9f4e7f2e2cf85d5e4c8",
          "topics": [
            "0xddf252ad1be2c89b69c2b068fc378daa952ba7f163c4a11628f55a4df523b3ef",
            "0x0000000000000000000000000000000000000000000000000000000000000000",
            "0x0000000000000000000000005508532b027d57b020e6c0bedb1fe19a6d6c555c"
          ],
          "data": "0x00000000000000000000000000000000000000000000000000000000047868c0",
          "blockHash": "0xa804c103f46b65e2607a79e5917b4e008da324a4495da93049303fe16722ab9a",
          "blockNumber": "0xa0b478",
          "blockTimestamp": "0x69c657e4",
          "transactionHash": "0x76f0376face3b9e52778289470afa040932dc9176f682f7e2376e1c4d8f24fdc",
          "transactionIndex": "0x7f",
          "logIndex": "0x3b0",
          "removed": false
        }
      ],
      "logsBloom": "0x00000000000000000000000000000000000000000000000000000000000000000000000000000000000000000000000000000000000000000000000000000000000000000000000000000008000000000000000000000000000008000000000000000000020000000000000000000800000000000000000000000010000000000000000000000000000000000000000000000000000000000000000000000000000000000100000000004000000000000000000000000000000000000000000000000002000000000000000000000000000000000000000004000000000020000000000000000000000002100000000000000000000000000000000000000000",
      "type": "0x2",
      "transactionHash": "0x76f0376face3b9e52778289470afa040932dc9176f682f7e2376e1c4d8f24fdc",
      "transactionIndex": "0x7f",
      "blockHash": "0xa804c103f46b65e2607a79e5917b4e008da324a4495da93049303fe16722ab9a",
      "blockNumber": "0xa0b478",
      "gasUsed": "0xf553",
      "effectiveGasPrice": "0x124f9c",
      "from": "0x5508532b027d57b020e6c0bedb1fe19a6d6c555c",
      "to": "0xc959483dba39aa9e78757139af0e9a2edeb3f42d",
      "contractAddress": null
    },
    {
      "status": "0x1",
      "cumulativeGasUsed": "0x1249955",
      "logs": [
        {
          "address": "0x88541670e55cc00beefd87eb59edd1b7c511ac9a",
          "topics": [
            "0x8c5be1e5ebec7d5bd14f71427d1e84f3dd0314c0f7b2291e5b200ac8c7c3b925",
            "0x0000000000000000000000005508532b027d57b020e6c0bedb1fe19a6d6c555c",
            "0x0000000000000000000000006ae43d3271ff6888e7fc43fd7321a503ff738951"
          ],
          "data": "0x0000000000000000000000000000000000000000000000008ac7230489e80000",
          "blockHash": "0xa804c103f46b65e2607a79e5917b4e008da324a4495da93049303fe16722ab9a",
          "blockNumber": "0xa0b478",
          "blockTimestamp": "0x69c657e4",
          "transactionHash": "0x5605c38ded6fa451bc9f9940ba82a6b80692fb8fd5c97641919d85cf92382048",
          "transactionIndex": "0x80",
          "logIndex": "0x3b1",
          "removed": false
        }
      ],
      "logsBloom": "0x00000000000000000000000000000000000000000000000000000000000000000000000000000000002000000000000000040000000000000000000000200200000000000000000000000000000000000000000000000000000000000000200000000000000000000000000000000000000000000000000000000000000000002000000000000000000000000000010000000000000000000000000000000000020000000000000000000000000000000000000000000000000000000000000000000000000000000000000000000000000000000000000004000000000000000010000000000000000002100000000000000000000000000000000000000000",
      "type": "0x2",
      "transactionHash": "0x5605c38ded6fa451bc9f9940ba82a6b80692fb8fd5c97641919d85cf92382048",
      "transactionIndex": "0x80",
      "blockHash": "0xa804c103f46b65e2607a79e5917b4e008da324a4495da93049303fe16722ab9a",
      "blockNumber": "0xa0b478",
      "gasUsed": "0xb4ab",
      "effectiveGasPrice": "0x124f9c",
      "from": "0x5508532b027d57b020e6c0bedb1fe19a6d6c555c",
      "to": "0x88541670e55cc00beefd87eb59edd1b7c511ac9a",
      "contractAddress": null
    },
    {
      "status": "0x1",
      "cumulativeGasUsed": "0x1276b46",
      "logs": [
        {
          "address": "0x6ae43d3271ff6888e7fc43fd7321a503ff738951",
          "topics": [
            "0x804c9b842b2748a22bb64b345453a3de7ca54a6ca45ce00d415894979e22897a",
            "0x00000000000000000000000088541670e55cc00beefd87eb59edd1b7c511ac9a"
          ],
          "data": "0x00000000000000000000000000000000000000000000000000000000000000000000000000000000000000000000000000000000004a723dc6b40b8a9a00000000000000000000000000000000000000000000000000000000000000000000000000000000000000000000000000000000000000033b30d2a798a8b5a7c282c70000000000000000000000000000000000000000033b2e3c9fd0803ce8000000",
          "blockHash": "0xa804c103f46b65e2607a79e5917b4e008da324a4495da93049303fe16722ab9a",
          "blockNumber": "0xa0b478",
          "blockTimestamp": "0x69c657e4",
          "transactionHash": "0x1dfbd27c78000455a18e849ec944264b18abd709f9c7a4431de2cb2b15c1e738",
          "transactionIndex": "0x81",
          "logIndex": "0x3b2",
          "removed": false
        },
        {
          "address": "0x88541670e55cc00beefd87eb59edd1b7c511ac9a",
          "topics": [
            "0xddf252ad1be2c89b69c2b068fc378daa952ba7f163c4a11628f55a4df523b3ef",
            "0x0000000000000000000000005508532b027d57b020e6c0bedb1fe19a6d6c555c",
            "0x0000000000000000000000006b8558764d3b7572136f17174cb9ab1ddc7e1259"
          ],
          "data": "0x0000000000000000000000000000000000000000000000008ac7230489e80000",
          "blockHash": "0xa804c103f46b65e2607a79e5917b4e008da324a4495da93049303fe16722ab9a",
          "blockNumber": "0xa0b478",
          "blockTimestamp": "0x69c657e4",
          "transactionHash": "0x1dfbd27c78000455a18e849ec944264b18abd709f9c7a4431de2cb2b15c1e738",
          "transactionIndex": "0x81",
          "logIndex": "0x3b3",
          "removed": false
        },
        {
          "address": "0x88541670e55cc00beefd87eb59edd1b7c511ac9a",
          "topics": [
            "0x8c5be1e5ebec7d5bd14f71427d1e84f3dd0314c0f7b2291e5b200ac8c7c3b925",
            "0x0000000000000000000000005508532b027d57b020e6c0bedb1fe19a6d6c555c",
            "0x0000000000000000000000006ae43d3271ff6888e7fc43fd7321a503ff738951"
          ],
          "data": "0x0000000000000000000000000000000000000000000000000000000000000000",
          "blockHash": "0xa804c103f46b65e2607a79e5917b4e008da324a4495da93049303fe16722ab9a",
          "blockNumber": "0xa0b478",
          "blockTimestamp": "0x69c657e4",
          "transactionHash": "0x1dfbd27c78000455a18e849ec944264b18abd709f9c7a4431de2cb2b15c1e738",
          "transactionIndex": "0x81",
          "logIndex": "0x3b4",
          "removed": false
        },
        {
          "address": "0x6b8558764d3b7572136f17174cb9ab1ddc7e1259",
          "topics": [
            "0xddf252ad1be2c89b69c2b068fc378daa952ba7f163c4a11628f55a4df523b3ef",
            "0x0000000000000000000000000000000000000000000000000000000000000000",
            "0x0000000000000000000000005508532b027d57b020e6c0bedb1fe19a6d6c555c"
          ],
          "data": "0x0000000000000000000000000000000000000000000000008ac7230489e80000",
          "blockHash": "0xa804c103f46b65e2607a79e5917b4e008da324a4495da93049303fe16722ab9a",
          "blockNumber": "0xa0b478",
          "blockTimestamp": "0x69c657e4",
          "transactionHash": "0x1dfbd27c78000455a18e849ec944264b18abd709f9c7a4431de2cb2b15c1e738",
          "transactionIndex": "0x81",
          "logIndex": "0x3b5",
          "removed": false
        },
        {
          "address": "0x6b8558764d3b7572136f17174cb9ab1ddc7e1259",
          "topics": [
            "0x458f5fa412d0f69b08dd84872b0215675cc67bc1d5b6fd93300a1c3878b86196",
            "0x0000000000000000000000005508532b027d57b020e6c0bedb1fe19a6d6c555c",
            "0x0000000000000000000000005508532b027d57b020e6c0bedb1fe19a6d6c555c"
          ],
          "data": "0x0000000000000000000000000000000000000000000000008ac7230489e8000000000000000000000000000000000000000000000000000000000000000000000000000000000000000000000000000000000000033b30d2a798a8b5a7c282c7",
          "blockHash": "0xa804c103f46b65e2607a79e5917b4e008da324a4495da93049303fe16722ab9a",
          "blockNumber": "0xa0b478",
          "blockTimestamp": "0x69c657e4",
          "transactionHash": "0x1dfbd27c78000455a18e849ec944264b18abd709f9c7a4431de2cb2b15c1e738",
          "transactionIndex": "0x81",
          "logIndex": "0x3b6",
          "removed": false
        },
        {
          "address": "0x6ae43d3271ff6888e7fc43fd7321a503ff738951",
          "topics": [
            "0x00058a56ea94653cdf4f152d227ace22d4c00ad99e2a43f58cb7d9e3feb295f2",
            "0x00000000000000000000000088541670e55cc00beefd87eb59edd1b7c511ac9a",
            "0x0000000000000000000000005508532b027d57b020e6c0bedb1fe19a6d6c555c"
          ],
          "data": "0x",
          "blockHash": "0xa804c103f46b65e2607a79e5917b4e008da324a4495da93049303fe16722ab9a",
          "blockNumber": "0xa0b478",
          "blockTimestamp": "0x69c657e4",
          "transactionHash": "0x1dfbd27c78000455a18e849ec944264b18abd709f9c7a4431de2cb2b15c1e738",
          "transactionIndex": "0x81",
          "logIndex": "0x3b7",
          "removed": false
        },
        {
          "address": "0x6ae43d3271ff6888e7fc43fd7321a503ff738951",
          "topics": [
            "0x2b627736bca15cd5381dcf80b0bf11fd197d01a037c52b927a881a10fb73ba61",
            "0x00000000000000000000000088541670e55cc00beefd87eb59edd1b7c511ac9a",
            "0x0000000000000000000000005508532b027d57b020e6c0bedb1fe19a6d6c555c",
            "0x0000000000000000000000000000000000000000000000000000000000000000"
          ],
          "data": "0x0000000000000000000000005508532b027d57b020e6c0bedb1fe19a6d6c555c0000000000000000000000000000000000000000000000008ac7230489e80000",
          "blockHash": "0xa804c103f46b65e2607a79e5917b4e008da324a4495da93049303fe16722ab9a",
          "blockNumber": "0xa0b478",
          "blockTimestamp": "0x69c657e4",
          "transactionHash": "0x1dfbd27c78000455a18e849ec944264b18abd709f9c7a4431de2cb2b15c1e738",
          "transactionIndex": "0x81",
          "logIndex": "0x3b8",
          "removed": false
        }
      ],
      "logsBloom": "0x00100000000008400080000000000800000000000000000000000000000100000000000000000000002000000004000000040000002000000000000000200200000000000000200000002008000000000000000000000000000000040000200000000000020000000000000000000800000000000000000000000010000000002000000081000000000000000000010000200000000000000000000000000000020000000000000000000000000000000010000000000000000000000000010002000002000000000000002040000000000000000000000004000000040020000010000400000000000002100000000040000000000000000000400000000000",
      "type": "0x2",
      "transactionHash": "0x1dfbd27c78000455a18e849ec944264b18abd709f9c7a4431de2cb2b15c1e738",
      "transactionIndex": "0x81",
      "blockHash": "0xa804c103f46b65e2607a79e5917b4e008da324a4495da93049303fe16722ab9a",
      "blockNumber": "0xa0b478",
      "gasUsed": "0x2d1f1",
      "effectiveGasPrice": "0x124f9c",
      "from": "0x5508532b027d57b020e6c0bedb1fe19a6d6c555c",
      "to": "0x6ae43d3271ff6888e7fc43fd7321a503ff738951",
      "contractAddress": null
    },
    {
      "status": "0x1",
      "cumulativeGasUsed": "0x12b3bae",
      "logs": [
        {
          "address": "0x36b5de936ef1710e1d22eabe5231b28581a92ecc",
          "topics": [
            "0xddf252ad1be2c89b69c2b068fc378daa952ba7f163c4a11628f55a4df523b3ef",
            "0x0000000000000000000000000000000000000000000000000000000000000000",
            "0x0000000000000000000000005508532b027d57b020e6c0bedb1fe19a6d6c555c"
          ],
          "data": "0x000000000000000000000000000000000000000000000000000000003b9aca00",
          "blockHash": "0xa804c103f46b65e2607a79e5917b4e008da324a4495da93049303fe16722ab9a",
          "blockNumber": "0xa0b478",
          "blockTimestamp": "0x69c657e4",
          "transactionHash": "0xf19d9eeecd554f8c95fb95aa7d70876a0e757030e98d96913482fda7a3a41ede",
          "transactionIndex": "0x82",
          "logIndex": "0x3b9",
          "removed": false
        },
        {
          "address": "0x36b5de936ef1710e1d22eabe5231b28581a92ecc",
          "topics": [
            "0x458f5fa412d0f69b08dd84872b0215675cc67bc1d5b6fd93300a1c3878b86196",
            "0x0000000000000000000000005508532b027d57b020e6c0bedb1fe19a6d6c555c",
            "0x0000000000000000000000005508532b027d57b020e6c0bedb1fe19a6d6c555c"
          ],
          "data": "0x000000000000000000000000000000000000000000000000000000003b9aca00000000000000000000000000000000000000000000000000000000000000000000000000000000000000000000000000000000000838ba8d345b4c42d5e65ce1",
          "blockHash": "0xa804c103f46b65e2607a79e5917b4e008da324a4495da93049303fe16722ab9a",
          "blockNumber": "0xa0b478",
          "blockTimestamp": "0x69c657e4",
          "transactionHash": "0xf19d9eeecd554f8c95fb95aa7d70876a0e757030e98d96913482fda7a3a41ede",
          "transactionIndex": "0x82",
          "logIndex": "0x3ba",
          "removed": false
        },
        {
          "address": "0x6ae43d3271ff6888e7fc43fd7321a503ff738951",
          "topics": [
            "0x804c9b842b2748a22bb64b345453a3de7ca54a6ca45ce00d415894979e22897a",
            "0x00000000000000000000000094a9d9ac8a22534e3faca9f4e7f2e2cf85d5e4c8"
          ],
          "data": "0x000000000000000000000000000000000000000001dc5fcee4c781336ce23fdf0000000000000000000000000000000000000000021dca68b825144406007fc20000000000000000000000000000000000000000021162091707125797007fc20000000000000000000000000000000000000000073a2aa2f54c371ab691c83000000000000000000000000000000000000000000838ba8d345b4c42d5e65ce1",
          "blockHash": "0xa804c103f46b65e2607a79e5917b4e008da324a4495da93049303fe16722ab9a",
          "blockNumber": "0xa0b478",
          "blockTimestamp": "0x69c657e4",
          "transactionHash": "0xf19d9eeecd554f8c95fb95aa7d70876a0e757030e98d96913482fda7a3a41ede",
          "transactionIndex": "0x82",
          "logIndex": "0x3bb",
          "removed": false
        },
        {
          "address": "0x94a9d9ac8a22534e3faca9f4e7f2e2cf85d5e4c8",
          "topics": [
            "0xddf252ad1be2c89b69c2b068fc378daa952ba7f163c4a11628f55a4df523b3ef",
            "0x00000000000000000000000016da4541ad1807f4443d92d26044c1147406eb80",
            "0x0000000000000000000000005508532b027d57b020e6c0bedb1fe19a6d6c555c"
          ],
          "data": "0x000000000000000000000000000000000000000000000000000000003b9aca00",
          "blockHash": "0xa804c103f46b65e2607a79e5917b4e008da324a4495da93049303fe16722ab9a",
          "blockNumber": "0xa0b478",
          "blockTimestamp": "0x69c657e4",
          "transactionHash": "0xf19d9eeecd554f8c95fb95aa7d70876a0e757030e98d96913482fda7a3a41ede",
          "transactionIndex": "0x82",
          "logIndex": "0x3bc",
          "removed": false
        },
        {
          "address": "0x6ae43d3271ff6888e7fc43fd7321a503ff738951",
          "topics": [
            "0xb3d084820fb1a9decffb176436bd02558d15fac9b0ddfed8c465bc7359d7dce0",
            "0x00000000000000000000000094a9d9ac8a22534e3faca9f4e7f2e2cf85d5e4c8",
            "0x0000000000000000000000005508532b027d57b020e6c0bedb1fe19a6d6c555c",
            "0x0000000000000000000000000000000000000000000000000000000000000000"
          ],
          "data": "0x0000000000000000000000005508532b027d57b020e6c0bedb1fe19a6d6c555c000000000000000000000000000000000000000000000000000000003b9aca0000000000000000000000000000000000000000000000000000000000000000020000000000000000000000000000000000000000021162091707125797007fc2",
          "blockHash": "0xa804c103f46b65e2607a79e5917b4e008da324a4495da93049303fe16722ab9a",
          "blockNumber": "0xa0b478",
          "blockTimestamp": "0x69c657e4",
          "transactionHash": "0xf19d9eeecd554f8c95fb95aa7d70876a0e757030e98d96913482fda7a3a41ede",
          "transactionIndex": "0x82",
          "logIndex": "0x3bd",
          "removed": false
        }
      ],
      "logsBloom": "0x00000000000000008200000000000000000000000000400000000000000000000000000000000000000100000004000000000000002000000000000000000000000000000000000000000008000000000000000000000000000008040000000000000000020000000000000000000800000000000000000000000010100000000000000001000000000000100000000000200000000000000000000000000000000000000100000000004000000000000000000000000000000000100000010002000002000001000000002000000000000000000000060004000000000020000000000000000000000402100001000000000000000000000000000000000000",
      "type": "0x2",
      "transactionHash": "0xf19d9eeecd554f8c95fb95aa7d70876a0e757030e98d96913482fda7a3a41ede",
      "transactionIndex": "0x82",
      "blockHash": "0xa804c103f46b65e2607a79e5917b4e008da324a4495da93049303fe16722ab9a",
      "blockNumber": "0xa0b478",
      "gasUsed": "0x3d068",
      "effectiveGasPrice": "0x124f9c",
      "from": "0x5508532b027d57b020e6c0bedb1fe19a6d6c555c",
      "to": "0x6ae43d3271ff6888e7fc43fd7321a503ff738951",
      "contractAddress": null
    },
    {
      "status": "0x1",
      "cumulativeGasUsed": "0x12d5189",
      "logs": [
        {
          "address": "0x82b78985fc07bc9868bed357a9dff0b710212f6e",
          "topics": [
            "0x29b5688caee54ceb8c27d4b86b745ba4379c5cdc9eb0ea810b052b8cfd5dc5f8",
            "0x46226cefadc3df2d2ec09988c12224674225bdea4cd29532f085d9a0bc9aa8a4",
            "0x0000000000000000000000005508532b027d57b020e6c0bedb1fe19a6d6c555c"
          ],
          "data": "0x0000000000000000000000000000000000000000000000000ff59ee833b3000000000000000000000000000000000000000000000000000000000000017d78400000000000000000000000000000000000000000000000000000000000000019",
          "blockHash": "0xa804c103f46b65e2607a79e5917b4e008da324a4495da93049303fe16722ab9a",
          "blockNumber": "0xa0b478",
          "blockTimestamp": "0x69c657e4",
          "transactionHash": "0xd18ecc7f77b5760035652fd0e1a7b65aa045d28270ceb544ee74f8ce14b0885d",
          "transactionIndex": "0x83",
          "logIndex": "0x3be",
          "removed": false
        }
      ],
      "logsBloom": "0x00000000000000000000000000000000000000000000000000000000000000000000000000000000000000000000000000000000000000000000000000000000000000000000000000000000000000000000000000000010000000000000002000000100000000002000000000000000000000000000000000000000000000000000000000000000000000000000000000000000000000000000000001000000000000000000000000000000000000000000000000000000000000000000040000000000000000000000000000000000000000000000000004000000000000000000000000000040000002500000000000000000000000004000000000000000",
      "type": "0x2",
      "transactionHash": "0xd18ecc7f77b5760035652fd0e1a7b65aa045d28270ceb544ee74f8ce14b0885d",
      "transactionIndex": "0x83",
      "blockHash": "0xa804c103f46b65e2607a79e5917b4e008da324a4495da93049303fe16722ab9a",
      "blockNumber": "0xa0b478",
      "gasUsed": "0x215db",
      "effectiveGasPrice": "0x124f9c",
      "from": "0x5508532b027d57b020e6c0bedb1fe19a6d6c555c",
      "to": "0x82b78985fc07bc9868bed357a9dff0b710212f6e",
      "contractAddress": null
    },
    {
      "status": "0x1",
      "cumulativeGasUsed": "0x12e061c",
      "logs": [
        {
          "address": "0x94a9d9ac8a22534e3faca9f4e7f2e2cf85d5e4c8",
          "topics": [
            "0x8c5be1e5ebec7d5bd14f71427d1e84f3dd0314c0f7b2291e5b200ac8c7c3b925",
            "0x0000000000000000000000005508532b027d57b020e6c0bedb1fe19a6d6c555c",
            "0x00000000000000000000000082b78985fc07bc9868bed357a9dff0b710212f6e"
          ],
          "data": "0x0000000000000000000000000000000000000000000000000000000002faf080",
          "blockHash": "0xa804c103f46b65e2607a79e5917b4e008da324a4495da93049303fe16722ab9a",
          "blockNumber": "0xa0b478",
          "blockTimestamp": "0x69c657e4",
          "transactionHash": "0xc46a2f91e4d06e4a6963a03faa0736c6a5192f734ee7c3a8792660b30f8be1f2",
          "transactionIndex": "0x84",
          "logIndex": "0x3bf",
          "removed": false
        }
      ],
      "logsBloom": "0x00000000000000000000000000000000000000000000000000000000000000000000000000000000000000000000000000000000000000000000000000200001000000000000000000000000000000000000000000000000000008000000000000000000000000000000000000000000000000000000000000000000000000000000000000000000000000000000000000000000000000000000000000000000020000000100000000004000000000000000000000000000000000000000000000000000002000000000000000000000000200000000000004000000000000000010000000000000000002100000000000000000000000000000000000000000",
      "type": "0x2",
      "transactionHash": "0xc46a2f91e4d06e4a6963a03faa0736c6a5192f734ee7c3a8792660b30f8be1f2",
      "transactionIndex": "0x84",
      "blockHash": "0xa804c103f46b65e2607a79e5917b4e008da324a4495da93049303fe16722ab9a",
      "blockNumber": "0xa0b478",
      "gasUsed": "0xb493",
      "effectiveGasPrice": "0x124f9c",
      "from": "0x5508532b027d57b020e6c0bedb1fe19a6d6c555c",
      "to": "0x94a9d9ac8a22534e3faca9f4e7f2e2cf85d5e4c8",
      "contractAddress": null
    },
    {
      "status": "0x1",
      "cumulativeGasUsed": "0x12f63a1",
      "logs": [
        {
          "address": "0x94a9d9ac8a22534e3faca9f4e7f2e2cf85d5e4c8",
          "topics": [
            "0xddf252ad1be2c89b69c2b068fc378daa952ba7f163c4a11628f55a4df523b3ef",
            "0x0000000000000000000000005508532b027d57b020e6c0bedb1fe19a6d6c555c",
            "0x00000000000000000000000082b78985fc07bc9868bed357a9dff0b710212f6e"
          ],
          "data": "0x0000000000000000000000000000000000000000000000000000000002faf080",
          "blockHash": "0xa804c103f46b65e2607a79e5917b4e008da324a4495da93049303fe16722ab9a",
          "blockNumber": "0xa0b478",
          "blockTimestamp": "0x69c657e4",
          "transactionHash": "0xad0f1b3483815842275c5d1f1f6880034f9dbe1bb9e8189f756d42a8f34e6d9b",
          "transactionIndex": "0x85",
          "logIndex": "0x3c0",
          "removed": false
        },
        {
          "address": "0x94a9d9ac8a22534e3faca9f4e7f2e2cf85d5e4c8",
          "topics": [
            "0x8c5be1e5ebec7d5bd14f71427d1e84f3dd0314c0f7b2291e5b200ac8c7c3b925",
            "0x0000000000000000000000005508532b027d57b020e6c0bedb1fe19a6d6c555c",
            "0x00000000000000000000000082b78985fc07bc9868bed357a9dff0b710212f6e"
          ],
          "data": "0x0000000000000000000000000000000000000000000000000000000000000000",
          "blockHash": "0xa804c103f46b65e2607a79e5917b4e008da324a4495da93049303fe16722ab9a",
          "blockNumber": "0xa0b478",
          "blockTimestamp": "0x69c657e4",
          "transactionHash": "0xad0f1b3483815842275c5d1f1f6880034f9dbe1bb9e8189f756d42a8f34e6d9b",
          "transactionIndex": "0x85",
          "logIndex": "0x3c1",
          "removed": false
        },
        {
          "address": "0x82b78985fc07bc9868bed357a9dff0b710212f6e",
          "topics": [
            "0xab4d21442efe134c3d0c087e2b687e9593a1c09176f498d37873210cde052c45",
            "0x46226cefadc3df2d2ec09988c12224674225bdea4cd29532f085d9a0bc9aa8a4"
          ],
          "data": "0x0000000000000000000000000000000000000000000000000000000002faf0800000000000000000000000000000000000000000000000000000000000000000",
          "blockHash": "0xa804c103f46b65e2607a79e5917b4e008da324a4495da93049303fe16722ab9a",
          "blockNumber": "0xa0b478",
          "blockTimestamp": "0x69c657e4",
          "transactionHash": "0xad0f1b3483815842275c5d1f1f6880034f9dbe1bb9e8189f756d42a8f34e6d9b",
          "transactionIndex": "0x85",
          "logIndex": "0x3c2",
          "removed": false
        }
      ],
      "logsBloom": "0x00000000000000000000000000000000000000000000000000000000000000000000000000000000000000000000000000000000000000000000000000200001000000000000000000000008000000000000000000000010000008000000002000000100000000000000000008000000400000000000000000000010000000000000000000000000000000000000000000000000000000000000000001000000020000000100000000004000000000000000000000000000000000000000040000000002002000000000000000000000000200000000002004000000000000000010000000000000000002500000000000000000000000000000000000000000",
      "type": "0x2",
      "transactionHash": "0xad0f1b3483815842275c5d1f1f6880034f9dbe1bb9e8189f756d42a8f34e6d9b",
      "transactionIndex": "0x85",
      "blockHash": "0xa804c103f46b65e2607a79e5917b4e008da324a4495da93049303fe16722ab9a",
      "blockNumber": "0xa0b478",
      "gasUsed": "0x15d85",
      "effectiveGasPrice": "0x124f9c",
      "from": "0x5508532b027d57b020e6c0bedb1fe19a6d6c555c",
      "to": "0x82b78985fc07bc9868bed357a9dff0b710212f6e",
      "contractAddress": null
    },
    {
      "status": "0x1",
      "cumulativeGasUsed": "0x132eb66",
      "logs": [
        {
          "address": "0x6d165faa504fdc111a5dba6651546ffdc87bb8ab",
          "topics": [
            "0x330679fd747e96941721aac9e50c9eeff220dd18ab8e296d5d86f1169955df14",
            "0x46226cefadc3df2d2ec09988c12224674225bdea4cd29532f085d9a0bc9aa8a4",
            "0x0000000000000000000000005508532b027d57b020e6c0bedb1fe19a6d6c555c",
            "0x00000000000000000000000094a9d9ac8a22534e3faca9f4e7f2e2cf85d5e4c8"
          ],
          "data": "0x00000000000000000000000036b5de936ef1710e1d22eabe5231b28581a92ecc",
          "blockHash": "0xa804c103f46b65e2607a79e5917b4e008da324a4495da93049303fe16722ab9a",
          "blockNumber": "0xa0b478",
          "blockTimestamp": "0x69c657e4",
          "transactionHash": "0xc62d5c234fe544d2601d4347b91f12ebe60c040833855261bd1863be05a382cc",
          "transactionIndex": "0x86",
          "logIndex": "0x3c3",
          "removed": false
        },
        {
          "address": "0x6d165faa504fdc111a5dba6651546ffdc87bb8ab",
          "topics": [
            "0xb1b7af3632f49d5b19dbf83683fa7f25b3bb2b65bcaeed750857e79925bf1051",
            "0x46226cefadc3df2d2ec09988c12224674225bdea4cd29532f085d9a0bc9aa8a4"
          ],
          "data": "0x0000000000000000000000000000000000000000000000001b0fcaab943da382000000000000000000000000000000000000000000000000000000003b9ac9ff",
          "blockHash": "0xa804c103f46b65e2607a79e5917b4e008da324a4495da93049303fe16722ab9a",
          "blockNumber": "0xa0b478",
          "blockTimestamp": "0x69c657e4",
          "transactionHash": "0xc62d5c234fe544d2601d4347b91f12ebe60c040833855261bd1863be05a382cc",
          "transactionIndex": "0x86",
          "logIndex": "0x3c4",
          "removed": false
        }
      ],
      "logsBloom": "0x00100000000000000200000000000000000000000000000000000000040000000000000000002000000100400000000000000000000000000000000000000000000000000000000000000000000000000000000000000090000000000000000000000000000000000000000000000000000000000000000000000000000000000000000000040000000000000000000000000000000000000000000001000000000000000000000000000000000100000000000000000000000000000000040000000000000000000000000000000000000000000000020004000000000000000000000000000000000002100000000000000000000000000000000000000200",
      "type": "0x2",
      "transactionHash": "0xc62d5c234fe544d2601d4347b91f12ebe60c040833855261bd1863be05a382cc",
      "transactionIndex": "0x86",
      "blockHash": "0xa804c103f46b65e2607a79e5917b4e008da324a4495da93049303fe16722ab9a",
      "blockNumber": "0xa0b478",
      "gasUsed": "0x387c5",
      "effectiveGasPrice": "0x124f9c",
      "from": "0x5508532b027d57b020e6c0bedb1fe19a6d6c555c",
      "to": "0x6d165faa504fdc111a5dba6651546ffdc87bb8ab",
      "contractAddress": null
    },
    {
      "status": "0x1",
      "cumulativeGasUsed": "0x1339ff9",
      "logs": [
        {
          "address": "0x94a9d9ac8a22534e3faca9f4e7f2e2cf85d5e4c8",
          "topics": [
            "0x8c5be1e5ebec7d5bd14f71427d1e84f3dd0314c0f7b2291e5b200ac8c7c3b925",
            "0x0000000000000000000000005508532b027d57b020e6c0bedb1fe19a6d6c555c",
            "0x000000000000000000000000c6f2e814f9845fd9404585049af2147a35943cc6"
          ],
          "data": "0x00000000000000000000000000000000000000000000000000000000017d7840",
          "blockHash": "0xa804c103f46b65e2607a79e5917b4e008da324a4495da93049303fe16722ab9a",
          "blockNumber": "0xa0b478",
          "blockTimestamp": "0x69c657e4",
          "transactionHash": "0xad7a5c44a08b3eff919c67611e44b58c91b32e6fcaec3a567c12965df7c0ec96",
          "transactionIndex": "0x87",
          "logIndex": "0x3c5",
          "removed": false
        }
      ],
      "logsBloom": "0x00000000000000000000000000000000000000000000000000000000000000000001000000000000000000000000000000040000000000000000000000200000000000000000000000000000000000000000000000000000000008000000000000000000000000000000000000000000000000000000000000000000000000000200000000000000000000000000000000000000000000000000000000000000020000000100000000004000000000000000000000000000000000000000000000000000000000000000000000000000000000000000000004000000000000000010000000000000000002100000000000000000000000000000000000000000",
      "type": "0x2",
      "transactionHash": "0xad7a5c44a08b3eff919c67611e44b58c91b32e6fcaec3a567c12965df7c0ec96",
      "transactionIndex": "0x87",
      "blockHash": "0xa804c103f46b65e2607a79e5917b4e008da324a4495da93049303fe16722ab9a",
      "blockNumber": "0xa0b478",
      "gasUsed": "0xb493",
      "effectiveGasPrice": "0x124f9c",
      "from": "0x5508532b027d57b020e6c0bedb1fe19a6d6c555c",
      "to": "0x94a9d9ac8a22534e3faca9f4e7f2e2cf85d5e4c8",
      "contractAddress": null
    },
    {
      "status": "0x1",
      "cumulativeGasUsed": "0x1348825",
      "logs": [
        {
          "address": "0x94a9d9ac8a22534e3faca9f4e7f2e2cf85d5e4c8",
          "topics": [
            "0xddf252ad1be2c89b69c2b068fc378daa952ba7f163c4a11628f55a4df523b3ef",
            "0x0000000000000000000000005508532b027d57b020e6c0bedb1fe19a6d6c555c",
            "0x000000000000000000000000c6f2e814f9845fd9404585049af2147a35943cc6"
          ],
          "data": "0x00000000000000000000000000000000000000000000000000000000017d7840",
          "blockHash": "0xa804c103f46b65e2607a79e5917b4e008da324a4495da93049303fe16722ab9a",
          "blockNumber": "0xa0b478",
          "blockTimestamp": "0x69c657e4",
          "transactionHash": "0xc22ffa62121aa3725531241d8fe3a3b509c666ece3f5a332a9dadc585ccd0c60",
          "transactionIndex": "0x88",
          "logIndex": "0x3c6",
          "removed": false
        },
        {
          "address": "0x94a9d9ac8a22534e3faca9f4e7f2e2cf85d5e4c8",
          "topics": [
            "0x8c5be1e5ebec7d5bd14f71427d1e84f3dd0314c0f7b2291e5b200ac8c7c3b925",
            "0x0000000000000000000000005508532b027d57b020e6c0bedb1fe19a6d6c555c",
            "0x000000000000000000000000c6f2e814f9845fd9404585049af2147a35943cc6"
          ],
          "data": "0x0000000000000000000000000000000000000000000000000000000000000000",
          "blockHash": "0xa804c103f46b65e2607a79e5917b4e008da324a4495da93049303fe16722ab9a",
          "blockNumber": "0xa0b478",
          "blockTimestamp": "0x69c657e4",
          "transactionHash": "0xc22ffa62121aa3725531241d8fe3a3b509c666ece3f5a332a9dadc585ccd0c60",
          "transactionIndex": "0x88",
          "logIndex": "0x3c7",
          "removed": false
        },
        {
          "address": "0xc6f2e814f9845fd9404585049af2147a35943cc6",
          "topics": [
            "0xbb9e497a5b82d1a37f9496dd70c6efb97ba0d98c66c3422d05010105d0633598",
            "0x0000000000000000000000005508532b027d57b020e6c0bedb1fe19a6d6c555c"
          ],
          "data": "0x00000000000000000000000000000000000000000000000000000000017d7840",
          "blockHash": "0xa804c103f46b65e2607a79e5917b4e008da324a4495da93049303fe16722ab9a",
          "blockNumber": "0xa0b478",
          "blockTimestamp": "0x69c657e4",
          "transactionHash": "0xc22ffa62121aa3725531241d8fe3a3b509c666ece3f5a332a9dadc585ccd0c60",
          "transactionIndex": "0x88",
          "logIndex": "0x3c8",
          "removed": false
        }
      ],
      "logsBloom": "0x00000000000000000000000000000000000000000000000000000000000000000001000000000000000000000000000000040000000000000000000000200000000000000000000000000008000000000000000000000000000008000000000000000000000000000000000000000000040000000000000000000010000000010200000000000000000000008000000000000000000000000000000000000000020000001100000000004000000000000000000000000000200000000000000000000002000000000000000000000000000001000000000004000000000000000010000000000000000002100000000000000000000000000000000000000000",
      "type": "0x2",
      "transactionHash": "0xc22ffa62121aa3725531241d8fe3a3b509c666ece3f5a332a9dadc585ccd0c60",
      "transactionIndex": "0x88",
      "blockHash": "0xa804c103f46b65e2607a79e5917b4e008da324a4495da93049303fe16722ab9a",
      "blockNumber": "0xa0b478",
      "gasUsed": "0xe82c",
      "effectiveGasPrice": "0x124f9c",
      "from": "0x5508532b027d57b020e6c0bedb1fe19a6d6c555c",
      "to": "0xc6f2e814f9845fd9404585049af2147a35943cc6",
      "contractAddress": null
    },
    {
      "status": "0x1",
      "cumulativeGasUsed": "0x1415055",
      "logs": [],
      "logsBloom": "0x00000000000000000000000000000000000000000000000000000000000000000000000000000000000000000000000000000000000000000000000000000000000000000000000000000000000000000000000000000000000000000000000000000000000000000000000000000000000000000000000000000000000000000000000000000000000000000000000000000000000000000000000000000000000000000000000000000000000000000000000000000000000000000000000000000000000000000000000000000000000000000000000000000000000000000000000000000000000000000000000000000000000000000000000000000000",
      "type": "0x2",
      "transactionHash": "0x7d1173a943d99d8a89acc76206b64dd5d464d1ee9b888733be84578f12084e20",
      "transactionIndex": "0x8a",
      "blockHash": "0xa804c103f46b65e2607a79e5917b4e008da324a4495da93049303fe16722ab9a",
      "blockNumber": "0xa0b478",
      "gasUsed": "0x115d1",
      "effectiveGasPrice": "0x124f9c",
      "from": "0x5508532b027d57b020e6c0bedb1fe19a6d6c555c",
      "to": "0xc9f36411c9897e7f959d99ffca2a0ba7ee0d7bda",
      "contractAddress": null
    },
    {
      "status": "0x1",
      "cumulativeGasUsed": "0x1426626",
      "logs": [],
      "logsBloom": "0x00000000000000000000000000000000000000000000000000000000000000000000000000000000000000000000000000000000000000000000000000000000000000000000000000000000000000000000000000000000000000000000000000000000000000000000000000000000000000000000000000000000000000000000000000000000000000000000000000000000000000000000000000000000000000000000000000000000000000000000000000000000000000000000000000000000000000000000000000000000000000000000000000000000000000000000000000000000000000000000000000000000000000000000000000000000",
      "type": "0x2",
      "transactionHash": "0xe0bd64caf1fe20106cce3536312f8999a4f43616eeae6c34c4348d7520051635",
      "transactionIndex": "0x8b",
      "blockHash": "0xa804c103f46b65e2607a79e5917b4e008da324a4495da93049303fe16722ab9a",
      "blockNumber": "0xa0b478",
      "gasUsed": "0x115d1",
      "effectiveGasPrice": "0x124f9c",
      "from": "0x5508532b027d57b020e6c0bedb1fe19a6d6c555c",
      "to": "0xc9f36411c9897e7f959d99ffca2a0ba7ee0d7bda",
      "contractAddress": null
    },
    {
      "status": "0x1",
      "cumulativeGasUsed": "0x1437bf7",
      "logs": [],
      "logsBloom": "0x00000000000000000000000000000000000000000000000000000000000000000000000000000000000000000000000000000000000000000000000000000000000000000000000000000000000000000000000000000000000000000000000000000000000000000000000000000000000000000000000000000000000000000000000000000000000000000000000000000000000000000000000000000000000000000000000000000000000000000000000000000000000000000000000000000000000000000000000000000000000000000000000000000000000000000000000000000000000000000000000000000000000000000000000000000000",
      "type": "0x2",
      "transactionHash": "0x6910b3c3fd3fd1310781d0078c80bff3fdcee71f96ae4aa5be752834b8a2dcbb",
      "transactionIndex": "0x8c",
      "blockHash": "0xa804c103f46b65e2607a79e5917b4e008da324a4495da93049303fe16722ab9a",
      "blockNumber": "0xa0b478",
      "gasUsed": "0x115d1",
      "effectiveGasPrice": "0x124f9c",
      "from": "0x5508532b027d57b020e6c0bedb1fe19a6d6c555c",
      "to": "0xc9f36411c9897e7f959d99ffca2a0ba7ee0d7bda",
      "contractAddress": null
    }
  ],
  "libraries": [],
  "pending": [],
  "returns": {},
  "timestamp": 1774606310,
  "chain": 11155111,
  "commit": "a782da8"
}