{
  "transactions": [
    {
      "hash": "0x34a68a306552d037160295bb954085f9b108c86b40b7e311205bee285aac40d8",
      "transactionType": "CALL",
      "contractName": null,
      "contractAddress": "0xc959483dba39aa9e78757139af0e9a2edeb3f42d",
      "function": "mint(address,address,uint256)",
      "arguments": [
        "0xf8Fb3713D459D7C1018BD0A49D19b4C44290EBE5",
        "0x4b3f725984D30eA7E8a4092a4Bf684B97B99370C",
        "100000000000000000000"
      ],
      "transaction": {
        "from": "0x4b3f725984d30ea7e8a4092a4bf684b97b99370c",
        "to": "0xc959483dba39aa9e78757139af0e9a2edeb3f42d",
        "gas": "0x1530b",
        "value": "0x0",
        "input": "0xc6c3bbe6000000000000000000000000f8fb3713d459d7c1018bd0a49d19b4c44290ebe50000000000000000000000004b3f725984d30ea7e8a4092a4bf684b97b99370c0000000000000000000000000000000000000000000000056bc75e2d63100000",
        "nonce": "0x3",
        "chainId": "0xaa36a7"
      },
      "additionalContracts": [],
      "isFixedGasLimit": false
    },
    {
      "hash": "0x9078e5e141ce19a89c6fefa759b823ef3681ba1bf281cac7b9e6c048eee068e3",
      "transactionType": "CALL",
      "contractName": null,
      "contractAddress": "0xc959483dba39aa9e78757139af0e9a2edeb3f42d",
      "function": "mint(address,address,uint256)",
      "arguments": [
        "0x94a9D9AC8a22534E3FaCa9F4e7F2E2cf85d5E4C8",
        "0x4b3f725984D30eA7E8a4092a4Bf684B97B99370C",
        "300000000"
      ],
      "transaction": {
        "from": "0x4b3f725984d30ea7e8a4092a4bf684b97b99370c",
        "to": "0xc959483dba39aa9e78757139af0e9a2edeb3f42d",
        "gas": "0x152c9",
        "value": "0x0",
        "input": "0xc6c3bbe600000000000000000000000094a9d9ac8a22534e3faca9f4e7f2e2cf85d5e4c80000000000000000000000004b3f725984d30ea7e8a4092a4bf684b97b99370c0000000000000000000000000000000000000000000000000000000011e1a300",
        "nonce": "0x4",
        "chainId": "0xaa36a7"
      },
      "additionalContracts": [],
      "isFixedGasLimit": false
    },
    {
      "hash": "0xbd77a0ed7ce4f38948cf32d6ad55e043673b97474575fcc052201805f15221fa",
      "transactionType": "CALL",
      "contractName": null,
      "contractAddress": "0xf8fb3713d459d7c1018bd0a49d19b4c44290ebe5",
      "function": "approve(address,uint256)",
      "arguments": [
        "0x6Ae43d3271ff6888e7Fc43Fd7321a503ff738951",
        "100000000000000000000"
      ],
      "transaction": {
        "from": "0x4b3f725984d30ea7e8a4092a4bf684b97b99370c",
        "to": "0xf8fb3713d459d7c1018bd0a49d19b4c44290ebe5",
        "gas": "0xf99c",
        "value": "0x0",
        "input": "0x095ea7b30000000000000000000000006ae43d3271ff6888e7fc43fd7321a503ff7389510000000000000000000000000000000000000000000000056bc75e2d63100000",
        "nonce": "0x5",
        "chainId": "0xaa36a7"
      },
      "additionalContracts": [],
      "isFixedGasLimit": false
    },
    {
      "hash": "0x2e88a01be4c4e14759101b51203f670e4eb149ef39d642b214ee0067448beae5",
      "transactionType": "CALL",
      "contractName": null,
      "contractAddress": "0x6ae43d3271ff6888e7fc43fd7321a503ff738951",
      "function": "supply(address,uint256,address,uint16)",
      "arguments": [
        "0xf8Fb3713D459D7C1018BD0A49D19b4C44290EBE5",
        "100000000000000000000",
        "0x4b3f725984D30eA7E8a4092a4Bf684B97B99370C",
        "0"
      ],
      "transaction": {
        "from": "0x4b3f725984d30ea7e8a4092a4bf684b97b99370c",
        "to": "0x6ae43d3271ff6888e7fc43fd7321a503ff738951",
        "gas": "0x43e75",
        "value": "0x0",
        "input": "0x617ba037000000000000000000000000f8fb3713d459d7c1018bd0a49d19b4c44290ebe50000000000000000000000000000000000000000000000056bc75e2d631000000000000000000000000000004b3f725984d30ea7e8a4092a4bf684b97b99370c0000000000000000000000000000000000000000000000000000000000000000",
        "nonce": "0x6",
        "chainId": "0xaa36a7"
      },
      "additionalContracts": [],
      "isFixedGasLimit": false
    },
    {
      "hash": "0x3f93b57ca6937098f9faaa281a7ece9a8ea577af2c7441e42662e9232c93ea0c",
      "transactionType": "CALL",
      "contractName": null,
      "contractAddress": "0x6ae43d3271ff6888e7fc43fd7321a503ff738951",
      "function": "borrow(address,uint256,uint256,uint16,address)",
      "arguments": [
        "0x94a9D9AC8a22534E3FaCa9F4e7F2E2cf85d5E4C8",
        "1000000000",
        "2",
        "0",
        "0x4b3f725984D30eA7E8a4092a4Bf684B97B99370C"
      ],
      "transaction": {
        "from": "0x4b3f725984d30ea7e8a4092a4bf684b97b99370c",
        "to": "0x6ae43d3271ff6888e7fc43fd7321a503ff738951",
        "gas": "0x5432d",
        "value": "0x0",
        "input": "0xa415bcad00000000000000000000000094a9d9ac8a22534e3faca9f4e7f2e2cf85d5e4c8000000000000000000000000000000000000000000000000000000003b9aca00000000000000000000000000000000000000000000000000000000000000000200000000000000000000000000000000000000000000000000000000000000000000000000000000000000004b3f725984d30ea7e8a4092a4bf684b97b99370c",
        "nonce": "0x7",
        "chainId": "0xaa36a7"
      },
      "additionalContracts": [],
      "isFixedGasLimit": false
    },
    {
      "hash": "0xf4e373dd8ca535f445268c265a87cd52fe970b518332d58ccf4ca2fbfd4b90ca",
      "transactionType": "CALL",
      "contractName": null,
      "contractAddress": "0xa33df4fe1bee85588a94b4efca72b8ce6808aeda",
      "function": "configureProtection(bytes32,uint256,uint256,uint256)",
      "arguments": [
        "0xa2fb3187aa2eaf894d515c7a93f49d6c1eaa15f13837b8776f382b1423c93dba",
        "1150000000000000000",
        "100000000",
        "25"
      ],
      "transaction": {
        "from": "0x4b3f725984d30ea7e8a4092a4bf684b97b99370c",
        "to": "0xa33df4fe1bee85588a94b4efca72b8ce6808aeda",
        "gas": "0x2e151",
        "value": "0x0",
        "input": "0xc6c5bea7a2fb3187aa2eaf894d515c7a93f49d6c1eaa15f13837b8776f382b1423c93dba0000000000000000000000000000000000000000000000000ff59ee833b300000000000000000000000000000000000000000000000000000000000005f5e1000000000000000000000000000000000000000000000000000000000000000019",
        "nonce": "0x8",
        "chainId": "0xaa36a7"
      },
      "additionalContracts": [],
      "isFixedGasLimit": false
    },
    {
      "hash": "0xa42e551c2c3b6ef43cc32df728f8626a0fb7af55bc17e99c144cfadd867a1a80",
      "transactionType": "CALL",
      "contractName": null,
      "contractAddress": "0x94a9d9ac8a22534e3faca9f4e7f2e2cf85d5e4c8",
      "function": "approve(address,uint256)",
      "arguments": [
        "0xA33Df4fE1bee85588A94b4EFCa72B8cE6808Aeda",
        "200000000"
      ],
      "transaction": {
        "from": "0x4b3f725984d30ea7e8a4092a4bf684b97b99370c",
        "to": "0x94a9d9ac8a22534e3faca9f4e7f2e2cf85d5e4c8",
        "gas": "0xf959",
        "value": "0x0",
        "input": "0x095ea7b3000000000000000000000000a33df4fe1bee85588a94b4efca72b8ce6808aeda000000000000000000000000000000000000000000000000000000000bebc200",
        "nonce": "0x9",
        "chainId": "0xaa36a7"
      },
      "additionalContracts": [],
      "isFixedGasLimit": false
    },
    {
      "hash": "0x93873365ed4f82f03612ded670581ef9e2b42f35842ab0452f674a0d15535cf0",
      "transactionType": "CALL",
      "contractName": null,
      "contractAddress": "0xa33df4fe1bee85588a94b4efca72b8ce6808aeda",
      "function": "depositReserve(bytes32,uint256)",
      "arguments": [
        "0xa2fb3187aa2eaf894d515c7a93f49d6c1eaa15f13837b8776f382b1423c93dba",
        "200000000"
      ],
      "transaction": {
        "from": "0x4b3f725984d30ea7e8a4092a4bf684b97b99370c",
        "to": "0xa33df4fe1bee85588a94b4efca72b8ce6808aeda",
        "gas": "0x1ff1a",
        "value": "0x0",
        "input": "0xf1ede7f4a2fb3187aa2eaf894d515c7a93f49d6c1eaa15f13837b8776f382b1423c93dba000000000000000000000000000000000000000000000000000000000bebc200",
        "nonce": "0xa",
        "chainId": "0xaa36a7"
      },
      "additionalContracts": [],
      "isFixedGasLimit": false
    },
    {
      "hash": "0x2e70a67c7bf98a544c571c698f0660575a38ed7a6083977b312635ef8e3e53cf",
      "transactionType": "CALL",
      "contractName": null,
      "contractAddress": "0x3cc147b897b4e57b201e71a75e403b52a7da04b0",
      "function": "configurePosition(bytes32,address,address,address)",
      "arguments": [
        "0xa2fb3187aa2eaf894d515c7a93f49d6c1eaa15f13837b8776f382b1423c93dba",
        "0x4b3f725984D30eA7E8a4092a4Bf684B97B99370C",
        "0x94a9D9AC8a22534E3FaCa9F4e7F2E2cf85d5E4C8",
        "0x36B5dE936eF1710E1d22EabE5231b28581a92ECc"
      ],
      "transaction": {
        "from": "0x4b3f725984d30ea7e8a4092a4bf684b97b99370c",
        "to": "0x3cc147b897b4e57b201e71a75e403b52a7da04b0",
        "gas": "0x4e054",
        "value": "0x0",
        "input": "0x11090db7a2fb3187aa2eaf894d515c7a93f49d6c1eaa15f13837b8776f382b1423c93dba0000000000000000000000004b3f725984d30ea7e8a4092a4bf684b97b99370c00000000000000000000000094a9d9ac8a22534e3faca9f4e7f2e2cf85d5e4c800000000000000000000000036b5de936ef1710e1d22eabe5231b28581a92ecc",
        "nonce": "0xb",
        "chainId": "0xaa36a7"
      },
      "additionalContracts": [],
      "isFixedGasLimit": false
    },
    {
      "hash": "0x9f028f213575449fd62dd6db179ae15b94eef410d901954127349ab9550dfc95",
      "transactionType": "CALL",
      "contractName": null,
      "contractAddress": "0x94a9d9ac8a22534e3faca9f4e7f2e2cf85d5e4c8",
      "function": "approve(address,uint256)",
      "arguments": [
        "0xaAb5Bc6118d40af31de383C0d271194614af9476",
        "100000000"
      ],
      "transaction": {
        "from": "0x4b3f725984d30ea7e8a4092a4bf684b97b99370c",
        "to": "0x94a9d9ac8a22534e3faca9f4e7f2e2cf85d5e4c8",
        "gas": "0xf959",
        "value": "0x0",
        "input": "0x095ea7b3000000000000000000000000aab5bc6118d40af31de383c0d271194614af94760000000000000000000000000000000000000000000000000000000005f5e100",
        "nonce": "0xc",
        "chainId": "0xaa36a7"
      },
      "additionalContracts": [],
      "isFixedGasLimit": false
    },
    {
      "hash": "0x92da717ea6cc67bbf17b10fbd270559a29d6d91224d85354aae82144c325abb3",
      "transactionType": "CALL",
      "contractName": null,
      "contractAddress": "0xaab5bc6118d40af31de383c0d271194614af9476",
      "function": "fundLiquidity(uint256)",
      "arguments": [
        "100000000"
      ],
      "transaction": {
        "from": "0x4b3f725984d30ea7e8a4092a4bf684b97b99370c",
        "to": "0xaab5bc6118d40af31de383c0d271194614af9476",
        "gas": "0x1409f",
        "value": "0x0",
        "input": "0xf0f437b60000000000000000000000000000000000000000000000000000000005f5e100",
        "nonce": "0xd",
        "chainId": "0xaa36a7"
      },
      "additionalContracts": [],
      "isFixedGasLimit": false
    },
    {
      "hash": "0x6b28c82bbecdf84dcdbe3b7f373858919afc97202b66582f22586a8aaf5d21a0",
      "transactionType": "CALL",
      "contractName": null,
      "contractAddress": "0xc9f36411c9897e7f959d99ffca2a0ba7ee0d7bda",
      "function": "depositTo(address)",
      "arguments": [
        "0xA33Df4fE1bee85588A94b4EFCa72B8cE6808Aeda"
      ],
      "transaction": {
        "from": "0x4b3f725984d30ea7e8a4092a4bf684b97b99370c",
        "to": "0xc9f36411c9897e7f959d99ffca2a0ba7ee0d7bda",
        "gas": "0x1964e",
        "value": "0xaa87bee538000",
        "input": "0xb760faf9000000000000000000000000a33df4fe1bee85588a94b4efca72b8ce6808aeda",
        "nonce": "0xe",
        "chainId": "0xaa36a7"
      },
      "additionalContracts": [],
      "isFixedGasLimit": false
    },
    {
      "hash": "0xbc8bdf2e951d6bc6607086f424b6f9b50ea4f46fce83c163ccd2510226dd0176",
      "transactionType": "CALL",
      "contractName": null,
      "contractAddress": "0xc9f36411c9897e7f959d99ffca2a0ba7ee0d7bda",
      "function": "depositTo(address)",
      "arguments": [
        "0x3cc147B897B4e57b201e71A75E403B52a7dA04b0"
      ],
      "transaction": {
        "from": "0x4b3f725984d30ea7e8a4092a4bf684b97b99370c",
        "to": "0xc9f36411c9897e7f959d99ffca2a0ba7ee0d7bda",
        "gas": "0x1964e",
        "value": "0xaa87bee538000",
        "input": "0xb760faf90000000000000000000000003cc147b897b4e57b201e71a75e403b52a7da04b0",
        "nonce": "0xf",
        "chainId": "0xaa36a7"
      },
      "additionalContracts": [],
      "isFixedGasLimit": false
    },
    {
      "hash": "0xe9b93be3332d81af721c8a32083fa10566a02ed7ec9c6dd6992ec136a133a3e2",
      "transactionType": "CALL",
      "contractName": null,
      "contractAddress": "0xc9f36411c9897e7f959d99ffca2a0ba7ee0d7bda",
      "function": "depositTo(address)",
      "arguments": [
        "0xaAb5Bc6118d40af31de383C0d271194614af9476"
      ],
      "transaction": {
        "from": "0x4b3f725984d30ea7e8a4092a4bf684b97b99370c",
        "to": "0xc9f36411c9897e7f959d99ffca2a0ba7ee0d7bda",
        "gas": "0x1964e",
        "value": "0xaa87bee538000",
        "input": "0xb760faf9000000000000000000000000aab5bc6118d40af31de383c0d271194614af9476",
        "nonce": "0x10",
        "chainId": "0xaa36a7"
      },
      "additionalContracts": [],
      "isFixedGasLimit": false
    }
  ],
  "receipts": [
    {
      "status": "0x1",
      "cumulativeGasUsed": "0xd3d5a6",
      "logs": [
        {
          "address": "0xf8fb3713d459d7c1018bd0a49d19b4c44290ebe5",
          "topics": [
            "0xddf252ad1be2c89b69c2b068fc378daa952ba7f163c4a11628f55a4df523b3ef",
            "0x0000000000000000000000000000000000000000000000000000000000000000",
            "0x0000000000000000000000004b3f725984d30ea7e8a4092a4bf684b97b99370c"
          ],
          "data": "0x0000000000000000000000000000000000000000000000056bc75e2d63100000",
          "blockHash": "0x79da37a75b1bc92bed4d8f22143fc5b5d4854e4fb35ba1e722c27478fe126601",
          "blockNumber": "0xa0b5cf",
          "blockTimestamp": "0x69c668d0",
          "transactionHash": "0x34a68a306552d037160295bb954085f9b108c86b40b7e311205bee285aac40d8",
          "transactionIndex": "0x6e",
          "logIndex": "0x256",
          "removed": false
        }
      ],
      "logsBloom": "0x00000000000000000000000000000000000000000000000000000000000000800000000000000000000000000000000000000000000000020000000000000000000000000000000000000008000000000000000000000000000000000000000000000000020000000000000000000c00000000000000000000010010000000000000000000000000000000000000000000000000000000000200000000000000040000000000000000000000000000000000000000000000000000000000000000000002000000000000000000000000000000000000000000000000000020000000000000000000000000000000000000000000000000000000000000000000",
      "type": "0x2",
      "transactionHash": "0x34a68a306552d037160295bb954085f9b108c86b40b7e311205bee285aac40d8",
      "transactionIndex": "0x6e",
      "blockHash": "0x79da37a75b1bc92bed4d8f22143fc5b5d4854e4fb35ba1e722c27478fe126601",
      "blockNumber": "0xa0b5cf",
      "gasUsed": "0xf577",
      "effectiveGasPrice": "0xf4256",
      "from": "0x4b3f725984d30ea7e8a4092a4bf684b97b99370c",
      "to": "0xc959483dba39aa9e78757139af0e9a2edeb3f42d",
      "contractAddress": null
    },
    {
      "status": "0x1",
      "cumulativeGasUsed": "0xdc735f",
      "logs": [
        {
          "address": "0x94a9d9ac8a22534e3faca9f4e7f2e2cf85d5e4c8",
          "topics": [
            "0xddf252ad1be2c89b69c2b068fc378daa952ba7f163c4a11628f55a4df523b3ef",
            "0x0000000000000000000000000000000000000000000000000000000000000000",
            "0x0000000000000000000000004b3f725984d30ea7e8a4092a4bf684b97b99370c"
          ],
          "data": "0x0000000000000000000000000000000000000000000000000000000011e1a300",
          "blockHash": "0x79da37a75b1bc92bed4d8f22143fc5b5d4854e4fb35ba1e722c27478fe126601",
          "blockNumber": "0xa0b5cf",
          "blockTimestamp": "0x69c668d0",
          "transactionHash": "0x9078e5e141ce19a89c6fefa759b823ef3681ba1bf281cac7b9e6c048eee068e3",
          "transactionIndex": "0x70",
          "logIndex": "0x258",
          "removed": false
        }
      ],
      "logsBloom": "0x00000000000000000000000000000000000000000000000000000000000000000000000000000000000000000000000000000000000000000000000000000000000000000000000000000008000000000000000000000000000008000000000000000000020000000000000000000800000000000000000000010010000000000000000000000000000000000000000000000000000000000200000000000000040000000100000000004000000000000000000000000000000000000000000000000002000000000000000000000000000000000000000000000000000020000000000000000000000000000000000000000000000000000000000000000000",
      "type": "0x2",
      "transactionHash": "0x9078e5e141ce19a89c6fefa759b823ef3681ba1bf281cac7b9e6c048eee068e3",
      "transactionIndex": "0x70",
      "blockHash": "0x79da37a75b1bc92bed4d8f22143fc5b5d4854e4fb35ba1e722c27478fe126601",
      "blockNumber": "0xa0b5cf",
      "gasUsed": "0xf547",
      "effectiveGasPrice": "0xf4256",
      "from": "0x4b3f725984d30ea7e8a4092a4bf684b97b99370c",
      "to": "0xc959483dba39aa9e78757139af0e9a2edeb3f42d",
      "contractAddress": null
    },
    {
      "status": "0x1",
      "cumulativeGasUsed": "0xdd2816",
      "logs": [
        {
          "address": "0xf8fb3713d459d7c1018bd0a49d19b4c44290ebe5",
          "topics": [
            "0x8c5be1e5ebec7d5bd14f71427d1e84f3dd0314c0f7b2291e5b200ac8c7c3b925",
            "0x0000000000000000000000004b3f725984d30ea7e8a4092a4bf684b97b99370c",
            "0x0000000000000000000000006ae43d3271ff6888e7fc43fd7321a503ff738951"
          ],
          "data": "0x0000000000000000000000000000000000000000000000056bc75e2d63100000",
          "blockHash": "0x79da37a75b1bc92bed4d8f22143fc5b5d4854e4fb35ba1e722c27478fe126601",
          "blockNumber": "0xa0b5cf",
          "blockTimestamp": "0x69c668d0",
          "transactionHash": "0xbd77a0ed7ce4f38948cf32d6ad55e043673b97474575fcc052201805f15221fa",
          "transactionIndex": "0x71",
          "logIndex": "0x259",
          "removed": false
        }
      ],
      "logsBloom": "0x00000000000000000000000000000000000000000000000000000000000000800000000000000000000000000000000000040000000000020000000000200000000000000000000000000000000000000000000000000000000000000000200000000000000000000000000000000400000000000000000000010000000000002000000000000000000000000000000000000000000000000200000000000000060000000000000000000000000000000000000000000000000000000000000000000000000000000000000000000000000000000000000000000000000000000010000000000000000000000000000000000000000000000000000000000000",
      "type": "0x2",
      "transactionHash": "0xbd77a0ed7ce4f38948cf32d6ad55e043673b97474575fcc052201805f15221fa",
      "transactionIndex": "0x71",
      "blockHash": "0x79da37a75b1bc92bed4d8f22143fc5b5d4854e4fb35ba1e722c27478fe126601",
      "blockNumber": "0xa0b5cf",
      "gasUsed": "0xb4b7",
      "effectiveGasPrice": "0xf4256",
      "from": "0x4b3f725984d30ea7e8a4092a4bf684b97b99370c",
      "to": "0xf8fb3713d459d7c1018bd0a49d19b4c44290ebe5",
      "contractAddress": null
    },
    {
      "status": "0x1",
      "cumulativeGasUsed": "0xe03aaa",
      "logs": [
        {
          "address": "0x6ae43d3271ff6888e7fc43fd7321a503ff738951",
          "topics": [
            "0x804c9b842b2748a22bb64b345453a3de7ca54a6ca45ce00d415894979e22897a",
            "0x000000000000000000000000f8fb3713d459d7c1018bd0a49d19b4c44290ebe5"
          ],
          "data": "0x000000000000000000000000000000000000000006a738745bde244171b23b2700000000000000000000000000000000000000000924b1a9577a1a1b0263f42c000000000000000000000000000000000000000008da3f6b90c60e906863f42c00000000000000000000000000000000000000002cdb4d1dc1729383a2354d4700000000000000000000000000000000000000008fa202d708edf651c6571934",
          "blockHash": "0x79da37a75b1bc92bed4d8f22143fc5b5d4854e4fb35ba1e722c27478fe126601",
          "blockNumber": "0xa0b5cf",
          "blockTimestamp": "0x69c668d0",
          "transactionHash": "0x2e88a01be4c4e14759101b51203f670e4eb149ef39d642b214ee0067448beae5",
          "transactionIndex": "0x72",
          "logIndex": "0x25a",
          "removed": false
        },
        {
          "address": "0xf8fb3713d459d7c1018bd0a49d19b4c44290ebe5",
          "topics": [
            "0xddf252ad1be2c89b69c2b068fc378daa952ba7f163c4a11628f55a4df523b3ef",
            "0x0000000000000000000000004b3f725984d30ea7e8a4092a4bf684b97b99370c",
            "0x0000000000000000000000003ffaf50d4f4e96eb78f2407c090b72e86ecaed24"
          ],
          "data": "0x0000000000000000000000000000000000000000000000056bc75e2d63100000",
          "blockHash": "0x79da37a75b1bc92bed4d8f22143fc5b5d4854e4fb35ba1e722c27478fe126601",
          "blockNumber": "0xa0b5cf",
          "blockTimestamp": "0x69c668d0",
          "transactionHash": "0x2e88a01be4c4e14759101b51203f670e4eb149ef39d642b214ee0067448beae5",
          "transactionIndex": "0x72",
          "logIndex": "0x25b",
          "removed": false
        },
        {
          "address": "0xf8fb3713d459d7c1018bd0a49d19b4c44290ebe5",
          "topics": [
            "0x8c5be1e5ebec7d5bd14f71427d1e84f3dd0314c0f7b2291e5b200ac8c7c3b925",
            "0x0000000000000000000000004b3f725984d30ea7e8a4092a4bf684b97b99370c",
            "0x0000000000000000000000006ae43d3271ff6888e7fc43fd7321a503ff738951"
          ],
          "data": "0x0000000000000000000000000000000000000000000000000000000000000000",
          "blockHash": "0x79da37a75b1bc92bed4d8f22143fc5b5d4854e4fb35ba1e722c27478fe126601",
          "blockNumber": "0xa0b5cf",
          "blockTimestamp": "0x69c668d0",
          "transactionHash": "0x2e88a01be4c4e14759101b51203f670e4eb149ef39d642b214ee0067448beae5",
          "transactionIndex": "0x72",
          "logIndex": "0x25c",
          "removed": false
        },
        {
          "address": "0x3ffaf50d4f4e96eb78f2407c090b72e86ecaed24",
          "topics": [
            "0xddf252ad1be2c89b69c2b068fc378daa952ba7f163c4a11628f55a4df523b3ef",
            "0x0000000000000000000000000000000000000000000000000000000000000000",
            "0x0000000000000000000000004b3f725984d30ea7e8a4092a4bf684b97b99370c"
          ],
          "data": "0x0000000000000000000000000000000000000000000000056bc75e2d63100000",
          "blockHash": "0x79da37a75b1bc92bed4d8f22143fc5b5d4854e4fb35ba1e722c27478fe126601",
          "blockNumber": "0xa0b5cf",
          "blockTimestamp": "0x69c668d0",
          "transactionHash": "0x2e88a01be4c4e14759101b51203f670e4eb149ef39d642b214ee0067448beae5",
          "transactionIndex": "0x72",
          "logIndex": "0x25d",
          "removed": false
        },
        {
          "address": "0x3ffaf50d4f4e96eb78f2407c090b72e86ecaed24",
          "topics": [
            "0x458f5fa412d0f69b08dd84872b0215675cc67bc1d5b6fd93300a1c3878b86196",
            "0x0000000000000000000000004b3f725984d30ea7e8a4092a4bf684b97b99370c",
            "0x0000000000000000000000004b3f725984d30ea7e8a4092a4bf684b97b99370c"
          ],
          "data": "0x0000000000000000000000000000000000000000000000056bc75e2d63100000000000000000000000000000000000000000000000000000000000000000000000000000000000000000000000000000000000002cdb4d1dc1729383a2354d47",
          "blockHash": "0x79da37a75b1bc92bed4d8f22143fc5b5d4854e4fb35ba1e722c27478fe126601",
          "blockNumber": "0xa0b5cf",
          "blockTimestamp": "0x69c668d0",
          "transactionHash": "0x2e88a01be4c4e14759101b51203f670e4eb149ef39d642b214ee0067448beae5",
          "transactionIndex": "0x72",
          "logIndex": "0x25e",
          "removed": false
        },
        {
          "address": "0x6ae43d3271ff6888e7fc43fd7321a503ff738951",
          "topics": [
            "0x00058a56ea94653cdf4f152d227ace22d4c00ad99e2a43f58cb7d9e3feb295f2",
            "0x000000000000000000000000f8fb3713d459d7c1018bd0a49d19b4c44290ebe5",
            "0x0000000000000000000000004b3f725984d30ea7e8a4092a4bf684b97b99370c"
          ],
          "data": "0x",
          "blockHash": "0x79da37a75b1bc92bed4d8f22143fc5b5d4854e4fb35ba1e722c27478fe126601",
          "blockNumber": "0xa0b5cf",
          "blockTimestamp": "0x69c668d0",
          "transactionHash": "0x2e88a01be4c4e14759101b51203f670e4eb149ef39d642b214ee0067448beae5",
          "transactionIndex": "0x72",
          "logIndex": "0x25f",
          "removed": false
        },
        {
          "address": "0x6ae43d3271ff6888e7fc43fd7321a503ff738951",
          "topics": [
            "0x2b627736bca15cd5381dcf80b0bf11fd197d01a037c52b927a881a10fb73ba61",
            "0x000000000000000000000000f8fb3713d459d7c1018bd0a49d19b4c44290ebe5",
            "0x0000000000000000000000004b3f725984d30ea7e8a4092a4bf684b97b99370c",
            "0x0000000000000000000000000000000000000000000000000000000000000000"
          ],
          "data": "0x0000000000000000000000004b3f725984d30ea7e8a4092a4bf684b97b99370c0000000000000000000000000000000000000000000000056bc75e2d63100000",
          "blockHash": "0x79da37a75b1bc92bed4d8f22143fc5b5d4854e4fb35ba1e722c27478fe126601",
          "blockNumber": "0xa0b5cf",
          "blockTimestamp": "0x69c668d0",
          "transactionHash": "0x2e88a01be4c4e14759101b51203f670e4eb149ef39d642b214ee0067448beae5",
          "transactionIndex": "0x72",
          "logIndex": "0x260",
          "removed": false
        }
      ],
      "logsBloom": "0x00020000000008000080000000000000000000000000000000000000000000800000000000000000000000000004000000040000002000020000000000200000000000000000000000000008000000000000000000000000000000040000200000000000020000000000001000000c00000000000000000008010010400000002000008081000000000000000000000000200000000000000200000000000000060000000000020000000000000000000000000000000000000000000000010002000002000000000000002040000000004000000000000000000000000020000010000000000000000000000000000040000000000800000000400001000000",
      "type": "0x2",
      "transactionHash": "0x2e88a01be4c4e14759101b51203f670e4eb149ef39d642b214ee0067448beae5",
      "transactionIndex": "0x72",
      "blockHash": "0x79da37a75b1bc92bed4d8f22143fc5b5d4854e4fb35ba1e722c27478fe126601",
      "blockNumber": "0xa0b5cf",
      "gasUsed": "0x31294",
      "effectiveGasPrice": "0xf4256",
      "from": "0x4b3f725984d30ea7e8a4092a4bf684b97b99370c",
      "to": "0x6ae43d3271ff6888e7fc43fd7321a503ff738951",
      "contractAddress": null
    },
    {
      "status": "0x1",
      "cumulativeGasUsed": "0xe409ff",
      "logs": [
        {
          "address": "0x36b5de936ef1710e1d22eabe5231b28581a92ecc",
          "topics": [
            "0xddf252ad1be2c89b69c2b068fc378daa952ba7f163c4a11628f55a4df523b3ef",
            "0x0000000000000000000000000000000000000000000000000000000000000000",
            "0x0000000000000000000000004b3f725984d30ea7e8a4092a4bf684b97b99370c"
          ],
          "data": "0x000000000000000000000000000000000000000000000000000000003b9aca00",
          "blockHash": "0x79da37a75b1bc92bed4d8f22143fc5b5d4854e4fb35ba1e722c27478fe126601",
          "blockNumber": "0xa0b5cf",
          "blockTimestamp": "0x69c668d0",
          "transactionHash": "0x3f93b57ca6937098f9faaa281a7ece9a8ea577af2c7441e42662e9232c93ea0c",
          "transactionIndex": "0x73",
          "logIndex": "0x261",
          "removed": false
        },
        {
          "address": "0x36b5de936ef1710e1d22eabe5231b28581a92ecc",
          "topics": [
            "0x458f5fa412d0f69b08dd84872b0215675cc67bc1d5b6fd93300a1c3878b86196",
            "0x0000000000000000000000004b3f725984d30ea7e8a4092a4bf684b97b99370c",
            "0x0000000000000000000000004b3f725984d30ea7e8a4092a4bf684b97b99370c"
          ],
          "data": "0x000000000000000000000000000000000000000000000000000000003b9aca00000000000000000000000000000000000000000000000000000000000000000000000000000000000000000000000000000000000838e9ec0b6c4f4441e533ae",
          "blockHash": "0x79da37a75b1bc92bed4d8f22143fc5b5d4854e4fb35ba1e722c27478fe126601",
          "blockNumber": "0xa0b5cf",
          "blockTimestamp": "0x69c668d0",
          "transactionHash": "0x3f93b57ca6937098f9faaa281a7ece9a8ea577af2c7441e42662e9232c93ea0c",
          "transactionIndex": "0x73",
          "logIndex": "0x262",
          "removed": false
        },
        {
          "address": "0x6ae43d3271ff6888e7fc43fd7321a503ff738951",
          "topics": [
            "0x804c9b842b2748a22bb64b345453a3de7ca54a6ca45ce00d415894979e22897a",
            "0x00000000000000000000000094a9d9ac8a22534e3faca9f4e7f2e2cf85d5e4c8"
          ],
          "data": "0x000000000000000000000000000000000000000001dc6089e168d76561a00c6f0000000000000000000000000000000000000000021dcb2430b2cc7c8cc9c6960000000000000000000000000000000000000000021162c48f94ca901dc9c6960000000000000000000000000000000000000000073a501b7cbed4f89f40e4f500000000000000000000000000000000000000000838e9ec0b6c4f4441e533ae",
          "blockHash": "0x79da37a75b1bc92bed4d8f22143fc5b5d4854e4fb35ba1e722c27478fe126601",
          "blockNumber": "0xa0b5cf",
          "blockTimestamp": "0x69c668d0",
          "transactionHash": "0x3f93b57ca6937098f9faaa281a7ece9a8ea577af2c7441e42662e9232c93ea0c",
          "transactionIndex": "0x73",
          "logIndex": "0x263",
          "removed": false
        },
        {
          "address": "0x94a9d9ac8a22534e3faca9f4e7f2e2cf85d5e4c8",
          "topics": [
            "0xddf252ad1be2c89b69c2b068fc378daa952ba7f163c4a11628f55a4df523b3ef",
            "0x00000000000000000000000016da4541ad1807f4443d92d26044c1147406eb80",
            "0x0000000000000000000000004b3f725984d30ea7e8a4092a4bf684b97b99370c"
          ],
          "data": "0x000000000000000000000000000000000000000000000000000000003b9aca00",
          "blockHash": "0x79da37a75b1bc92bed4d8f22143fc5b5d4854e4fb35ba1e722c27478fe126601",
          "blockNumber": "0xa0b5cf",
          "blockTimestamp": "0x69c668d0",
          "transactionHash": "0x3f93b57ca6937098f9faaa281a7ece9a8ea577af2c7441e42662e9232c93ea0c",
          "transactionIndex": "0x73",
          "logIndex": "0x264",
          "removed": false
        },
        {
          "address": "0x6ae43d3271ff6888e7fc43fd7321a503ff738951",
          "topics": [
            "0xb3d084820fb1a9decffb176436bd02558d15fac9b0ddfed8c465bc7359d7dce0",
            "0x00000000000000000000000094a9d9ac8a22534e3faca9f4e7f2e2cf85d5e4c8",
            "0x0000000000000000000000004b3f725984d30ea7e8a4092a4bf684b97b99370c",
            "0x0000000000000000000000000000000000000000000000000000000000000000"
          ],
          "data": "0x0000000000000000000000004b3f725984d30ea7e8a4092a4bf684b97b99370c000000000000000000000000000000000000000000000000000000003b9aca0000000000000000000000000000000000000000000000000000000000000000020000000000000000000000000000000000000000021162c48f94ca901dc9c696",
          "blockHash": "0x79da37a75b1bc92bed4d8f22143fc5b5d4854e4fb35ba1e722c27478fe126601",
          "blockNumber": "0xa0b5cf",
          "blockTimestamp": "0x69c668d0",
          "transactionHash": "0x3f93b57ca6937098f9faaa281a7ece9a8ea577af2c7441e42662e9232c93ea0c",
          "transactionIndex": "0x73",
          "logIndex": "0x265",
          "removed": false
        }
      ],
      "logsBloom": "0x00000000000000008200000000000000000000000000400000000000000000000000000000000000000100000004000000000000002000000000000000000000000000000000000000000008000000000000000000000000000008040000000000000000020000000000000000000800000000000000000000010010100000000000000001000000000000100000000000200000000000000200000000000000040000000100000000004000000000000000000000000000000000100000010002000002000001000000002000000000000000000000060000000000000020000000000000000000000400000001000000000000000000000000000000000000",
      "type": "0x2",
      "transactionHash": "0x3f93b57ca6937098f9faaa281a7ece9a8ea577af2c7441e42662e9232c93ea0c",
      "transactionIndex": "0x73",
      "blockHash": "0x79da37a75b1bc92bed4d8f22143fc5b5d4854e4fb35ba1e722c27478fe126601",
      "blockNumber": "0xa0b5cf",
      "gasUsed": "0x3cf55",
      "effectiveGasPrice": "0xf4256",
      "from": "0x4b3f725984d30ea7e8a4092a4bf684b97b99370c",
      "to": "0x6ae43d3271ff6888e7fc43fd7321a503ff738951",
      "contractAddress": null
    },
    {
      "status": "0x1",
      "cumulativeGasUsed": "0xe61fce",
      "logs": [
        {
          "address": "0xa33df4fe1bee85588a94b4efca72b8ce6808aeda",
          "topics": [
            "0x29b5688caee54ceb8c27d4b86b745ba4379c5cdc9eb0ea810b052b8cfd5dc5f8",
            "0xa2fb3187aa2eaf894d515c7a93f49d6c1eaa15f13837b8776f382b1423c93dba",
            "0x0000000000000000000000004b3f725984d30ea7e8a4092a4bf684b97b99370c"
          ],
          "data": "0x0000000000000000000000000000000000000000000000000ff59ee833b300000000000000000000000000000000000000000000000000000000000005f5e1000000000000000000000000000000000000000000000000000000000000000019",
          "blockHash": "0x79da37a75b1bc92bed4d8f22143fc5b5d4854e4fb35ba1e722c27478fe126601",
          "blockNumber": "0xa0b5cf",
          "blockTimestamp": "0x69c668d0",
          "transactionHash": "0xf4e373dd8ca535f445268c265a87cd52fe970b518332d58ccf4ca2fbfd4b90ca",
          "transactionIndex": "0x74",
          "logIndex": "0x266",
          "removed": false
        }
      ],
      "logsBloom": "0x00000000000000000000000000800000000000000000000000000000000000000000000000000000000000000000000000000000000000000000000000000000000000000001000000000001000000000000000000000000000000000000000000000000000000002000000000000000000000000000000000110000000000000000000000000000000000000000000000000000000000000200000000000000040000000000000000000000000000000000100000000000000000000000000000000000000000000000000000000000000000000000001000000000000000000000000000000040000000000000000000000000000000004000000000000000",
      "type": "0x2",
      "transactionHash": "0xf4e373dd8ca535f445268c265a87cd52fe970b518332d58ccf4ca2fbfd4b90ca",
      "transactionIndex": "0x74",
      "blockHash": "0x79da37a75b1bc92bed4d8f22143fc5b5d4854e4fb35ba1e722c27478fe126601",
      "blockNumber": "0xa0b5cf",
      "gasUsed": "0x215cf",
      "effectiveGasPrice": "0xf4256",
      "from": "0x4b3f725984d30ea7e8a4092a4bf684b97b99370c",
      "to": "0xa33df4fe1bee85588a94b4efca72b8ce6808aeda",
      "contractAddress": null
    },
    {
      "status": "0x1",
      "cumulativeGasUsed": "0xe6d455",
      "logs": [
        {
          "address": "0x94a9d9ac8a22534e3faca9f4e7f2e2cf85d5e4c8",
          "topics": [
            "0x8c5be1e5ebec7d5bd14f71427d1e84f3dd0314c0f7b2291e5b200ac8c7c3b925",
            "0x0000000000000000000000004b3f725984d30ea7e8a4092a4bf684b97b99370c",
            "0x000000000000000000000000a33df4fe1bee85588a94b4efca72b8ce6808aeda"
          ],
          "data": "0x000000000000000000000000000000000000000000000000000000000bebc200",
          "blockHash": "0x79da37a75b1bc92bed4d8f22143fc5b5d4854e4fb35ba1e722c27478fe126601",
          "blockNumber": "0xa0b5cf",
          "blockTimestamp": "0x69c668d0",
          "transactionHash": "0xa42e551c2c3b6ef43cc32df728f8626a0fb7af55bc17e99c144cfadd867a1a80",
          "transactionIndex": "0x75",
          "logIndex": "0x267",
          "removed": false
        }
      ],
      "logsBloom": "0x00000000000000000000000001000000000000000000000000000000000000000000000000000000000000000000000000000000000000000000000000200000000000004000000000000000000000000000000000000000000008000000000000000000000000000000000000000000000000000000000000010000000000000000000000000000000000000000000000000000000000000200000000000000060000000100000000004000000000000000000000000000000000000000000000000000000000000000000000000000000200000000000000000000000000000010000000000000000000000000000000000000000000000000000000000000",
      "type": "0x2",
      "transactionHash": "0xa42e551c2c3b6ef43cc32df728f8626a0fb7af55bc17e99c144cfadd867a1a80",
      "transactionIndex": "0x75",
      "blockHash": "0x79da37a75b1bc92bed4d8f22143fc5b5d4854e4fb35ba1e722c27478fe126601",
      "blockNumber": "0xa0b5cf",
      "gasUsed": "0xb487",
      "effectiveGasPrice": "0xf4256",
      "from": "0x4b3f725984d30ea7e8a4092a4bf684b97b99370c",
      "to": "0x94a9d9ac8a22534e3faca9f4e7f2e2cf85d5e4c8",
      "contractAddress": null
    },
    {
      "status": "0x1",
      "cumulativeGasUsed": "0xe831ce",
      "logs": [
        {
          "address": "0x94a9d9ac8a22534e3faca9f4e7f2e2cf85d5e4c8",
          "topics": [
            "0xddf252ad1be2c89b69c2b068fc378daa952ba7f163c4a11628f55a4df523b3ef",
            "0x0000000000000000000000004b3f725984d30ea7e8a4092a4bf684b97b99370c",
            "0x000000000000000000000000a33df4fe1bee85588a94b4efca72b8ce6808aeda"
          ],
          "data": "0x000000000000000000000000000000000000000000000000000000000bebc200",
          "blockHash": "0x79da37a75b1bc92bed4d8f22143fc5b5d4854e4fb35ba1e722c27478fe126601",
          "blockNumber": "0xa0b5cf",
          "blockTimestamp": "0x69c668d0",
          "transactionHash": "0x93873365ed4f82f03612ded670581ef9e2b42f35842ab0452f674a0d15535cf0",
          "transactionIndex": "0x76",
          "logIndex": "0x268",
          "removed": false
        },
        {
          "address": "0x94a9d9ac8a22534e3faca9f4e7f2e2cf85d5e4c8",
          "topics": [
            "0x8c5be1e5ebec7d5bd14f71427d1e84f3dd0314c0f7b2291e5b200ac8c7c3b925",
            "0x0000000000000000000000004b3f725984d30ea7e8a4092a4bf684b97b99370c",
            "0x000000000000000000000000a33df4fe1bee85588a94b4efca72b8ce6808aeda"
          ],
          "data": "0x0000000000000000000000000000000000000000000000000000000000000000",
          "blockHash": "0x79da37a75b1bc92bed4d8f22143fc5b5d4854e4fb35ba1e722c27478fe126601",
          "blockNumber": "0xa0b5cf",
          "blockTimestamp": "0x69c668d0",
          "transactionHash": "0x93873365ed4f82f03612ded670581ef9e2b42f35842ab0452f674a0d15535cf0",
          "transactionIndex": "0x76",
          "logIndex": "0x269",
          "removed": false
        },
        {
          "address": "0xa33df4fe1bee85588a94b4efca72b8ce6808aeda",
          "topics": [
            "0xab4d21442efe134c3d0c087e2b687e9593a1c09176f498d37873210cde052c45",
            "0xa2fb3187aa2eaf894d515c7a93f49d6c1eaa15f13837b8776f382b1423c93dba"
          ],
          "data": "0x000000000000000000000000000000000000000000000000000000000bebc2000000000000000000000000000000000000000000000000000000000000000000",
          "blockHash": "0x79da37a75b1bc92bed4d8f22143fc5b5d4854e4fb35ba1e722c27478fe126601",
          "blockNumber": "0xa0b5cf",
          "blockTimestamp": "0x69c668d0",
          "transactionHash": "0x93873365ed4f82f03612ded670581ef9e2b42f35842ab0452f674a0d15535cf0",
          "transactionIndex": "0x76",
          "logIndex": "0x26a",
          "removed": false
        }
      ],
      "logsBloom": "0x00000000000000000000000001800000000000000000000000000000000000000000000000000000000000000000000000000000000000000000000000200000000000004001000000000009000000000000000000000000000008000000000000000000000000000000000008000000400000000000000000110010000000000000000000000000000000000000000000000000000000000200000000000000060000000100000000004000000000000000100000000000000000000000000000000002000000000000000000000000000200000000003000000000000000000010000000000000000000000000000000000000000000000000000000000000",
      "type": "0x2",
      "transactionHash": "0x93873365ed4f82f03612ded670581ef9e2b42f35842ab0452f674a0d15535cf0",
      "transactionIndex": "0x76",
      "blockHash": "0x79da37a75b1bc92bed4d8f22143fc5b5d4854e4fb35ba1e722c27478fe126601",
      "blockNumber": "0xa0b5cf",
      "gasUsed": "0x15d79",
      "effectiveGasPrice": "0xf4256",
      "from": "0x4b3f725984d30ea7e8a4092a4bf684b97b99370c",
      "to": "0xa33df4fe1bee85588a94b4efca72b8ce6808aeda",
      "contractAddress": null
    },
    {
      "status": "0x1",
      "cumulativeGasUsed": "0xebb993",
      "logs": [
        {
          "address": "0x3cc147b897b4e57b201e71a75e403b52a7da04b0",
          "topics": [
            "0x330679fd747e96941721aac9e50c9eeff220dd18ab8e296d5d86f1169955df14",
            "0xa2fb3187aa2eaf894d515c7a93f49d6c1eaa15f13837b8776f382b1423c93dba",
            "0x0000000000000000000000004b3f725984d30ea7e8a4092a4bf684b97b99370c",
            "0x00000000000000000000000094a9d9ac8a22534e3faca9f4e7f2e2cf85d5e4c8"
          ],
          "data": "0x00000000000000000000000036b5de936ef1710e1d22eabe5231b28581a92ecc",
          "blockHash": "0x79da37a75b1bc92bed4d8f22143fc5b5d4854e4fb35ba1e722c27478fe126601",
          "blockNumber": "0xa0b5cf",
          "blockTimestamp": "0x69c668d0",
          "transactionHash": "0x2e70a67c7bf98a544c571c698f0660575a38ed7a6083977b312635ef8e3e53cf",
          "transactionIndex": "0x77",
          "logIndex": "0x26b",
          "removed": false
        },
        {
          "address": "0x3cc147b897b4e57b201e71a75e403b52a7da04b0",
          "topics": [
            "0xb1b7af3632f49d5b19dbf83683fa7f25b3bb2b65bcaeed750857e79925bf1051",
            "0xa2fb3187aa2eaf894d515c7a93f49d6c1eaa15f13837b8776f382b1423c93dba"
          ],
          "data": "0x0000000000000000000000000000000000000000000000001f399b14be24b002000000000000000000000000000000000000000000000000000000003b9ac9ff",
          "blockHash": "0x79da37a75b1bc92bed4d8f22143fc5b5d4854e4fb35ba1e722c27478fe126601",
          "blockNumber": "0xa0b5cf",
          "blockTimestamp": "0x69c668d0",
          "transactionHash": "0x2e70a67c7bf98a544c571c698f0660575a38ed7a6083977b312635ef8e3e53cf",
          "transactionIndex": "0x77",
          "logIndex": "0x26c",
          "removed": false
        }
      ],
      "logsBloom": "0x00000000000000000200000000800000000000000000000000000000000000000000000000002000000100400000000000000000000000000000000000000000000000000000000000000000000000000000000000000000000000000000000000000000000000000000000040000000000000000000000000110000000000000000000000040000000000000000800000000000000000000200000000000000040000000000000000000000000100000000000000000000000000000000000000000000000000000000000000000000000000000000021000000000000000000000000000000040000000000000000000000000000000000000000000000200",
      "type": "0x2",
      "transactionHash": "0x2e70a67c7bf98a544c571c698f0660575a38ed7a6083977b312635ef8e3e53cf",
      "transactionIndex": "0x77",
      "blockHash": "0x79da37a75b1bc92bed4d8f22143fc5b5d4854e4fb35ba1e722c27478fe126601",
      "blockNumber": "0xa0b5cf",
      "gasUsed": "0x387c5",
      "effectiveGasPrice": "0xf4256",
      "from": "0x4b3f725984d30ea7e8a4092a4bf684b97b99370c",
      "to": "0x3cc147b897b4e57b201e71a75e403b52a7da04b0",
      "contractAddress": null
    },
    {
      "status": "0x1",
      "cumulativeGasUsed": "0xec6e1a",
      "logs": [
        {
          "address": "0x94a9d9ac8a22534e3faca9f4e7f2e2cf85d5e4c8",
          "topics": [
            "0x8c5be1e5ebec7d5bd14f71427d1e84f3dd0314c0f7b2291e5b200ac8c7c3b925",
            "0x0000000000000000000000004b3f725984d30ea7e8a4092a4bf684b97b99370c",
            "0x000000000000000000000000aab5bc6118d40af31de383c0d271194614af9476"
          ],
          "data": "0x0000000000000000000000000000000000000000000000000000000005f5e100",
          "blockHash": "0x79da37a75b1bc92bed4d8f22143fc5b5d4854e4fb35ba1e722c27478fe126601",
          "blockNumber": "0xa0b5cf",
          "blockTimestamp": "0x69c668d0",
          "transactionHash": "0x9f028f213575449fd62dd6db179ae15b94eef410d901954127349ab9550dfc95",
          "transactionIndex": "0x78",
          "logIndex": "0x26d",
          "removed": false
        }
      ],
      "logsBloom": "0x00000000000000000000000000000000000000000000000000000000000000000000000000000000000000000000000000000000000000000000000000200000000000000000000000000000000000000000000000000000000008000000000000000000000000000000000000000000800000000000000000010000000000000000000000000000000000000000000000000000000000000200000000000000060000000100000800004000000000000000000000000000000000000000000000000000000000000000000000000000000000000000000000000008000000000010000000000000000000000000000000000000000000000000000000000000",
      "type": "0x2",
      "transactionHash": "0x9f028f213575449fd62dd6db179ae15b94eef410d901954127349ab9550dfc95",
      "transactionIndex": "0x78",
      "blockHash": "0x79da37a75b1bc92bed4d8f22143fc5b5d4854e4fb35ba1e722c27478fe126601",
      "blockNumber": "0xa0b5cf",
      "gasUsed": "0xb487",
      "effectiveGasPrice": "0xf4256",
      "from": "0x4b3f725984d30ea7e8a4092a4bf684b97b99370c",
      "to": "0x94a9d9ac8a22534e3faca9f4e7f2e2cf85d5e4c8",
      "contractAddress": null
    },
    {
      "status": "0x1",
      "cumulativeGasUsed": "0xed563a",
      "logs": [
        {
          "address": "0x94a9d9ac8a22534e3faca9f4e7f2e2cf85d5e4c8",
          "topics": [
            "0xddf252ad1be2c89b69c2b068fc378daa952ba7f163c4a11628f55a4df523b3ef",
            "0x0000000000000000000000004b3f725984d30ea7e8a4092a4bf684b97b99370c",
            "0x000000000000000000000000aab5bc6118d40af31de383c0d271194614af9476"
          ],
          "data": "0x0000000000000000000000000000000000000000000000000000000005f5e100",
          "blockHash": "0x79da37a75b1bc92bed4d8f22143fc5b5d4854e4fb35ba1e722c27478fe126601",
          "blockNumber": "0xa0b5cf",
          "blockTimestamp": "0x69c668d0",
          "transactionHash": "0x92da717ea6cc67bbf17b10fbd270559a29d6d91224d85354aae82144c325abb3",
          "transactionIndex": "0x79",
          "logIndex": "0x26e",
          "removed": false
        },
        {
          "address": "0x94a9d9ac8a22534e3faca9f4e7f2e2cf85d5e4c8",
          "topics": [
            "0x8c5be1e5ebec7d5bd14f71427d1e84f3dd0314c0f7b2291e5b200ac8c7c3b925",
            "0x0000000000000000000000004b3f725984d30ea7e8a4092a4bf684b97b99370c",
            "0x000000000000000000000000aab5bc6118d40af31de383c0d271194614af9476"
          ],
          "data": "0x0000000000000000000000000000000000000000000000000000000000000000",
          "blockHash": "0x79da37a75b1bc92bed4d8f22143fc5b5d4854e4fb35ba1e722c27478fe126601",
          "blockNumber": "0xa0b5cf",
          "blockTimestamp": "0x69c668d0",
          "transactionHash": "0x92da717ea6cc67bbf17b10fbd270559a29d6d91224d85354aae82144c325abb3",
          "transactionIndex": "0x79",
          "logIndex": "0x26f",
          "removed": false
        },
        {
          "address": "0xaab5bc6118d40af31de383c0d271194614af9476",
          "topics": [
            "0xbb9e497a5b82d1a37f9496dd70c6efb97ba0d98c66c3422d05010105d0633598",
            "0x0000000000000000000000004b3f725984d30ea7e8a4092a4bf684b97b99370c"
          ],
          "data": "0x0000000000000000000000000000000000000000000000000000000005f5e100",
          "blockHash": "0x79da37a75b1bc92bed4d8f22143fc5b5d4854e4fb35ba1e722c27478fe126601",
          "blockNumber": "0xa0b5cf",
          "blockTimestamp": "0x69c668d0",
          "transactionHash": "0x92da717ea6cc67bbf17b10fbd270559a29d6d91224d85354aae82144c325abb3",
          "transactionIndex": "0x79",
          "logIndex": "0x270",
          "removed": false
        }
      ],
      "logsBloom": "0x00000000000000000000000000000000000010000000000000000000000000000000000000000000000000000000000000000000000000000000000000200000000000000000000000000008000000000000000000000000000008010000000000000000000000000000000000000000800000000000000000010010000000010000000000000000000000008000000000000000000000000200000000000000060000000100000800004000000000000000000000000000200000000000000000000002000000000000000000000000000000000000000000000008000000000010000040000000000000000000000000000000000000000000000000000000",
      "type": "0x2",
      "transactionHash": "0x92da717ea6cc67bbf17b10fbd270559a29d6d91224d85354aae82144c325abb3",
      "transactionIndex": "0x79",
      "blockHash": "0x79da37a75b1bc92bed4d8f22143fc5b5d4854e4fb35ba1e722c27478fe126601",
      "blockNumber": "0xa0b5cf",
      "gasUsed": "0xe820",
      "effectiveGasPrice": "0xf4256",
      "from": "0x4b3f725984d30ea7e8a4092a4bf684b97b99370c",
      "to": "0xaab5bc6118d40af31de383c0d271194614af9476",
      "contractAddress": null
    },
    {
      "status": "0x1",
      "cumulativeGasUsed": "0xee6c0b",
      "logs": [],
      "logsBloom": "0x00000000000000000000000000000000000000000000000000000000000000000000000000000000000000000000000000000000000000000000000000000000000000000000000000000000000000000000000000000000000000000000000000000000000000000000000000000000000000000000000000000000000000000000000000000000000000000000000000000000000000000000000000000000000000000000000000000000000000000000000000000000000000000000000000000000000000000000000000000000000000000000000000000000000000000000000000000000000000000000000000000000000000000000000000000000",
      "type": "0x2",
      "transactionHash": "0x6b28c82bbecdf84dcdbe3b7f373858919afc97202b66582f22586a8aaf5d21a0",
      "transactionIndex": "0x7a",
      "blockHash": "0x79da37a75b1bc92bed4d8f22143fc5b5d4854e4fb35ba1e722c27478fe126601",
      "blockNumber": "0xa0b5cf",
      "gasUsed": "0x115d1",
      "effectiveGasPrice": "0xf4256",
      "from": "0x4b3f725984d30ea7e8a4092a4bf684b97b99370c",
      "to": "0xc9f36411c9897e7f959d99ffca2a0ba7ee0d7bda",
      "contractAddress": null
    },
    {
      "status": "0x1",
      "cumulativeGasUsed": "0xef81dc",
      "logs": [],
      "logsBloom": "0x00000000000000000000000000000000000000000000000000000000000000000000000000000000000000000000000000000000000000000000000000000000000000000000000000000000000000000000000000000000000000000000000000000000000000000000000000000000000000000000000000000000000000000000000000000000000000000000000000000000000000000000000000000000000000000000000000000000000000000000000000000000000000000000000000000000000000000000000000000000000000000000000000000000000000000000000000000000000000000000000000000000000000000000000000000000",
      "type": "0x2",
      "transactionHash": "0xbc8bdf2e951d6bc6607086f424b6f9b50ea4f46fce83c163ccd2510226dd0176",
      "transactionIndex": "0x7b",
      "blockHash": "0x79da37a75b1bc92bed4d8f22143fc5b5d4854e4fb35ba1e722c27478fe126601",
      "blockNumber": "0xa0b5cf",
      "gasUsed": "0x115d1",
      "effectiveGasPrice": "0xf4256",
      "from": "0x4b3f725984d30ea7e8a4092a4bf684b97b99370c",
      "to": "0xc9f36411c9897e7f959d99ffca2a0ba7ee0d7bda",
      "contractAddress": null
    },
    {
      "status": "0x1",
      "cumulativeGasUsed": "0xf097ad",
      "logs": [],
      "logsBloom": "0x00000000000000000000000000000000000000000000000000000000000000000000000000000000000000000000000000000000000000000000000000000000000000000000000000000000000000000000000000000000000000000000000000000000000000000000000000000000000000000000000000000000000000000000000000000000000000000000000000000000000000000000000000000000000000000000000000000000000000000000000000000000000000000000000000000000000000000000000000000000000000000000000000000000000000000000000000000000000000000000000000000000000000000000000000000000",
      "type": "0x2",
      "transactionHash": "0xe9b93be3332d81af721c8a32083fa10566a02ed7ec9c6dd6992ec136a133a3e2",
      "transactionIndex": "0x7c",
      "blockHash": "0x79da37a75b1bc92bed4d8f22143fc5b5d4854e4fb35ba1e722c27478fe126601",
      "blockNumber": "0xa0b5cf",
      "gasUsed": "0x115d1",
      "effectiveGasPrice": "0xf4256",
      "from": "0x4b3f725984d30ea7e8a4092a4bf684b97b99370c",
      "to": "0xc9f36411c9897e7f959d99ffca2a0ba7ee0d7bda",
      "contractAddress": null
    }
  ],
  "libraries": [],
  "pending": [],
  "returns": {},
  "timestamp": 1774610641,
  "chain": 11155111,
  "commit": "a782da8"
}