{
  "transactions": [
    {
      "hash": "0x4fd985858a73a550e91d4947e1d262046ef0d7c6e7383fee4e2b1af88a04237f",
      "transactionType": "CALL",
      "contractName": null,
      "contractAddress": "0x6ae43d3271ff6888e7fc43fd7321a503ff738951",
      "function": "borrow(address,uint256,uint256,uint16,address)",
      "arguments": [
        "0x94a9D9AC8a22534E3FaCa9F4e7F2E2cf85d5E4C8",
        "1000000000",
        "2",
        "0",
        "0x5508532b027D57b020e6C0BeDB1fE19a6d6C555c"
      ],
      "transaction": {
        "from": "0x5508532b027d57b020e6c0bedb1fe19a6d6c555c",
        "to": "0x6ae43d3271ff6888e7fc43fd7321a503ff738951",
        "gas": "0x56671",
        "value": "0x0",
        "input": "0xa415bcad00000000000000000000000094a9d9ac8a22534e3faca9f4e7f2e2cf85d5e4c8000000000000000000000000000000000000000000000000000000003b9aca00000000000000000000000000000000000000000000000000000000000000000200000000000000000000000000000000000000000000000000000000000000000000000000000000000000005508532b027d57b020e6c0bedb1fe19a6d6c555c",
        "nonce": "0x44",
        "chainId": "0xaa36a7"
      },
      "additionalContracts": [],
      "isFixedGasLimit": false
    }
  ],
  "receipts": [
    {
      "status": "0x1",
      "cumulativeGasUsed": "0x1dd58a7",
      "logs": [
        {
          "address": "0x36b5de936ef1710e1d22eabe5231b28581a92ecc",
          "topics": [
            "0xddf252ad1be2c89b69c2b068fc378daa952ba7f163c4a11628f55a4df523b3ef",
            "0x0000000000000000000000000000000000000000000000000000000000000000",
            "0x0000000000000000000000005508532b027d57b020e6c0bedb1fe19a6d6c555c"
          ],
          "data": "0x000000000000000000000000000000000000000000000000000000003b9ae964",
          "blockHash": "0x4f0b7370f1a566b3f4f71134789462770f34d2e8bb7d776dc76c45c04cc872b6",
          "blockNumber": "0xa0b495",
          "blockTimestamp": "0x69c65970",
          "transactionHash": "0x4fd985858a73a550e91d4947e1d262046ef0d7c6e7383fee4e2b1af88a04237f",
          "transactionIndex": "0xa0",
          "logIndex": "0x2eb",
          "removed": false
        },
        {
          "address": "0x36b5de936ef1710e1d22eabe5231b28581a92ecc",
          "topics": [
            "0x458f5fa412d0f69b08dd84872b0215675cc67bc1d5b6fd93300a1c3878b86196",
            "0x0000000000000000000000005508532b027d57b020e6c0bedb1fe19a6d6c555c",
            "0x0000000000000000000000005508532b027d57b020e6c0bedb1fe19a6d6c555c"
          ],
          "data": "0x000000000000000000000000000000000000000000000000000000003b9ae9640000000000000000000000000000000000000000000000000000000000001f6400000000000000000000000000000000000000000838bee1b48ab0aaa282120a",
          "blockHash": "0x4f0b7370f1a566b3f4f71134789462770f34d2e8bb7d776dc76c45c04cc872b6",
          "blockNumber": "0xa0b495",
          "blockTimestamp": "0x69c65970",
          "transactionHash": "0x4fd985858a73a550e91d4947e1d262046ef0d7c6e7383fee4e2b1af88a04237f",
          "transactionIndex": "0xa0",
          "logIndex": "0x2ec",
          "removed": false
        },
        {
          "address": "0x6ae43d3271ff6888e7fc43fd7321a503ff738951",
          "topics": [
            "0x804c9b842b2748a22bb64b345453a3de7ca54a6ca45ce00d415894979e22897a",
            "0x00000000000000000000000094a9d9ac8a22534e3faca9f4e7f2e2cf85d5e4c8"
          ],
          "data": "0x000000000000000000000000000000000000000001dc602aedce9609346798180000000000000000000000000000000000000000021dcac51d008edbe316c9660000000000000000000000000000000000000000021162657be28cef7416c9660000000000000000000000000000000000000000073a2e0fcfe9205b844ee78600000000000000000000000000000000000000000838bee1b48ab0aaa282120a",
          "blockHash": "0x4f0b7370f1a566b3f4f71134789462770f34d2e8bb7d776dc76c45c04cc872b6",
          "blockNumber": "0xa0b495",
          "blockTimestamp": "0x69c65970",
          "transactionHash": "0x4fd985858a73a550e91d4947e1d262046ef0d7c6e7383fee4e2b1af88a04237f",
          "transactionIndex": "0xa0",
          "logIndex": "0x2ed",
          "removed": false
        },
        {
          "address": "0x94a9d9ac8a22534e3faca9f4e7f2e2cf85d5e4c8",
          "topics": [
            "0xddf252ad1be2c89b69c2b068fc378daa952ba7f163c4a11628f55a4df523b3ef",
            "0x00000000000000000000000016da4541ad1807f4443d92d26044c1147406eb80",
            "0x0000000000000000000000005508532b027d57b020e6c0bedb1fe19a6d6c555c"
          ],
          "data": "0x000000000000000000000000000000000000000000000000000000003b9aca00",
          "blockHash": "0x4f0b7370f1a566b3f4f71134789462770f34d2e8bb7d776dc76c45c04cc872b6",
          "blockNumber": "0xa0b495",
          "blockTimestamp": "0x69c65970",
          "transactionHash": "0x4fd985858a73a550e91d4947e1d262046ef0d7c6e7383fee4e2b1af88a04237f",
          "transactionIndex": "0xa0",
          "logIndex": "0x2ee",
          "removed": false
        },
        {
          "address": "0x6ae43d3271ff6888e7fc43fd7321a503ff738951",
          "topics": [
            "0xb3d084820fb1a9decffb176436bd02558d15fac9b0ddfed8c465bc7359d7dce0",
            "0x00000000000000000000000094a9d9ac8a22534e3faca9f4e7f2e2cf85d5e4c8",
            "0x0000000000000000000000005508532b027d57b020e6c0bedb1fe19a6d6c555c",
            "0x0000000000000000000000000000000000000000000000000000000000000000"
          ],
          "data": "0x0000000000000000000000005508532b027d57b020e6c0bedb1fe19a6d6c555c000000000000000000000000000000000000000000000000000000003b9aca0000000000000000000000000000000000000000000000000000000000000000020000000000000000000000000000000000000000021162657be28cef7416c966",
          "blockHash": "0x4f0b7370f1a566b3f4f71134789462770f34d2e8bb7d776dc76c45c04cc872b6",
          "blockNumber": "0xa0b495",
          "blockTimestamp": "0x69c65970",
          "transactionHash": "0x4fd985858a73a550e91d4947e1d262046ef0d7c6e7383fee4e2b1af88a04237f",
          "transactionIndex": "0xa0",
          "logIndex": "0x2ef",
          "removed": false
        }
      ],
      "logsBloom": "0x00000000000000008200000000000000000000000000400000000000000000000000000000000000000100000004000000000000002000000000000000000000000000000000000000000008000000000000000000000000000008040000000000000000020000000000000000000800000000000000000000000010100000000000000001000000000000100000000000200000000000000000000000000000000000000100000000004000000000000000000000000000000000100000010002000002000001000000002000000000000000000000060004000000000020000000000000000000000402100001000000000000000000000000000000000000",
      "type": "0x2",
      "transactionHash": "0x4fd985858a73a550e91d4947e1d262046ef0d7c6e7383fee4e2b1af88a04237f",
      "transactionIndex": "0xa0",
      "blockHash": "0x4f0b7370f1a566b3f4f71134789462770f34d2e8bb7d776dc76c45c04cc872b6",
      "blockNumber": "0xa0b495",
      "gasUsed": "0x3b143",
      "effectiveGasPrice": "0x124f9f",
      "from": "0x5508532b027d57b020e6c0bedb1fe19a6d6c555c",
      "to": "0x6ae43d3271ff6888e7fc43fd7321a503ff738951",
      "contractAddress": null
    }
  ],
  "libraries": [],
  "pending": [],
  "returns": {},
  "timestamp": 1774606705,
  "chain": 11155111,
  "commit": "a782da8"
}