{
  "transactions": [
    {
      "hash": "0x45ace380120a6a8faef35283f4cce722d664a12875edadf69eb0c68e050ecad3",
      "transactionType": "CALL",
      "contractName": null,
      "contractAddress": "0x6ae43d3271ff6888e7fc43fd7321a503ff738951",
      "function": "borrow(address,uint256,uint256,uint16,address)",
      "arguments": [
        "0x94a9D9AC8a22534E3FaCa9F4e7F2E2cf85d5E4C8",
        "1000000000",
        "2",
        "0",
        "0x4b3f725984D30eA7E8a4092a4Bf684B97B99370C"
      ],
      "transaction": {
        "from": "0x4b3f725984d30ea7e8a4092a4bf684b97b99370c",
        "to": "0x6ae43d3271ff6888e7fc43fd7321a503ff738951",
        "gas": "0x56671",
        "value": "0x0",
        "input": "0xa415bcad00000000000000000000000094a9d9ac8a22534e3faca9f4e7f2e2cf85d5e4c8000000000000000000000000000000000000000000000000000000003b9aca00000000000000000000000000000000000000000000000000000000000000000200000000000000000000000000000000000000000000000000000000000000000000000000000000000000004b3f725984d30ea7e8a4092a4bf684b97b99370c",
        "nonce": "0x11",
        "chainId": "0xaa36a7"
      },
      "additionalContracts": [],
      "isFixedGasLimit": false
    }
  ],
  "receipts": [
    {
      "status": "0x1",
      "cumulativeGasUsed": "0xce2c91",
      "logs": [
        {
          "address": "0x36b5de936ef1710e1d22eabe5231b28581a92ecc",
          "topics": [
            "0xddf252ad1be2c89b69c2b068fc378daa952ba7f163c4a11628f55a4df523b3ef",
            "0x0000000000000000000000000000000000000000000000000000000000000000",
            "0x0000000000000000000000004b3f725984d30ea7e8a4092a4bf684b97b99370c"
          ],
          "data": "0x000000000000000000000000000000000000000000000000000000003b9ad0a9",
          "blockHash": "0x9fd7bb6f6fa6125f6c0139fb417508bf74d75b3726881e4e0db12eec6eabaec2",
          "blockNumber": "0xa0b5d6",
          "blockTimestamp": "0x69c66924",
          "transactionHash": "0x45ace380120a6a8faef35283f4cce722d664a12875edadf69eb0c68e050ecad3",
          "transactionIndex": "0x5a",
          "logIndex": "0x25e",
          "removed": false
        },
        {
          "address": "0x36b5de936ef1710e1d22eabe5231b28581a92ecc",
          "topics": [
            "0x458f5fa412d0f69b08dd84872b0215675cc67bc1d5b6fd93300a1c3878b86196",
            "0x0000000000000000000000004b3f725984d30ea7e8a4092a4bf684b97b99370c",
            "0x0000000000000000000000004b3f725984d30ea7e8a4092a4bf684b97b99370c"
          ],
          "data": "0x000000000000000000000000000000000000000000000000000000003b9ad0a900000000000000000000000000000000000000000000000000000000000006a900000000000000000000000000000000000000000838ead733cc5d906f49d91a",
          "blockHash": "0x9fd7bb6f6fa6125f6c0139fb417508bf74d75b3726881e4e0db12eec6eabaec2",
          "blockNumber": "0xa0b5d6",
          "blockTimestamp": "0x69c66924",
          "transactionHash": "0x45ace380120a6a8faef35283f4cce722d664a12875edadf69eb0c68e050ecad3",
          "transactionIndex": "0x5a",
          "logIndex": "0x25f",
          "removed": false
        },
        {
          "address": "0x6ae43d3271ff6888e7fc43fd7321a503ff738951",
          "topics": [
            "0x804c9b842b2748a22bb64b345453a3de7ca54a6ca45ce00d415894979e22897a",
            "0x00000000000000000000000094a9d9ac8a22534e3faca9f4e7f2e2cf85d5e4c8"
          ],
          "data": "0x000000000000000000000000000000000000000001dc60e5e19b06cda684bd050000000000000000000000000000000000000000021dcb809233c66c856b6f06000000000000000000000000000000000000000002116320f115c480166b6f060000000000000000000000000000000000000000073a50d5809fe7089f42222f00000000000000000000000000000000000000000838ead733cc5d906f49d91a",
          "blockHash": "0x9fd7bb6f6fa6125f6c0139fb417508bf74d75b3726881e4e0db12eec6eabaec2",
          "blockNumber": "0xa0b5d6",
          "blockTimestamp": "0x69c66924",
          "transactionHash": "0x45ace380120a6a8faef35283f4cce722d664a12875edadf69eb0c68e050ecad3",
          "transactionIndex": "0x5a",
          "logIndex": "0x260",
          "removed": false
        },
        {
          "address": "0x94a9d9ac8a22534e3faca9f4e7f2e2cf85d5e4c8",
          "topics": [
            "0xddf252ad1be2c89b69c2b068fc378daa952ba7f163c4a11628f55a4df523b3ef",
            "0x00000000000000000000000016da4541ad1807f4443d92d26044c1147406eb80",
            "0x0000000000000000000000004b3f725984d30ea7e8a4092a4bf684b97b99370c"
          ],
          "data": "0x000000000000000000000000000000000000000000000000000000003b9aca00",
          "blockHash": "0x9fd7bb6f6fa6125f6c0139fb417508bf74d75b3726881e4e0db12eec6eabaec2",
          "blockNumber": "0xa0b5d6",
          "blockTimestamp": "0x69c66924",
          "transactionHash": "0x45ace380120a6a8faef35283f4cce722d664a12875edadf69eb0c68e050ecad3",
          "transactionIndex": "0x5a",
          "logIndex": "0x261",
          "removed": false
        },
        {
          "address": "0x6ae43d3271ff6888e7fc43fd7321a503ff738951",
          "topics": [
            "0xb3d084820fb1a9decffb176436bd02558d15fac9b0ddfed8c465bc7359d7dce0",
            "0x00000000000000000000000094a9d9ac8a22534e3faca9f4e7f2e2cf85d5e4c8",
            "0x0000000000000000000000004b3f725984d30ea7e8a4092a4bf684b97b99370c",
            "0x0000000000000000000000000000000000000000000000000000000000000000"
          ],
          "data": "0x0000000000000000000000004b3f725984d30ea7e8a4092a4bf684b97b99370c000000000000000000000000000000000000000000000000000000003b9aca000000000000000000000000000000000000000000000000000000000000000002000000000000000000000000000000000000000002116320f115c480166b6f06",
          "blockHash": "0x9fd7bb6f6fa6125f6c0139fb417508bf74d75b3726881e4e0db12eec6eabaec2",
          "blockNumber": "0xa0b5d6",
          "blockTimestamp": "0x69c66924",
          "transactionHash": "0x45ace380120a6a8faef35283f4cce722d664a12875edadf69eb0c68e050ecad3",
          "transactionIndex": "0x5a",
          "logIndex": "0x262",
          "removed": false
        }
      ],
      "logsBloom": "0x00000000000000008200000000000000000000000000400000000000000000000000000000000000000100000004000000000000002000000000000000000000000000000000000000000008000000000000000000000000000008040000000000000000020000000000000000000800000000000000000000010010100000000000000001000000000000100000000000200000000000000200000000000000040000000100000000004000000000000000000000000000000000100000010002000002000001000000002000000000000000000000060000000000000020000000000000000000000400000001000000000000000000000000000000000000",
      "type": "0x2",
      "transactionHash": "0x45ace380120a6a8faef35283f4cce722d664a12875edadf69eb0c68e050ecad3",
      "transactionIndex": "0x5a",
      "blockHash": "0x9fd7bb6f6fa6125f6c0139fb417508bf74d75b3726881e4e0db12eec6eabaec2",
      "blockNumber": "0xa0b5d6",
      "gasUsed": "0x3b143",
      "effectiveGasPrice": "0xf4255",
      "from": "0x4b3f725984d30ea7e8a4092a4bf684b97b99370c",
      "to": "0x6ae43d3271ff6888e7fc43fd7321a503ff738951",
      "contractAddress": null
    }
  ],
  "libraries": [],
  "pending": [],
  "returns": {},
  "timestamp": 1774610725,
  "chain": 11155111,
  "commit": "a782da8"
}