{
  "transactions": [
    {
      "hash": "0x2a60bddfbeab59fbf8c377cd693bf7399fc19280f19763b6ef262049b834e33f",
      "transactionType": "CALL",
      "contractName": null,
      "contractAddress": "0x6ae43d3271ff6888e7fc43fd7321a503ff738951",
      "function": "borrow(address,uint256,uint256,uint16,address)",
      "arguments": [
        "0x94a9D9AC8a22534E3FaCa9F4e7F2E2cf85d5E4C8",
        "1000000",
        "2",
        "0",
        "0x4b3f725984D30eA7E8a4092a4Bf684B97B99370C"
      ],
      "transaction": {
        "from": "0x4b3f725984d30ea7e8a4092a4bf684b97b99370c",
        "to": "0x6ae43d3271ff6888e7fc43fd7321a503ff738951",
        "gas": "0x56671",
        "value": "0x0",
        "input": "0xa415bcad00000000000000000000000094a9d9ac8a22534e3faca9f4e7f2e2cf85d5e4c800000000000000000000000000000000000000000000000000000000000f4240000000000000000000000000000000000000000000000000000000000000000200000000000000000000000000000000000000000000000000000000000000000000000000000000000000004b3f725984d30ea7e8a4092a4bf684b97b99370c",
        "nonce": "0x12",
        "chainId": "0xaa36a7"
      },
      "additionalContracts": [],
      "isFixedGasLimit": false
    }
  ],
  "receipts": [
    {
      "status": "0x1",
      "cumulativeGasUsed": "0x135101f",
      "logs": [
        {
          "address": "0x36b5de936ef1710e1d22eabe5231b28581a92ecc",
          "topics": [
            "0xddf252ad1be2c89b69c2b068fc378daa952ba7f163c4a11628f55a4df523b3ef",
            "0x0000000000000000000000000000000000000000000000000000000000000000",
            "0x0000000000000000000000004b3f725984d30ea7e8a4092a4bf684b97b99370c"
          ],
          "data": "0x00000000000000000000000000000000000000000000000000000000000f6a35",
          "blockHash": "0x79413301d9a56474cefb4dbbc81947b071e630e89ea3aa391ff73733876bda93",
          "blockNumber": "0xa0b5eb",
          "blockTimestamp": "0x69c66a20",
          "transactionHash": "0x2a60bddfbeab59fbf8c377cd693bf7399fc19280f19763b6ef262049b834e33f",
          "transactionIndex": "0x87",
          "logIndex": "0x368",
          "removed": false
        },
        {
          "address": "0x36b5de936ef1710e1d22eabe5231b28581a92ecc",
          "topics": [
            "0x458f5fa412d0f69b08dd84872b0215675cc67bc1d5b6fd93300a1c3878b86196",
            "0x0000000000000000000000004b3f725984d30ea7e8a4092a4bf684b97b99370c",
            "0x0000000000000000000000004b3f725984d30ea7e8a4092a4bf684b97b99370c"
          ],
          "data": "0x00000000000000000000000000000000000000000000000000000000000f6a3500000000000000000000000000000000000000000000000000000000000027f500000000000000000000000000000000000000000838ed98ae0545b3f3244f9f",
          "blockHash": "0x79413301d9a56474cefb4dbbc81947b071e630e89ea3aa391ff73733876bda93",
          "blockNumber": "0xa0b5eb",
          "blockTimestamp": "0x69c66a20",
          "transactionHash": "0x2a60bddfbeab59fbf8c377cd693bf7399fc19280f19763b6ef262049b834e33f",
          "transactionIndex": "0x87",
          "logIndex": "0x369",
          "removed": false
        },
        {
          "address": "0x6ae43d3271ff6888e7fc43fd7321a503ff738951",
          "topics": [
            "0x804c9b842b2748a22bb64b345453a3de7ca54a6ca45ce00d415894979e22897a",
            "0x00000000000000000000000094a9d9ac8a22534e3faca9f4e7f2e2cf85d5e4c8"
          ],
          "data": "0x000000000000000000000000000000000000000001dc60e5fe357d1a9d4b61d80000000000000000000000000000000000000000021dcb80aa7381a100a8e31000000000000000000000000000000000000000000211632109557fb491a8e3100000000000000000000000000000000000000000073a53038d0c3a7da1260e2200000000000000000000000000000000000000000838ed98ae0545b3f3244f9f",
          "blockHash": "0x79413301d9a56474cefb4dbbc81947b071e630e89ea3aa391ff73733876bda93",
          "blockNumber": "0xa0b5eb",
          "blockTimestamp": "0x69c66a20",
          "transactionHash": "0x2a60bddfbeab59fbf8c377cd693bf7399fc19280f19763b6ef262049b834e33f",
          "transactionIndex": "0x87",
          "logIndex": "0x36a",
          "removed": false
        },
        {
          "address": "0x94a9d9ac8a22534e3faca9f4e7f2e2cf85d5e4c8",
          "topics": [
            "0xddf252ad1be2c89b69c2b068fc378daa952ba7f163c4a11628f55a4df523b3ef",
            "0x00000000000000000000000016da4541ad1807f4443d92d26044c1147406eb80",
            "0x0000000000000000000000004b3f725984d30ea7e8a4092a4bf684b97b99370c"
          ],
          "data": "0x00000000000000000000000000000000000000000000000000000000000f4240",
          "blockHash": "0x79413301d9a56474cefb4dbbc81947b071e630e89ea3aa391ff73733876bda93",
          "blockNumber": "0xa0b5eb",
          "blockTimestamp": "0x69c66a20",
          "transactionHash": "0x2a60bddfbeab59fbf8c377cd693bf7399fc19280f19763b6ef262049b834e33f",
          "transactionIndex": "0x87",
          "logIndex": "0x36b",
          "removed": false
        },
        {
          "address": "0x6ae43d3271ff6888e7fc43fd7321a503ff738951",
          "topics": [
            "0xb3d084820fb1a9decffb176436bd02558d15fac9b0ddfed8c465bc7359d7dce0",
            "0x00000000000000000000000094a9d9ac8a22534e3faca9f4e7f2e2cf85d5e4c8",
            "0x0000000000000000000000004b3f725984d30ea7e8a4092a4bf684b97b99370c",
            "0x0000000000000000000000000000000000000000000000000000000000000000"
          ],
          "data": "0x0000000000000000000000004b3f725984d30ea7e8a4092a4bf684b97b99370c00000000000000000000000000000000000000000000000000000000000f4240000000000000000000000000000000000000000000000000000000000000000200000000000000000000000000000000000000000211632109557fb491a8e310",
          "blockHash": "0x79413301d9a56474cefb4dbbc81947b071e630e89ea3aa391ff73733876bda93",
          "blockNumber": "0xa0b5eb",
          "blockTimestamp": "0x69c66a20",
          "transactionHash": "0x2a60bddfbeab59fbf8c377cd693bf7399fc19280f19763b6ef262049b834e33f",
          "transactionIndex": "0x87",
          "logIndex": "0x36c",
          "removed": false
        }
      ],
      "logsBloom": "0x00000000000000008200000000000000000000000000400000000000000000000000000000000000000100000004000000000000002000000000000000000000000000000000000000000008000000000000000000000000000008040000000000000000020000000000000000000800000000000000000000010010100000000000000001000000000000100000000000200000000000000200000000000000040000000100000000004000000000000000000000000000000000100000010002000002000001000000002000000000000000000000060000000000000020000000000000000000000400000001000000000000000000000000000000000000",
      "type": "0x2",
      "transactionHash": "0x2a60bddfbeab59fbf8c377cd693bf7399fc19280f19763b6ef262049b834e33f",
      "transactionIndex": "0x87",
      "blockHash": "0x79413301d9a56474cefb4dbbc81947b071e630e89ea3aa391ff73733876bda93",
      "blockNumber": "0xa0b5eb",
      "gasUsed": "0x3b143",
      "effectiveGasPrice": "0xf4254",
      "from": "0x4b3f725984d30ea7e8a4092a4bf684b97b99370c",
      "to": "0x6ae43d3271ff6888e7fc43fd7321a503ff738951",
      "contractAddress": null
    }
  ],
  "libraries": [],
  "pending": [],
  "returns": {},
  "timestamp": 1774610977,
  "chain": 11155111,
  "commit": "a782da8"
}